:020000040808EA
:100000000000080898B20808000006000A00050170
:080010000402DE0500000000FF
:0400180074A30808BD
:1000200009480A4908B5884205D0094A824202D0E7
:10003000121A07F072FA0748074A0021121A07F04D
:1000400077FA064808BD00BF0000002034B1080858
:100050003C01002040010020100A0020100A00206E
:1000600070B504F065FF074B074C1E46E41AA40860
:100070000025A54204D056F8253098470135F8E709
:1000800070BD00BF7CB0080828B1080800F0EABCC9
:1000900008B500F0EDFCBDE8084004F00BBF04F02B
:1000A00085B904F08BB90078B0FA80F04009704748
:1000B0000123037070472DE9F04180461420164655
:1000C0000F461D4604F072F9866000260446C0F80B
:1000D00000804760C660066165B1686850B1013054
:1000E00004F064F9E06095E8060007F016FAE268AB
:1000F0006B68D6542046BDE8F081002301461A46BD
:100100006FF00100FFF7D7BF002301461A464FF0FA
:10011000FF30FFF7D0BF002301461A461846FFF70D
:10012000CABF0B46002201460120FFF7C4BF0B46A1
:10013000002201460220FFF7BEBF0A460023014607
:100140000320FFF7B8BF13460A4601460520FFF714
:10015000B2BF38B50546C8B1142004F027F92B68A2
:10016000044603606B684360AB688360EB68C36000
:100170002A6902615BB1E86807F04CFF013004F0C6
:1001800015F9E060E96807F00DFA00E038BD204697
:1001900038BD10B5044630B1C06808B104F00EF99E
:1001A000204604F00BF9002010BD10B5044628B11C
:1001B0000069FFF7FAFF2046FFF7EBFF002010BDB4
:1001C000002A38B503460C4606DCFFF7EEFF204652
:1001D000FFF7DFFF002038BD60B10121056915B1CF
:1001E00001312846FAE79142046105DD18461C6991
:1001F000FFF7CFFF204638BD184638BD38B50D464D
:100200000446B8B11C2004F0D1F80323B5FBF3F386
:10021000027903EB4303EB1A63F301020271027BE1
:10022000002363F30002046083600273036143618F
:10023000836138BD38BD0021FFF7E0BF38B5044603
:10024000D8B11C2004F0B2F8236805460360227977
:10025000037962F301030371A06800F027FBA86033
:10026000227B2B7B284662F300032B7323692B61CF
:1002700063696B610023AB6138BD38BD38B5044696
:10028000D8B11C2004F092F8236805460360227957
:10029000037962F301030371A06800F03CFBA860DE
:1002A000227B2B7B284662F300032B7323692B618F
:1002B00063696B610023AB6138BD38BD10B504467E
:1002C00028B1806800F04CFB204604F077F800204D
:1002D00010BD10B5044628B18069FFF7FAFF20462B
:1002E000FFF7ECFF002010BD002A38B503460C468E
:1002F00006DCFFF7EEFF2046FFF7E0FF002038BDE9
:1003000060B10121856915B101312846FAE79142B2
:10031000846105DD18469C69FFF7D0FF204638BD93
:10032000184638BD58B151B183680BB9816004E0FB
:100330001A690AB11346FBE7196100230B61704784
:1003400010B5044670B10379806803F00303012BF4
:1003500004D100F005FB0023A36010BDBDE81040F0
:1003600000F009BB10BD2DE9F0418846044600B1FC
:1003700021B92046BDE8F041FFF7BFBE8F681FB12D
:10038000BB680BB13E6826B92046BDE8F041FFF7D7
:10039000BBBE037B026803F0010396E80300B56867
:1003A00000F0AFF928B931462046BDE8F041FFF72B
:1003B000B8BE237903F00303012B13D1A06800F02A
:1003C000CFFA0023A3603DB3002000F036FA95E891
:1003D0000600064600F0F4FA31462046FFF7A2FF79
:1003E000AD68F0E7022B3BD1A16819B9084600F0CF
:1003F00020FAA060BB68012B0ED9D8F804307268CF
:10040000013B9A1A2968A06800F0DAFA04E0AD68A6
:100410002DBBA168002934D12046BDE8F041FFF78B
:100420007ABE2B68AF68A66893F80080002E4BD088
:10043000337B1A0717D4B8F12D0F16D003F003033E
:10044000012B10D1337B03F00303012B25D1B8F12D
:100450002D0F23D095E80600304600F0B1FAAD68C4
:10046000002DDED1D5E73669E0E7237B95E8030070
:1004700003F0010332680139013000F042F901282C
:10048000DFE70B7B03F00C03042B04D12046BDE80F
:10049000F041FFF752BE0969BCE710D20FB93146EF
:1004A000F4E797E80600304600F08AFA0028AED15B
:1004B0003A4631462046BDE8F041FFF744BE022BE4
:1004C000CDD100221146C7E729462046BDE8F041BC
:1004D000FFF72DBE00B14069704738B505460C20C6
:1004E0000C4603F063FF002205604460826038BD63
:1004F00008B508B103F062FF002008BD10B504463E
:1005000028B18068FFF7FAFF2046FFF7F1FF0020CF
:1005100010BD08B50C2003F049FF002202604260C4
:10052000826008BD10B5044628B10068FFF7E6FFF9
:10053000204603F043FF002010BD48B141B143689D
:100540000BB1996000E00160836841600133836012
:10055000704738B5054610200C4603F027FF0022EF
:10056000056044608260C26038BD10B5044628B1A1
:100570008068FFF7D7FF204603F020FF002010BD62
:1005800010B5044628B1C068FFF7FAFF2046FFF710
:10059000ECFF002010BD08B50C2003F007FF00227F
:1005A00002604260826008BD10B5044628B1006850
:1005B000FFF7E6FF204603F001FF002010BD48B121
:1005C00041B143680BB1D96000E0016083684160CC
:1005D0000133836070472DE9F84380460E46FFF7EC
:1005E00098FF074676B300252C462846294618F87A
:1005F000013001F101095C2B02D104BB01241AE096
:10060000222B03D1DCB985F0010514E08E4203D022
:10061000202B0DD15DB96CB9091A06D04044FFF703
:100620005CFF01463846FFF788FF484603E0012596
:10063000002400E02C464E454946D8D202E08E42C6
:10064000F6D1E9E73846BDE8F8832DE9F74F0746CC
:100650008A46FFF7A0FF8146BAF1000F46D0002579
:1006600028462C463B5D222B08D13B1913F8013C50
:100670005C2B00D1D4B985F0010517E03B2B0AD1E2
:100680003B195A783B2A11D17DB95CB113F8013C72
:100690005C2B07D10AE00D2B01D00A2B06D125B91E
:1006A000A84607E04FF0010804E00125A2451AD151
:1006B0004FF00008231A11D03E1819463046019316
:1006C000FFF747FF019B834619463046FFF783FF3C
:1006D0005946CBF808004846FFF771FFB8F1000F04
:1006E00000D00134601C0134A245BBD2484603B09F
:1006F000BDE8F08FA0F14103192B9CBF2030C0B2A0
:10070000704790422DE9F0470746884614469946BF
:1007100064D000285BD01046002A5AD007F07AFC3B
:100720008045024616D13D46B844A84556D0B9F199
:10073000010F03D12A7823789A4207E02878FFF73F
:10074000D9FF02462078FFF7D5FF824243D1013519
:100750000134EAE73FD800252E4608F1FF3146452F
:1007600029D2954227D2635D2F2B01D1013503E0B9
:100770002C2B04BF01350026B9F1010FB85D02D161
:10078000635D984206E0FFF7B5FF8246605DFFF7C4
:10079000B1FF824508D18E4223D163195B782C2B9F
:1007A0001FD02F2B1DD0E3B19542D8D2635D2C2BE7
:1007B000D5D00135F8E746450DD1605D2C280DD028
:1007C0002F280BD0B0FA80F04009BDE8F087BDE8D3
:1007D000F087BDE8F0870020BDE8F0870120BDE884
:1007E000F08701360135BAE72DE9F041154680461C
:1007F00014200E461F4603F0D9FD0321B5FBF1F18D
:10080000027B01EB4101691A61F3010267F3820285
:1008100013464660002666F3C303C0F80080866076
:1008200003730661BDE8F081002201231146FFF742
:10083000DBBF00230122FFF7D7BF01231A460021A7
:10084000FFF7D2BF38B5054668B3142003F0AEFDFC
:100850002B68002203606B6882604360297B037B06
:10086000044661F3010303732B7B017BC3F3800315
:1008700063F3820101732B7BC9B2C3F3C00363F33B
:10088000C30101730261A86870B107F0C3FB0130B6
:1008900003F08CFDA060A96806F084FE237B43F082
:1008A0000803237300E038BD204638BD38B5044640
:1008B00040B1FFF7C7FF05462069FFF7F7FF286142
:1008C000284638BD38BD10B5044618B3142003F0CF
:1008D0006DFD2368036063684360A3688360227BC7
:1008E000037B62F301030373237B027BC3F3800367
:1008F00063F382020273237BD2B2C3F3C00363F3B8
:10090000C302002302730361227BA36063F3C3026B
:10091000227310BD10BD38B5044640B1FFF7D3FFB8
:1009200005462069FFF7F7FF2861284638BD38BD26
:1009300010B5044648B1806818B103F03FFD0023AC
:10094000A360237B6FF3C303237310BD10B504466C
:1009500020B1FFF7EDFF204603F030FD002010BD71
:1009600010B5044628B10069FFF7FAFF2046FFF7EB
:10097000EDFF002010BD10B5044624B12046FFF75E
:10098000D7FF2469F9E710BD10B50C46114630B108
:1009900002682046FFF7B5FE431E5842584110BD7D
:1009A00038B183683BB94068044B002808BF18463B
:1009B0007047024870471846704700BF1DA70808D7
:1009C000F8B50D4616460446002838D029B9237BD1
:1009D000012043F008032373F8BD002AF7D0037BFE
:1009E0001B0701D5FFF7A4FF701C03F0DFFC0023F9
:1009F000A06029461A461846AF19B94212D011F81C
:100A0000015B5C2D01D15AB105E0222D03D112B951
:100A100083F00103F1E7A268155401300022ECE7EE
:100A20000122EAE72BB1A06803F0C8FC0020A06017
:100A3000F8BDB042CBD8A26813540130F9E7F8BD35
:100A400010B50446006808B103F0B8FC204610BD9C
:100A500008B504F01DFEBDE808404FF4165104F03F
:100A6000FDBD0000014800F0FBBE00BF48010020B2
:100A700010B5094C204600F06BFE204600F06FFEDA
:100A800047F2305004F0B0F9204600F05AFE2046FC
:100A9000BDE8104000F06ABE4801002038B5124C95
:100AA00003F008FAFFF7D4FF00232360A380A371AB
:100AB00023814FF6FF730D4D6381032003F0AAFBE2
:100AC00020460B4C2A460B4905F02AFA4FF07C537E
:100AD00002220121204600F0BBFD2A462046BDE847
:100AE0003840054905F01CBA78010020400100207B
:100AF00048010020410A08082917080810B50446D3
:100B0000084621604FF4165104F026FF204610BD20
:100B100010B50446006803F008FF20680249BDE8EC
:100B2000104003F002BF00BF88A3080870B5044658
:100B30000025FFF7EDFF2571FA2004F055F9E61CBA
:100B4000206803681B69984738B12068013503683D
:100B50005B69984706F8010FF2E72544287163792D
:100B6000542B0AD104F1090006F0B5FB237A80B2B8
:100B7000012B06D100F57A7002E0A01D06F0ABFB58
:100B800080B270BD0149FFF7D1BF00BF41AF080877
:100B900003F090B903F08EB903F08CB903F08AB971
:100BA0007FB5024613790846956833B13DB90C49C3
:100BB00004B0BDE8704003F0B8BE0A4B00E00A4B39
:100BC000167B0A4C0A49527B012E08BF214602922D
:100BD00001910095074A002103F0B1FF04B070BDF8
:100BE000D9A308081DA70808C8A30808D1A30808A6
:100BF000D5A30808EFA3080803F05CB903681847F9
:100C0000012A02D0022A02D004E0016002E00B684F
:100C100000B103600020704710B5044603F03EF9B0
:100C2000204610BD10B58368044613B10322014667
:100C30009847204610BD00007FB53B22428047F216
:100C40002F5282804FF6FF72C280254A0023037024
:100C50000372137053709370D3701371037804464A
:100C6000002B3AD101231F4E1F4D03701F4B6946C5
:100C7000132000930396029504F084FD6846FFF765
:100C8000D1FF1B4B69461A2000930396029504F08E
:100C900079FD6846FFF7C6FF164B69462120009391
:100CA0000396029504F06EFD6846FFF7BBFF124BFA
:100CB0006946242000930396029504F063FD68467C
:100CC000FFF7B0FF0D4B694626200093039602956F
:100CD00004F058FD6846FFF7A5FF204604B070BD3C
:100CE00038030020FD0B0808010C0808553D0808D2
:100CF0007D3D0808A53D0808CD3D0808F53D0808DC
:100D000070B503F0D7F80C4C0C4B0D4E18600D4D20
:100D10002046FFF791FF20460B4C3246294605F04E
:100D2000FFF82046FFF788FF324629462046BDE8F7
:100D3000704005F0F5B800BF980100209401002034
:100D400040010020190C08088401002013B504207C
:100D50000C46FFF7A4F9014608B10D4B036020468D
:100D600000F00BFD04F094FC0A4903F0DEFD0A4B91
:100D70000A4A1B6812683C219A1A094B4A43684682
:100D80001B68012103F0A4FC012002B010BD00BFCC
:100D90000CA60808F2A40808F8010020C8010020E9
:100DA000AC01002013B56B460C4A0C461068516824
:100DB00003C30A230C226946204600F0EFFC0028FA
:100DC000F7D06946204600F0D1FF04F061FC0449E9
:100DD00003F0ABFD012002B010BD00BF11A5080853
:100DE00002A5080810B50446024B036000F0B8F8ED
:100DF000204610BD88A5080810B50446FFF7F2FF8D
:100E00002046042105F09AF8204610BD7FB50E4615
:100E100004F03EFC284903F088FD03F0D3F8274B8B
:100E20001D46186003F0A2FA08B903F097FA03F020
:100E30009DFA044640B304F02BFC214903F08CFDDD
:100E4000304600F07CFC1F4B02461B781E498DF893
:100E5000003002A83C2304F0D9F9039C7CB16368FC
:100E6000013B63605BB9236820469B689847A36891
:100E7000013BA3601BB923682046DB6898474FF409
:100E80007A6003F0B1FF13E003F09CF82B68C01AFE
:100E9000B0F57A6F05D304F0FBFB0C4903F05CFD61
:100EA000012404F0F5FB0A4903F056FD002CB9D0EB
:100EB000012004B070BD00BFACA508088802002066
:100EC00019A50808A801002029A5080833A50808C5
:100ED00050A508087FB50C4604F0DAFB174B054611
:100EE0001E6803F070FF334602461549684603F05A
:100EF00017FF0099284603F018FD684603F028FC08
:100F000004F0C6FB0F4903F010FD04F0C1FB0546D9
:100F1000204600F03CFC041E05DA2D21284603F093
:100F200008FD614200E021460A22284603F01EFD2A
:100F3000284603F005FD012004B070BD48000020E4
:100F40005C03002073A50808034B00221A60034BC2
:100F500001221A7002F0AEBFAC010020A8010020EF
:100F60007047000008B504F093FB024903F0DDFC74
:100F7000002008BDA4A5080808B504F089FB0249B3
:100F800003F0D3FC002008BDB5A5080808B504F09F
:100F90007FFB024903F0C9FC002008BDC4A5080876
:100FA00008B504F075FB024903F0BFFC002008BD42
:100FB000DAA5080808B504F06BFB024903F0B5FC9C
:100FC000002008BDE7A5080802F074BF10B5042092
:100FD0000C46FFF764F8014608B1064B0360204653
:100FE00000F0CBFB04F054FB034903F09EFC01200E
:100FF00010BD00BF88A50808F7A5080810B504466D
:10100000024B0360FFF7ACFF204610BD0CA608089A
:1010100010B50446FFF7F2FF2046042104F08EFFCE
:10102000204610BD02F046BF7047037C024603F025
:10103000080303F0FF002BB1D36A506A181A48BFA7
:101040006FF000407047704710B50446342104F03B
:1010500075FF204610BD103001F0A8BC103001F023
:10106000BDBB07B501220DF10701103001F003FBF4
:1010700001280CBF9DF807004FF0FF3003B05DF86A
:1010800004FB103001F01EBD07B502AB03F8011DD3
:1010900001221946103001F015FD03B05DF804FB84
:1010A00010B501230374836804460BB1C06806E0E1
:1010B000006828B183680BB904F053FFC3689847F0
:1010C000012363740020BDE8104002F0D3BF00008C
:1010D00030B589B001460122684602F03FFD174A4B
:1010E000694602A802F08CFD02A904A802F0CEFB1A
:1010F00004A803F0FAFB054604A803F029FB2846E0
:1011000006F064F805F032FE0D4C206004F0C0FAE1
:101110000C4903F00AFC04F0BBFA0222216803F038
:10112000FFFC04F0B5FA084903F016FC02A802F02F
:1011300089FB684602F01DFD09B030BD52AD0808BC
:10114000FC01002052A6080867A6080810B588B060
:1011500001220146684602F023FA04F099FA1D497B
:1011600003F0E3FB04F094FA0446694604A802F095
:101170004FFB0499204603F0EFFB04A803F0E8FAC4
:10118000684602F028FAF8B104F082FA124903F036
:10119000CCFB04F07DFA0446694602A802F030FA5E
:1011A000012202A904A802F0C3FD0499204603F01D
:1011B000BCFB04A803F0CCFA02A802F0DAFC04F0AD
:1011C00067FA064903F0C8FB684602F0FBF908B06D
:1011D00010BD00BF6EA6080876A6080885A60808F8
:1011E00030B556498FB0564803F026FB554C04F0F5
:1011F0004FFA03681B699847002840F39B8004F06E
:1012000047FA03685B699847C5B229464C4803F022
:101210004EFB0D2D40F08E80494906A803F001FBDE
:101220002378002B38D1012347494848237002F026
:1012300091FC474B474A4549684602F085FC464ABF
:1012400069460AA802F0C8FC0AA802F0FBFA434B60
:10125000434A3E4902A802F077FC3F4A02A90AA885
:1012600002F0BAFC0AA802F0EDFA3E4B3E4A3749BA
:1012700004A802F069FC384A04A90AA802F0ACFCF0
:101280000AA802F0DFFA04A802F073FC02A802F038
:1012900070FC684602F06DFC2C4806A902F004FCC4
:1012A0002A4802F005FC00283DD0284902A802F097
:1012B00004FC04F0EDF92D4903F037FB04F0E8F9E4
:1012C000054602A90AA802F0A3FA0A99284603F0E3
:1012D00043FB0AA803F03CFA02A802F07CF9F8B13B
:1012E00004F0D6F9224903F020FB04F0D1F90546B9
:1012F00002A904A802F084F9012204A90AA802F0B4
:1013000017FD0A99284603F010FB0AA803F020FAFB
:1013100004A802F02EFC04F0BBF9164903F01CFBF4
:1013200002A802F04FF906A803F012FA0349044894
:1013300003F082FA0A2002F035FE58E750A60808AA
:10134000CC0100208C0200204D110808DC01002097
:10135000ED13080888A6080852AD08087913080894
:101360008EA60808D110080896A608086EA60808D8
:1013700076A6080885A6080830B589B0014601227E
:10138000684602F0EBFB154A694602A802F038FCF9
:1013900002A904A802F07AFA04A803F0A1FA05460B
:1013A0000F4C04A803F0D4F9256004F071F90D493D
:1013B00003F0BBFA04F06CF90A22216803F0D6FAB4
:1013C00004F066F9084903F0C7FA02A802F03AFAF5
:1013D000684602F0CEFB09B030BD00BF52AD080830
:1013E000F80100209CA6080867A6080830B589B057
:1013F00001460122684602F0B1FB154A694602A87F
:1014000002F0FEFB02A904A802F040FA04A803F0CF
:1014100067FA05460F4C04A803F09AF9256004F01A
:1014200037F90D4903F081FA04F032F90A222168F4
:1014300003F09CFA04F02CF9084903F08DFA02A895
:1014400002F000FA684602F094FB09B030BD00BF1C
:1014500052AD0808C8010020AFA6080867A6080812
:1014600038B5044670B1056835B12846FFF7DAFB98
:101470001021284604F062FD2046BDE838401421C2
:1014800004F05CBD38BD00002DE9FF4106460F4663
:1014900014202B491546984604F054FD044630B1FB
:1014A00000230374036043608360C360437434604B
:1014B000002C3AD02249102004F044FD0346B0B17C
:1014C0000022826002AA95E8030082E8030093E804
:1014D000030085E8030092E8030083E803009968AD
:1014E000AA68A9609A60EA68D968E960DA60256844
:1014F000236035B12846FFF795FB1021284604F0FC
:101500001DFD3068036883B10A9B42468DE80900DF
:1015100039460C4B043002F06DFD30B933681B7C4A
:101520004BB9012002F03EFDF8E73068002333603C
:1015300008B1FFF795FF304604B0BDE8F08100BF69
:1015400048AA0808A110080810B503680446B3B1FA
:10155000586802F057FD00B110BD23685A7C12B9DB
:10156000586802F057FD2368586802F05BFD206858
:101570000023236018B1BDE81040FFF771BF10BD14
:1015800010B50446142104F0D9FC204610BDB0F972
:101590000A3013B100EB031070471846704710B5BE
:1015A0004B688A6810339A4201D2002010BDA2F124
:1015B00010038B60002BF8D0416819B15C1A24111C
:1015C0004C8100E003600021436022F8061C02F811
:1015D000081C42F8041C184610BD000010B50C4C45
:1015E0002368DB0711D42046FEF75DFD68B1094A88
:1015F0000321094B094804F095F92046FEF758FDF0
:10160000074A0849054804F08BFC044810BD00BF98
:10161000C4010020040200208E020020B00100203E
:10162000400100202910080810B5FFF7D7FF074B2D
:10163000044653B104F093F938B1236820461B697E
:101640009847002801DDAFF3008010BD00000000C6
:101650002DE9F8432D4E894631681F4611F00104EB
:101660004FF000030546904683620AD13046FEF7EC
:101670001AFD30B10120214602F0E4FD3046FEF7AC
:1016800017FD234B00221A60224B0420C3F8009060
:10169000214BC3F80080214B1F60FEF700FD08B10D
:1016A0001F4B0360686204F05DF906461820FEF7E0
:1016B000F6FC044610B13146FFF720FAEC6140F227
:1016C0008440FEF7ECFC0446D0B1642280F860242C
:1016D000144A0023C0F870240122C37180F83C34FE
:1016E00080F83D3480F86A3480F87424C0F8783487
:1016F00080F87C3480F87D3404F094FBC4F86C04EA
:101700000023AC616B602846BDE8F883000200202E
:1017100088020020C8010020F8010020FC01002000
:1017200088A50808C4A3080810B504462830FFF7A8
:101730000BFFA06A08B1FFF793FE204610BD40687A
:1017400070470146406A10B10368DB68184770476C
:101750000146406A10B103689B681847704701460C
:10176000406A10B103689B69184770470146406A98
:1017700010B103681B691847704738B50446406AC2
:101780000D4610B103685B689847656238BD10B5B7
:101790000446C069FFF7F6F9606010BDF0B5054674
:1017A00085B01846174604F02AFB044650B903F0EA
:1017B0006FFF264903F0C0F84FF47A7003F014FB72
:1017C000204640E0AC69224B224A04F58C65009328
:1017D00000238DF80430029201268DF80D303A4630
:1017E0006B4604F26C4128468DF80C6001F0B4FCA5
:1017F000F8B1256004F23C45284601F00DF9314668
:10180000204601F052FB014628B12146284600F04F
:101810001AFF70B105E0204601F047FB0028F4D123
:1018200007E094F83C3413F0700F02D00A4B1D60AF
:1018300009E003F02DFF094903F07EF84FF47A70B8
:1018400003F0D2FA002005B0F0BD00BFC0A6080822
:10185000C4A3080880F0FA0214030020E4A60808D4
:1018600010B50446114B88B00493114B04AA07939A
:10187000104B114906934FF44063009303A80323D0
:10188000FFF702FE039BA06A00220392A36208B145
:10189000FFF7E6FD03A8FFF757FE039808B1FFF72F
:1018A000DFFD04A8FFF7BEF908B010BDE11108087C
:1018B000FD0B0808010C0808FFA60808F8B5037A14
:1018C000174613F07F0205460E4606D123F07F032C
:1018D00043F020030372026042602B7A03F020037E
:1018E00003F0FF00EBB1CEB12C6864B1E168B14206
:1018F00016D019B1304605F04BFE88B12046FFF7EF
:1019000046FE0446F1E739462846FFF748FE38B15F
:10191000037AC66003F07F030372F8BD3046F8BD5A
:101920002046F8BD00680368DB68184738B50446F0
:1019300008460D4606F06EFB294602462046FFF794
:10194000F1FF63681844606038BD10B50446006854
:1019500003689B68984763681844606010BD000086
:1019600070B50D4622210446FFF7EFFF013D15F843
:10197000011F71B10B4B13F8026C7EB1023313F8E7
:10198000032C8A42F7D15C212046FFF7DEFF314667
:1019900004E022212046FFF7D8FF70BD2046FFF764
:1019A000D4FFE4E711A708082DE9F0470D46062308
:1019B000064683725449284605F0DEFB00B3002733
:1019C0003C46DFF84891DFF848A14FF0200807EBCC
:1019D00009032946586905F0C5FB40B107EB0A0326
:1019E0002846596905F016FA0546444424B2043FD6
:1019F00017F1180F4FEA6808E9D14FF0FF3703E0FD
:101A000004464FF0200805270021284605F0BEFBBC
:101A100010B3284604F054FD39A3D3E9002305F0A0
:101A20001FF8C8B1DFF8EC90DFF8E0A07B1C13D002
:101A3000294659F8270005F0A9FB40B128465AF875
:101A4000271005F0E7F90546C8EB040424B2013F6E
:101A50004FEA68087FB2E9E73481284605F0DCFBED
:101A600007460346DFF8B08030600A21092B07D90A
:101A7000B27AB8FBF1F8013AB272B3FBF1F3F5E7D1
:101A8000384605F06FF90146284605F0B9F80546D5
:101A9000404605F067F90146284605F0BBF9814646
:101AA00005F0BAFB054605F05DF90146484605F02C
:101AB000A7F8014605F0A6F805F0AEFB28448045DE
:101AC00001D970600AE000230137736037602CB1E0
:101AD000092F81BF01340123348133600A217368E7
:101AE000B3FBF1F201FB12333BB996F90A30002B3C
:101AF00003DD013B7260B372F1E73046BDE8F08769
:101B0000F168E388B5F8E43E8096184B3000002079
:101B1000180000200000002040420F0010B50446CD
:101B2000521AFFF7FFFE63681844606010BD30B5BD
:101B300087B00B460DF116010A460A25B3FBF5F4F2
:101B400005FB1433303301F8013D2346002CF5D159
:101B5000FFF7E4FF07B030BDF0B504468BB0084690
:101B60000D4605F01DFB20B13D492046FFF7DEFE86
:101B700073E025F000463B49304605F011FB28B9DB
:101B80003849304605F0EEFA0028EDD0002128460D
:101B900005F0DEFA28B12D212046FFF7D6FE05F12B
:101BA0000045294601A8FFF7FFFE01992046FFF7EF
:101BB000BEFF9DF90E10C9B108AD08462A46029B2A
:101BC0000A27013840B2461C08D0B3FBF7F607FBE2
:101BD0001633303305F8013D3346F2E7C9B2511AE6
:101BE0002E2301F8013D2046FFF798FFBDF90C3088
:101BF000002B17DA1C492046FFF798FE0DF126014D
:101C00000A46BDF90C300A255B4293FBF5F005FB53
:101C10001033303301F8013D03460028F5D120464A
:101C2000FFF77CFFBDF90C30002B16DD6521204647
:101C3000FFF78BFE0DF126010A46BDF90C300A258F
:101C400093FBF5F005FB1033303301F8013D03B28F
:101C5000002BF5D12046FFF761FF0BB0F0BD00BFB0
:101C60001EA70808FFFF7F7F23A7080838B5037A5F
:101C7000054603F07F03062B0C4666D008D8022BDE
:101C800069D3032B53D901682046FFF769FE38BD9D
:101C90000C2B15D00AD8082B52D00A2B5BD1056823
:101CA0002D212046FFF751FE29464AE0202B1DD06A
:101CB000402B50D15B212046FFF747FE2D6811E0F5
:101CC00001682046FFF748FF38BD28462146FFF748
:101CD000CDFF2846FFF75BFC054628B12C212046A6
:101CE000FFF733FE002DF0D15D211CE07B21204663
:101CF000FFF72BFE2D68ADB1E9682046FFF730FEF7
:101D00003A212046FFF721FE28462146FFF7AEFF85
:101D10002846FFF73CFC054620B12C212046FFF762
:101D200014FEE8E77D212046FFF70FFE38BD90E85E
:101D300006002046FFF7F6FD63681844606038BD72
:101D400001682046FFF7F3FE38BD03680BB1044974
:101D500002E0044900E004492046FFF7E7FD38BDF2
:101D600026A708082BA708081EA708082DE9F04198
:101D70000023A2B05D4C05468DF830308DF831302F
:101D80000993C8204FF47A730E460A93089402F020
:101D90000DFB18B100F1C8031A4601E003460246E4
:101DA00003939DF81C3001900290049223F07F036E
:101DB00001AA4F4905A88DF81C30FFF77FFD38B107
:101DC000037A23F07F0343F004030372494B03605B
:101DD00002F0F9FF484B0246484915A802F0A0FF5F
:101DE00001AA474905A8FFF769FD0746D0B1159933
:101DF000002973D0179ADDF808800132039B08EBA5
:101E0000020098426AD80290B8F1000F66D04046AE
:101E100005F083FB3B7AC7F8008023F07F0343F093
:101E200005033B7215A802F093FC01AA354905A8E9
:101E3000FFF744FDD8B1037A01A923F07F0343F0F3
:101E400040030372002303604360FFF7A8FB70B1F7
:101E50006A68037A002A23F07F03ADBF43F00803CA
:101E600043F00A0352420372B8BF03720260A969C9
:101E70004FF47A7300271793159444F202233246E5
:101E800001F23C4119A80CAD19AC8DF864708DF8C5
:101E90006570169700F0C7FD0FCC0FC50FCC0FC5AE
:101EA000236801202B60169B22AC0993179B0A9391
:101EB000189B0B9302F098FF14F8583D4BB108ABF8
:101EC00005A815A915931697FFF7D0FE204600F038
:101ED000A3FD019838B102F071FA04E03B7A23F0D7
:101EE0007F033B729EE722B0BDE8F08130A6080870
:101EF00031A708082FA5080838A708085C030020A8
:101F000020A9080824A5080838B50D4C0D4D01F08E
:101F1000D1FF0D49204602F062FC2A460B492046BB
:101F20000B4C03F0FDFF0A221146204601F03CFD58
:101F30002A462046BDE83840064903F0F1BF00BFFD
:101F4000CC010020400100201DA7080851470808C7
:101F5000DC010020BD39080801F0ACBF01F0AABFC8
:101F600010B50446243000F08DFE28B104F50C7045
:101F7000BDE8104000F086BE10BD411E00F10A020F
:101F80000020430843EAC01011F8013F18448A4278
:101F900000F0FF00F5D170472DE9F0470378441CAD
:101FA000202B01D12046F9E70546704F88602C1A96
:101FB0002E4615F8013B0BB32F2B01D1031917E067
:101FC0005C2B02D10020BDE8F087A3F12204E4B22B
:101FD0001D2C03D827FA04F4E407F3D403F0BF045C
:101FE0003C2CEFD0203B5E2BE1D9EBE72F2D05D128
:101FF0001E4613F8015B202DF8D1F9E7166003198E
:102000009842C0EB030809D013F8012D2E2AF7D00F
:10201000202AF5D0B8F1FF0FD4DC01E04FF0000822
:10202000C1F8048001F10C0301F11702202403F828
:10203000014F9342FBD103461A1A13F8014B2E2C81
:10204000FAD0202CF8D0B2FA82F408F1FF366409F5
:10205000731C07D100274FF0070E3D46BA464FF0DC
:10206000080909E0835D2E2BF4D0013EF0E7835C84
:10207000202B04D1002401324245F8DB4BE02E2B0B
:1020800002D1B242F6D103E0222B17D07C2B15D01F
:10209000A3F12A0CBCF1050F01D82D2B0ED1A3F111
:1020A0003A0CBCF1050F09D9A3F15B0CBCF1020F8E
:1020B00004D9A3F1210CBCF15D0F02D9B2420ED1BB
:1020C00049E0B24247D0754521D8A3F1610CBCF17B
:1020D000190F08D8203BDBB249EA07070AE075452B
:1020E00015D800245F23A3F1410CBCF1190F98BF50
:1020F00049EA0A0A05F1010C5FFA8CFC0D44BCF1B7
:10210000060F6B7301D881F80CC06546B3E7BEF1CA
:102110000A0F17D100244B7B202B3FF453AF3CB167
:102120001AEA070F18BF02270F700120BDE8F087D9
:102130000B7B0120087019447E234B7331238B7372
:10214000BDE8F087B242E5DC32464FF00A0E0825C2
:102150004FF010098EE7BEF10A0FDBD032464FF088
:102160000A0E08254FF0100985E700BF0101003174
:102170002DE9F84306460D4691F80C9002247E277F
:1021800001F10D086968AA6863189BB21144914275
:1021900006D012F8010B03EB431343409BB2F6E762
:1021A000B9F1030F28BF4FF0030909F10402D2B2BD
:1021B00003F00F01A818013A0929D2B294BF3031B7
:1021C0003731914541734FEA1313F1D305EB0903FE
:1021D0005F730021304600F031FB0121304600F0F2
:1021E00010FB014628B97078B0FA80F04009BDE8CC
:1021F000F88303784BB1C37A1B07EED40B22404619
:1022000005F07CF90028E8D102E00120BDE8F88360
:102210000134A4B2642CB5D1BDE8F8832DE9F04FA8
:102220009B460B7889B013F0700F05900E469146CF
:1022300001D10020A0E1059B1B78002BF9D1536848
:10224000029313789B0700F08D81029B0D270C33BE
:10225000B3FBF7F70137FFB24FF00008002130461B
:1022600000F0ECFA44464346454609F10D02CDF82C
:102270000C80CDF8108006927269012130460793D8
:10228000C2F34F1A00F0BDFA079B20B97378002BF8
:1022900000F09080CDE70278E52A00D042B9002C0A
:1022A00008BFD046BC423CBF0134E4B222B981E051
:1022B000BC4238BF002403E0E52A01D10025DBE75A
:1022C0002E2AFBD0C17A0F2952D13DB95106D3D560
:1022D000437B02F01F0503932B4607E0013BDBB273
:1022E0009A42EBD1427B03999142E7D15A1E4FF0BB
:1022F0000D0C0CFB02FC029A6245DFD94FF0000E78
:10230000BEF1040F5FFA8EF204D800EB4E02B2F871
:1023100001200CE00A2A95BF0EF1FF320EF10102F6
:1023200000EB420200EB420294BFD28892880299ED
:10233000614503D1002A18BF00259DE7FF2ABDD8BB
:10234000D2B2A2F141011929D9F8081098BF203260
:1023500011F80C100CF1010AA1F1410C98BFD2B296
:10236000BCF1190F9CBF2031C9B29142A6D1FBE04C
:102370000907A3D44DB1012B7FF45BAFFFF7FDFD3F
:10238000039B83427FF455AF0FE00B22069907931E
:1023900005F0B4F8079B00287FF46EAF99F8002091
:1023A000D20702D50122049266E71BF4006F00F009
:1023B000D1803EE71BF4007F3FF43BAF0BF00303FB
:1023C000013B012B3FF635AF002C08BFD046BC4285
:1023D00002D3049BCBB91FE00021304600F011FA74
:1023E00010B973785BB124E70134E4B2EFE7B36866
:1023F0001B79012BEDD81034E4B2A742E9D930465D
:1024000000F0D2F80028F2D113E749463046FFF732
:10241000AFFE00283FF40DAF4FEA4811304600F000
:102420000DFA00283FF405AF7D1EEDB22C464FF0AB
:10243000000A4FF00F0841E00021304600F0E1F9BA
:10244000074600283FF4F5AEB268AC4292F824305B
:1024500043F0010382F8243014BF224644F04002C6
:10246000027080F80B8080F80CA009F10D00039237
:10247000FFF783FD039A787387F81AA087F81BA0EB
:1024800002F01F020D23013AD9F808E05A43002355
:102490000299914215D91EF80210042B5FFA83FCB1
:1024A00003F1010013D807EB4303A3F801100D2833
:1024B00002F101020346EBD1013CE4B2002CBBD196
:1024C0000EE014BF4FF0FF31002189B2E5E7BCF107
:1024D0000A0F94BF07EB430307EB40039980E6E73D
:1024E000736921463046C3F34F1A00F08AF9074654
:1024F00000283FF49EAE2022214605F019F84B46F5
:1025000053F80D2F3A605A687A601A893A819B7A9B
:10251000BB7299F8003003F018033B73184B1B682B
:102520002BB107F10E0107F11000984706E02123B7
:102530003B7428237B740823BC73FB733B8A7B8228
:102540003B83FB89FB82B26892F8243043F001039D
:1025500082F8243000955B4652463146059800F0DB
:10256000B6F909E0012777E60EF1010EBEF10D0F75
:102570003FF482AED446C3E609B0BDE8F08F00BF99
:102580001803002001F096BC01F094BC01F092BC4D
:1025900001F090BC837800F1100243F004038370D3
:1025A0000169806800F024BC2DE9F04103780446FD
:1025B00003F0200303F0FF050BB100262EE0426973
:1025C000184B9A42F9D8FFF7E5FF06460028F4D0E9
:1025D0002169A06800F0A1FB0746A06805223946E2
:1025E000243000F076FB80460028E6D029464FF4E0
:1025F000007204F09DFF0125A3681A79AA4209D947
:102600004246E919186800F0E5FE0028D5D00135EA
:10261000EDB2F1E7636903EB422363613046BDE845
:10262000F08100BFFFFD1F0010B5044680680A4618
:102630002430A16900F04DFB20B1A38803F00F0303
:1026400000EB431010BD70B5047805460E4684B902
:102650002422214604F06CFFAE60F379102B03D0E6
:10266000202B06D1402300E0202301202B70A870EE
:1026700070BD002070BD2DE9F74F037804468946F0
:1026800015464BB18278D10706D50CE05A46216930
:1026900000F049FB00283DDA63784FF0FF3043F04B
:1026A0000203637097E01A0703D5E36962699B1A16
:1026B00007E09A0608D5A3681A896369C3EB421339
:1026C0009BB29D4228BF1D462E464FF0000804F1E4
:1026D000100B002E35D02278636912F0200FC3F35F
:1026E000080AA0684FEA532102D0036A19441DE08A
:1026F00090F8058001EA0808BAF1000F10D1B8F18E
:10270000000F0DD1002BC1D153064CBF036A236AC1
:10271000236105E004D1237813F0700F11D1BBE7DA
:102720002169A06800F0F9FA08EB0001A068BAF18D
:10273000000F35D1B6F5007F32D3C36A994202D17A
:102740002EE0A81B47E0B6F5806F1BD322784FEA36
:10275000562A970606D40279C8EB0202D2B29245F5
:1027600028BF924699424FEA4A2707D2A0685346AB
:102770004A46006800F0ECFD60B98DE75344994289
:1027800021D3F3E74A46006800F09AFD002883D081
:102790004FF400776369B9443B446361F61B98E7E3
:1027A0000022243000F095FA00283FF475AFCAF5F6
:1027B0000077B74228BF374600EB0A013A46484641
:1027C00004F0ABFEE6E72430019100F05BFA0199DA
:1027D0000028CBD160E703B0BDE8F08F73B50122CC
:1027E0000DF10701044646690569FFF744FF01281A
:1027F00009BF9DF807004FF0FF306661256102B008
:1028000070BD37B543690446C3F3431505B169B9D3
:1028100001220DF107012046FFF72DFF40B20128EC
:1028200001D0002008E063691F3300E02033A06876
:102830006361303000EB451003B030BD2DE9F0414D
:102840000E46017804460769002939D04569B5422A
:102850003AD00EB9066131E00B0703D5C3699E4239
:102860002ED807E0880605D5A3681B89B6EB431F61
:1028700026D823E0D4F808E06A1E9EF8063003F15B
:102880000900731EC240C3409A4200D84DB94A069F
:102890004CBFDEF82020226A22611D4604F1100898
:1028A0000AE09B1AF9E742462169A06800F03BFA6A
:1028B000002805F1FF3503DD002DF4D1666103E04A
:1028C00027610020BDE8F0810120BDE8F081F8B566
:1028D0000F4604461546002124221E4604F028FE19
:1028E000B868A580A0603B6A05F00F0200F13001D6
:1028F0005201E3601144CB7A1D074CD4831893F83E
:102900003B3003F017032370C97A11F0180F04BF8E
:1029100043F0080323709DF81830E37006F00303BA
:10292000012B09D0022B05D0002B34D1710532D4F4
:10293000012302E0032300E00223A370A1788B07A8
:1029400003D5237813F0110F25D14BB216F4005F95
:1029500006F0080114BF6FF07F07002719433943C1
:10296000A170C36A0244A361B2F84410B2F84A30BD
:10297000750543EA014104D581B100F074FA68B9E4
:1029800009E02162D36CE36173040CD5E169204650
:10299000FFF754FF38B900202070F8BDA37843F04A
:1029A0000403A370F0E70120F8BD000038B50378F8
:1029B00004460BB9012038BD83785A0723D501217D
:1029C000FFF732FE054628B96378002043F0010383
:1029D000637038BD0378E52BF6D023781B0744BF1E
:1029E000E369C361238C4383638C8382094B1B6837
:1029F0002BB100F11601183098472B8B6B82A3780E
:102A000023F00403A370A068FFF7AAFA0028DBD024
:102A1000D0E700BF1803002010B50446FFF7C6FF3B
:102A20000023237010BDF0B51F4693B000238DF82E
:102A300024308DF82530037806460C4601920BB100
:102A400000203DE00B7813F0700FF9D013782F2B96
:102A500012D1019B1A782F2A02D101330193F8E792
:102A6000A1681AB93046FFF7EEFD29E009A8FFF783
:102A7000EAFD0028E4D009AC01AA03A90198FFF7F8
:102A80008BFA0028DCD0019B1B789BB1002303AAA2
:102A900021463046FFF7C2FB0028D1D0354609ACAD
:102AA0000FCD0FC40FCD0FC42B6830462360FFF746
:102AB000B3FFE0E73B4603AA21463046FFF7AEFBF3
:102AC00013B0F0BD2DE9F047037889461907044695
:102AD000904608D583789A0705D51B070BD5E16981
:102AE000FFF7ACFE38B963784FF0FF3043F00103D5
:102AF0006370BDE8F0876369DB439845F3D84646C9
:102B00004FF0000A6369002E7FD0A068C3F3080766
:102B1000427912EA53251CD1DFB9216971B104F160
:102B2000100200F000F90028DDDB40F08D80204627
:102B3000FFF730FD002840F08780D4E7236A3BB9D7
:102B40002046FFF727FD0028CDD02369236200E04F
:102B500023612169A06800F0E0F8291817B9B6F5DB
:102B6000007F21D2C7F50075B54228BF354637B979
:102B70006369E269934234BF0122052200E0012229
:102B8000A068243000F0A5F80028ACD038442A46CC
:102B900049462F4404F0C1FCB7F5007F2FD1A0684F
:102BA000243000F06FF816E0B6F5806FA06814D3FB
:102BB0000279730A521BD2B2934228BF1346C26AEB
:102BC0005D02914202D31A44914237D3A7684A4624
:102BD000386800F071FC90B985E7C36A4A469942AB
:102BE00002BF4FF0FF3380F824A0C362A3681868C7
:102BF00000F0F0FB00283FF476AF4FF400756369F6
:102C0000A9442B446361761B7CE7E269934201D9B6
:102C1000E36102E00F4B1B681BB1A37843F0040390
:102C2000A37094F90230002B02DB4046BDE8F08728
:102C30002046FFF7BBFE0028F7D154E74FF0FF32E4
:102C400080F824A0C262C1E72169A06800F065F89D
:102C5000014684E71803002001F02CB970B5054641
:102C60000C46084649B105F0D5F92B6802462146C5
:102C70002846BDE87040DB68184770BD01F01AB9FE
:102C800001F018B970B503780446DA071ED5436819
:102C900000F10C0681683246186800F09BFB05467F
:102CA00008B9002513E023789B0704D4237823F088
:102CB000010323700BE06368A06819693246014480
:102CC000186800F087FB0028F0D1EAE701252846C4
:102CD00070BD70B5836804468B420E46154614D00D
:102CE000FFF7D0FF08B9002070BD6B0703D50023A4
:102CF0002370A66009E0636804F10C02314618688D
:102D000000F0DEFA0028F2D1EDE72046237805F046
:102D100003051D4300F80C5B70BD837902394069DF
:102D2000994008447047012970B505460C4616467F
:102D300002D84FF0FF3070BDC3699942F9D8C3790A
:102D4000202B10D18169022201EBD41100F50C7007
:102D5000FFF7BFFF0028ECD004F07F0450F82430C8
:102D600023F070430FE0102BE3D18369C1F30721F7
:102D70000222194400F50C70FFF7ABFF0028D8D0F1
:102D8000E4B230F81430EA6993429ABF336001200C
:102D9000002070BD012938B50C46154601D8002029
:102DA00038BDC3699942FAD8C379202B0ED1816905
:102DB000032201EBD41100F50C70FFF78AFF002805
:102DC000EDD004F07F0440F824500FE0102BE6D142
:102DD0008369C1F307210322194400F50C70FFF742
:102DE00078FF0028DBD0E4B220F81450012038BD71
:102DF0002DE9F341C46805468C420E46904607D241
:102E00000C460027EB6901349C4203D9CFB9EC682A
:102E10000127F7E7A64214D001AA21462846FFF76A
:102E200082FF00280DDBEDD0019B002BEAD107B11A
:102E3000EC606FF0704221462846FFF7ABFF074673
:102E400008B900270BE016B9C8F8004007E0224691
:102E500031462846FFF79EFF0028F5D1F1E73846B6
:102E600002B0BDE8F081F7B505460C4602AE00237E
:102E700046F8043D324621462846FFF754FF071E18
:102E800001DA00200FE0002221462846FFF782FFEA
:102E90000028F6D0EB689C429CBF04F1FF34EC6044
:102EA000019C002FE6D103B0F0BD70B504460123AC
:102EB0000022C3604FF0FF33C2710D46A06280F85C
:102EC0002420C362C4F8340280F83022C0F83832BB
:102ED000A1B104295DD811462430FFF7FAFE00287D
:102EE00057D000EB051393F8AE315B0651D11B357B
:102EF00000EB0515D5F80650002D4AD000222946D2
:102F000004F12400FFF7E5FE002842D0B0F80B30B2
:102F1000B3F5007F3DD1037C022B3AD1C389002B4E
:102F200037D0417B09264B1E63710023A3712171A9
:102F300001238B4207D0013E2BD0A2795B000132E6
:102F4000DBB2A271F5E7C28A02B9426A2261C68980
:102F50002E44A661B0F8113006EB420123812162B4
:102F6000B0F81120520102F2FF1201EB62226261FD
:102F7000B0F8133003B9036AAD1A2B44A57923FACC
:102F800005F56B1CE36140F6F4739D4203D80C23F6
:102F9000E371002070BD4FF6F4739D4289BFC36A90
:102FA000102323622023E371012070BD00F082BF53
:102FB00000F080BF00F07EBF70B50E46154600F0F1
:102FC000F9FF0C4C2368C01A0B4B984208D900F04B
:102FD000F9FF0A4B186001F0B9F900F0EBFF20602F
:102FE00000F0F0FF80B2801BA842D4BF0020012077
:102FF00070BD00BF1C030020A08601002008002037
:1030000038B5057A04464DB9406800F07DFA63682A
:103010002946187D02F0DAFE0123237238BD10B56F
:10302000037A04466BB143680121187D02F0CEFE9D
:10303000FF21606800F09AFA606800F079FA0023D6
:10304000237210BDF8B504460D46164600F0BAFFCF
:1030500087B2606800F06FFAFF28607209D14FF400
:103060007A7239462046FFF7A7FF0028F1D0552392
:103070000BE0FE2801D0502307E032462946606865
:1030800000F05EFA607230B1602320462370FFF7D3
:10309000C6FF0020F8BD606800F04DFA606800F0DF
:1030A0004AFA0120F8BD70B504460E4600F08AFFCA
:1030B00085B2324629462046FFF77EFF30B9606868
:1030C00000F039FAFF28F4D1012070BD002070BD56
:1030D000F7B5037A04460D4601920BB9FFF790FF4E
:1030E00025B14FF496712046FFF7DDFF45F0400112
:1030F000606800F03BFA0DF107060DF1030716F8C2
:103100000119606800F032FABE42F8D1002D0CBF00
:1031100095218721606800F029FA606800F00BFAB9
:103120000B25606800F007FA0306607203D5013DC5
:1031300015F0FF05F5D103B0F0BD70B504460D469E
:10314000164637210022FFF7C3FF324629462046A4
:10315000BDE87040FFF7BCBF2DE9F04100250572C6
:10316000057085724160044690461E4600F02AFFB5
:1031700041460746606800F0CBF963684F4A4FF05C
:1031800001081D72DA605D7483F810802046FFF735
:1031900037FF63684146187D02F018FE0A25FF21BB
:1031A0006068013D00F0E2F915F0FF05F7D16368B2
:1031B0002946187D02F00AFE0A2500221146204603
:1031C000FFF786FF0128804612D0013D15F0FF056C
:1031D00001D1202357E0FD21606800F0C7F94FF4CA
:1031E0000278606800F0A7F9B8F10108F9D1E4E7C6
:1031F0004FF4D57208212046FFF76AFF052802D157
:1032000084F80A800FE00425606800F094F9013D1D
:1032100015F0FF056072F7D1AA2802D10223A3722C
:1032200001E025232FE0A37ABFB2022B0CBF4FF0A1
:10323000804500252A4629212046FFF77EFF0246C9
:1032400048B14FF4FA6239462046FFF7B5FE002830
:10325000F0D0432317E0A37A022B0ED02046FFF7CD
:10326000DEFE6368B0683479317B727BD8601C7293
:1032700019745A740120BDE8F0813A212046FFF705
:1032800027FF38B1372320462370FFF7C8FE002000
:10329000BDE8F081606800F04EF900F0C000C02881
:1032A00004BF0323A372606800F045F9606800F072
:1032B00042F9606800F03FF9D0E700BF90D003000A
:1032C00038B5837A1546032B18BF49020A461121E7
:1032D0000446FFF7FDFE10B1302323700BE02946B2
:1032E0004FF400722046FFF7ADFE054618B12046A8
:1032F000FFF795FE03E02046FFF791FE00252846E4
:1033000038BD10B5837A0A46032B18BF4A02122132
:103310000446FFF7DDFE30B1312320462370FFF76E
:103320007EFE002010BD012010BD10B500220C2132
:103330000446FFF7CDFE30B1282320462370FFF767
:103340006EFE002010BD2046FFF769FE012010BD73
:10335000F8B5054616461F46FFF7D3FF98B100247F
:10336000A3B29F4206EB442108D94FF400722846CD
:10337000FFF768FE01340028F2D104E02846BDE8DA
:10338000F840FFF7D2BF0020F8BD38B50446154617
:10339000406800F0EBF84FF400722946606800F0D6
:1033A000E9F8FF21606800F0E1F8FF21606800F0B3
:1033B000DDF8606800F0BFF8607200F01F000528BB
:1033C00006D0572320462370FFF729FE002038BD82
:1033D000012038BD70B5837A1546032B18BF49020A
:1033E0000A4618210446FFF773FE064608B1322349
:1033F0001DE02A46FE212046FFF7C7FFC0B14FF46B
:10340000FA612046FFF74FFE054608B95A230EE041
:1034100032460D212046FFF75BFE38B9606800F0A8
:103420008AF818B92046FFF7FAFD05E02923237032
:103430002046FFF7F4FD0025284670BD38B50D463F
:103440004FF4FA610446FFF72EFE10B95B23237098
:1034500005E02A46FC212046FFF797FF18B92046D1
:10346000FFF7DDFD002038BD10B5837A0A46032B37
:1034700018BF4A0219210446FFF72AFE30B1332350
:1034800020462370FFF7CBFD002010BD012010BDAA
:1034900038B54FF4FA610446FFF705FE054620B142
:1034A000FD21606800F062F801E056232370204699
:1034B000FFF7B5FD284638BDF8B5054616461F4648
:1034C000FFF7D2FF70B10024BC4206EB442128462E
:1034D00004D0FFF7B3FF28B10134F5E7BDE8F840A9
:1034E000FFF7D6BF2846FFF79AFD0020F8BD00F091
:1034F000E1BC00F0DFBC00F0DDBC0000014B0122AC
:103500001A70704720030020011D006800F0FABF08
:1035100010B504460175006800F0C8FF207D012148
:1035200002F043FC207D0121BDE8104002F04EBCBA
:10353000006800F0CBBFFF21006801F052B8000026
:1035400037B5084B00250093074C134600680A4620
:103550002946257001F057F82378002BFCD0002075
:1035600003B030BDFD34080820030020006801F0DE
:1035700038B8000037B5074B00250093064C1346BA
:1035800000682A46257001F03EF82378002BFCD015
:1035900003B030BDFD3408082003002000F08ABCD1
:1035A00010B50446016002711AB90846FCF7D1FD56
:1035B0002060204610BD0A79002302710A6802606B
:1035C0000B60704710B50379044613B90068FCF727
:1035D000E0FD204610BD006818B14068003018BFFB
:1035E00001207047006818B18068003018BF0120C2
:1035F0007047006818B1C068003018BF01207047DC
:1036000010B50968044601B149680122204600F05E
:10361000A5FA204610BD10B50968044601B18968B5
:103620000122204600F004F9204610BD10B50B68B9
:1036300004460BB1D96809B92046024901F0CFF818
:10364000204610BD1DA7080810B50B680446CBB175
:103650001B680233072B15D8DFE803F00406080ABD
:103660000C0E10120A490EE00A490CE00A490AE061
:103670000A4908E00A4906E00A4904E00A4902E06A
:103680000A4900E00A49204601F0A9F8204610BD89
:103690004AA7080857A7080863A708086CA70808DE
:1036A0007EA708088FA70808A0A70808B7A70808DA
:1036B0001DA7080870B50D46044692B001460EA835
:1036C000FFF7C2FF0EA9284601F0DEF80EA801F0B0
:1036D0003FF82046FFF77FFF78B3494902A801F081
:1036E0007EF802A90AA801F09CF821466846FFF777
:1036F00087FF694606A800F075FA06A90AA801F036
:10370000E3F806463F490EA801F069F80EA93046D5
:1037100001F0DAF80146284601F0B6F80EA801F0EB
:1037200017F806A801F014F8684600F022FA0AA873
:1037300001F00EF802A801F00BF82046FFF752FF47
:1037400078B3314902A801F04AF802A90AA801F0A9
:1037500068F821466846FFF75EFF694606A800F054
:1037600013F906A90AA801F0AFF8064625490EA8E4
:1037700001F035F80EA9304601F0A6F801462846BA
:1037800001F082F80EA800F0E3FF06A800F0E0FFC9
:10379000684600F057F80AA800F0DAFF02A800F027
:1037A000D7FF2046FFF725FF40B3184902A801F0D4
:1037B00016F802A90AA801F034F8214606A8FFF776
:1037C00035FF06A90AA801F07FF804460D490EA8A6
:1037D00001F005F80EA9204601F076F801462846CA
:1037E00001F052F80EA800F0B3FF06A800F0B0FFF9
:1037F0000AA800F0ADFF02A800F0AAFF12B070BD49
:10380000C6A70808D2A70808D4A70808E3A708088D
:1038100038B504460D46044900F0E1FF284621462C
:10382000FFF748FF204638BD1DA7080800F042BB3F
:1038300010B504460160027112B90846FDF702F89E
:10384000204610BD10B50379044613B90068FDF792
:103850007DF8204610BD006810B1007BC0F38000E9
:10386000704708B5FFF7F7FF80F00100C0B208BD50
:1038700010B50B6804460BB1196800E0024900F06E
:10388000AEFF204610BD00BF1DA7080810B50B688D
:1038900004462BB11846FDF783F80146204600E0A8
:1038A000024900F09CFF204610BD00BF1DA708087C
:1038B000006848B1007B10F0030005D0012803D058
:1038C000022814BF002002207047000030B58DB0E0
:1038D00005460C46FFF7C5FF18B15B21204600F0F6
:1038E000E6FF29466846FFF7C3FF294604A8FFF70D
:1038F000CDFF2846FFF7DCFF002832DB01280ADD78
:1039000002282ED12D21204600F0D1FF6946204605
:1039100000F0BAFF25E02D21204600F0C8FF6946DF
:10392000204600F0B1FF2021204600F0C0FF3C21DE
:10393000204600F0BCFF069B23B104A908A800F0B4
:1039400070FF03E00F4908A800F049FF08A92046CE
:1039500000F09AFF08A800F0FBFE3E21204600F090
:10396000A6FF2846FFF77DFF18B15D21204600F035
:103970009EFF04A800F0ECFE684600F0E9FE0DB0E2
:1039800030BD00BFB1A7080838B504460D4604494C
:1039900000F025FF28462146FFF798FF204638BD56
:1039A0001DA7080800F086BA10B500240470446012
:1039B0008460C46001614261846110BD10B5044639
:1039C0004068FCF786FCA068FCF783FCE068FCF725
:1039D000ECFB204610BD2DE9F04704460846114691
:1039E000FCF733FE81460668002E58D04FF00008E1
:1039F00047466568002D36D0002F4ED1B8F1000F34
:103A00004BD131462846FCF7AEFC0368824683B9A9
:103A10002B6913B12846984709E02846A768FCF7A8
:103A20002DFC226901463846FCF75EFCA0600127A8
:103A300011E0012B0FDDA3690BB1984709E0D4F821
:103A40000C80FCF786FB626901464046FCF7B8FB38
:103A5000E0604FF001085046FCF79BFB2846FCF75E
:103A60006FFCAD69C6E7B8F1000F16D1AFB9B36806
:103A700038461968FCF755FBA36905460BB1984712
:103A800008E0E768FCF765FB626901463846FCF729
:103A900097FBE0602846FCF77CFBF668A4E7484605
:103AA000BDE8F047FCF780BD8A680968FFF793BF5F
:103AB000C068003018BF0120704737B5CC68054694
:103AC00024B901222146FFF76BFD10E02369002293
:103AD000CB6068462146FFF763FD2046FCF759FBA3
:103AE00069462846FFF767FD6846FFF76BFD2846E5
:103AF00003B030BD10B543680C4613B90B68436082
:103B000005E09A690AB11346FBE722689A610178D9
:103B1000204600F037F80123237110BD70B504462C
:103B200010461E460D46FCF786FB01220146204644
:103B300000F014F83146204600F02CF828462146C3
:103B4000FFF7D8FF204670BD10B50446FFF7E6FF2B
:103B5000204610BD8161704700F0ACB910B5044635
:103B6000016002711AB90846FCF768FB2060204624
:103B700010BD10B50379044613B90068FCF79EFB2D
:103B8000204610BD006820B1037B61F3000303737E
:103B900001207047006820B111B101610120704718
:103BA0000846704770B50B6804460E466BB11B792A
:103BB0009B070AD11046FCF737FE054601463068E0
:103BC000FCF7B0FB0122294601E00122002120463A
:103BD000FFF72EFE204670BD10B50446FFF7E2FF4A
:103BE000204610BD10B50B6804460BB1196800E003
:103BF000024900F0F4FD204610BD00BF1DA70808D3
:103C0000F8B50B6805460F46164603B112B90122F6
:103C1000002112E09C68002CF9D0304604F0FAF93B
:103C20003B6802461B7B314603F001032046FCF74C
:103C3000ABFE0128024605D121462846FFF7F8FDD4
:103C40002846F8BD2469E6E7006818B140690030ED
:103C500018BF0120704710B504460868FCF73AFC0D
:103C60000146204600F0BBFD204610BDF0B50368BC
:103C700089B005460C461746002B50D0196804A899
:103C800000F0ADFD04A9204600F0FEFD04A800F000
:103C90005FFD2A68137903F00303012B05D120216E
:103CA000204600F004FE1F4906E0022B08D1202127
:103CB000204600F0FCFD1C49204600F0E9FD13E021
:103CC00096688EB12021204600F0F1FD0122314698
:103CD00004A8FFF7ADFD214604A8FFF7F7FD04A8EF
:103CE000FFF7B0FD3669ECE7CFB12846FFF7ACFF30
:103CF000A8B10E4904A800F072FD29466846FFF7F6
:103D0000AAFF694604A800F0DFFD0146204600F046
:103D1000BBFD684600F01CFD04A800F019FD09B0C9
:103D2000F0BD00BFE9A70808FDA7080888A3080898
:103D300070B504460D461646044900F050FD28466D
:103D400032462146FFF792FF204670BD1DA70808A6
:103D500000F0B0B810B50121064801F0F5FF40B100
:103D60000121044801F0FBFFBDE81040024B1B6835
:103D7000184710BD000400402403002010B50121A5
:103D8000064801F0E1FF40B10121044801F0E7FFDE
:103D9000BDE81040024B5B68184710BD00080040AA
:103DA0002403002010B50121064801F0CDFF40B1E9
:103DB0000121044801F0D3FFBDE81040024B9B688D
:103DC000184710BD000C00402403002010B501214D
:103DD000064801F0B9FF40B10121044801F0BFFFDE
:103DE000BDE81040024BDB68184710BD00100040D2
:103DF0002403002010B50121064801F0A5FF40B1C1
:103E00000121044801F0ABFFBDE81040024B1B69E3
:103E1000184710BD001400402403002073B5437AF6
:103E20000646042B1CD8DFE803F003080D12170028
:103E30001D238DF80430134C12E01E238DF804303E
:103E4000114C0DE032238DF80430104C08E036237D
:103E50008DF804300E4C03E037230E4C8DF80430FF
:103E60000021204601F064FF002501A88DF80750CD
:103E700001F058FE204601F0A5FE737A064AD5549B
:103E800002B070BD0004004000080040000C00407B
:103E9000001000400014004038030020037A10B5E1
:103EA00004460BB1FFF7BAFF0023237210BD00F0E8
:103EB00001B8000008B5024B1B681B68019308BDE0
:103EC000B001040808B5024B1B689B68019308BD4C
:103ED000B001040808B5024B1B68DB68019308BDFC
:103EE000B001040808B5024B1B681B69019308BDAB
:103EF000B001040808B5024B1B685B69019308BD5B
:103F0000B001040808B5024B1B681B6C019308BD87
:103F1000B001040808B5024B1B681B68019308BD7B
:103F2000B401040808B5024B1B685B69019308BD26
:103F3000B401040808B5024B1B68DB69019308BD96
:103F4000B401040808B5024B1B681B6A019308BD45
:103F5000B401040808B5024B1B685B6A019308BDF5
:103F6000B401040808B5024B1B689B6A019308BDA5
:103F7000B401040808B5024B1B689B6B019308BD94
:103F8000B401040808B5024B1B68DB6B019308BD44
:103F9000B401040808B5024B1B685B68019308BDB7
:103FA0009C01040808B5024B1B689B68019308BD7F
:103FB0009C01040808B5024B1B681B69019308BDEE
:103FC0009C01040808B5024B1B685B69019308BD9E
:103FD0009C01040808B5024B1B68DB69019308BD0E
:103FE0009C01040808B5024B1B689B6D019308BD3A
:103FF0009C01040808B5024B1B685B68019308BD6F
:10400000D001040808B5024B1B689B68019308BDEA
:10401000D001040808B5024B1B681B69019308BD59
:10402000D001040808B5024B1B685B69019308BD09
:10403000D001040808B5024B1B685B6C019308BDF6
:10404000D001040808B5024B1B689B6C019308BDA6
:10405000D001040808B5024B1B68DB6C019308BD56
:10406000D001040808B5024B1B685B6D019308BDC5
:10407000D001040808B5024B1B68DB6E019308BD34
:10408000D001040808B5024B1B689B69019308BD69
:10409000C401040808B5024B1B685B6A019308BDA4
:1040A000C401040808B5024B1B689B6A019308BD54
:1040B000C401040808B5024B1B68DB6A019308BD04
:1040C000C401040808B5024B1B681B6B019308BDB3
:1040D000C401040808B5024B1B685B6B019308BD63
:1040E000C401040808B5024B1B689B6B019308BD13
:1040F000C401040808B5024B1B681B6C019308BD82
:10410000C401040808B5024B1B68DB6C019308BDB1
:10411000C401040808B5024B1B681B6A019308BD63
:10412000AC01040808B5024B1B685B6A019308BD2B
:10413000AC01040808B5024B1B689B6A019308BDDB
:10414000AC01040808B5024B1B68DB6A019308BD8B
:10415000AC01040808B5024B1B681B6B019308BD3A
:10416000AC01040808B5024B1B685B6B019308BDEA
:10417000AC01040808B5024B1B681B6C019308BD19
:10418000AC01040808B5024B1B68DB6B019308BD4A
:104190002000060808B5024B1B681B68019308BD88
:1041A0001C00060808B5024B1B685B68019308BD3C
:1041B0001C00060808B5024B1B681B69019308BD6B
:1041C0001C00060808B5024B1B685B69019308BD1B
:1041D0001C00060808B5024B1B689B69019308BDCB
:1041E0001C00060808B5024B1B68DB69019308BD7B
:1041F0001C00060808B5024B1B681B6A019308BD2A
:104200001C00060808B5024B1B681B68019308BD1B
:10421000A401040808B5024B1B685B68019308BD44
:10422000A401040808B5024B1B685B69019308BD33
:10423000A401040808B5024B1B689B69019308BDE3
:10424000A401040808B5024B1B68DB6A019308BD92
:10425000A401040808B5024B1B68DB6C019308BD80
:10426000A401040808B5024B1B685B6D019308BDEF
:10427000A401040808B5024B1B689B6D019308BD9F
:10428000A401040808B5034B1B68D3F890300193D0
:1042900008BD0000A401040808B5034B1B68D3F84F
:1042A0009C30019308BD0000A401040808B5024B2E
:1042B0001B685B68019308BDC801040808B5024B80
:1042C0001B689B68019308BDC801040808B5024B30
:1042D0001B68DB68019308BDC801040808B5024BE0
:1042E0001B681B69019308BDC801040808B5024B8F
:1042F0001B685B69019308BDC801040808B5024B3F
:104300001B689B69019308BDC801040808B5024BEE
:104310001B68DB69019308BDC801040808B5024B9E
:104320001B681B6A019308BDC801040808B5024B4D
:104330001B681B6B019308BDC801040808B5024B3C
:104340001B685B6B019308BDC801040808B5024BEC
:104350001B689B68019308BDCC01040808B5024B9B
:104360001B68DB68019308BDCC01040808B5024B4B
:104370001B685B69019308BDCC01040808B5024BBA
:104380001B681B6A019308BDCC01040808B5024BE9
:104390001B681B6B019308BDCC01040808B5024BD8
:1043A0001B68DB6B019308BDCC01040808B5024B08
:1043B0001B681B68019308BDA001040808B5024BE7
:1043C0001B685B68019308BDA001040808B5024B97
:1043D0001B689B68019308BDA001040808B5024B47
:1043E0001B681B69019308BDA001040808B5024BB6
:1043F0001B689B69019308BDA001040808B5024B26
:104400001B68DB69019308BDA001040808B5024BD5
:104410001B681B6A019308BDA001040808B5024B84
:104420001B685B6A019308BDA001040808B5024B34
:104430001B68DB6A019308BDA001040808B5024BA4
:104440001B681B6B019308BDA001040810B5044B49
:1044500004460360C06808B1FFF7F4FD204610BDB4
:104460000CA8080810B50446FFF7F0FF20461021FD
:1044700001F064FD204610BD0068FFF7EBBD006849
:10448000FFF7F0BD70B504460E46074B00250360EC
:1044900040F80C5FFFF7CEFD30462671FFF74AFD6E
:1044A000A560204670BD00BF0CA8080838B50546B9
:1044B00000F10C042046FFF7DFFF28794FF6FF716B
:1044C000FFF728FD2046FFF7DAFF38BD08B50C30AE
:1044D000FFF7D5FF08BD0000400830B51860002484
:1044E0001868E5B2884206D90134082C02D0400889
:1044F0001860F5E70725024B5B5D137030BD00BF08
:1045000014A808082DE9F04380468FB00C300E4601
:10451000FFF7B2FF98F804401422002109A803F025
:1045200007F80B232046002209A9ADF82430FFF735
:1045300011FD9DF82D404CB19DF82C502DB90C9FCC
:104540009DF834909DF8354003E00024A1462746AD
:10455000012533790DB1002B3FD19D420BD1B268BB
:10456000BA4208D18DF820908DF82140BDF8201076
:10457000B289914231D03BB1002398F804000193F5
:1045800000931A46012116E08DF80F30B16804AB94
:104590000DF10F020A98FFF79FFF317905B1C9B9F4
:1045A000A9420BD000240194747B337B9DF80F202B
:1045B00098F804000094FFF7E5FC0EE0B368BB42F6
:1045C000F0D38DF820908DF82140BDF82020B389DC
:1045D0009A42E7D1049BBB42E4D100200FB0BDE872
:1045E000F08370B505460E4600F10C042046FFF737
:1045F00043FF31462879FFF795FC05462046FFF733
:104600003EFFE8B270BD2DE9F04304460F469046E8
:10461000994687B00E9E00F10C052846FFF72CFF47
:10462000207900964B4642463946FFF79BFC3EB93F
:1046300002A92079FFF79EFC9DF81430DB07F7D420
:104640002846FFF71CFF07B0BDE8F0830079FFF7AD
:1046500079BC10B50446006818B1FFF7AFFE00231F
:10466000236010BD38B5B1F904300D4683800B4688
:1046700053F8062F0446C0F806209B884381FFF7B5
:10468000E8FF2B6813B1236000232B60204638BD60
:10469000B1F9043010B50BB90A689AB10C685CB175
:1046A000A288012A03D0042A06D1022205E0A489A7
:1046B0008A710B814C8105E004220B814FF6FF7358
:1046C0008A714B8151F8063F03608B88838010BD4F
:1046D00030B5044685B0084611461A460023FFF758
:1046E000A9FD00230193ADF808308DF80A304FF68C
:1046F000FF73094D01A9ADF80C002846ADF80E3046
:10470000FFF7B0FF01A8FFF7A4FF20462946FFF7F7
:10471000BFFF204605B030BD400300204FF6FF73B9
:1047200010B5084C00202060A080A071208163811A
:10473000FFF770FD2046BDE81040034A034901F031
:10474000EFBB00BF4003002040010020410A0808E1
:1047500010B504460068FFF731FE204610BD10B5C5
:104760000446006808B1FFF729FE00232360A36018
:10477000636010BD38B504460D4600680131FFF78F
:1047800025FE10B184E82100012038BD10B5036872
:10479000044613B143688B4207D22046FFF7EAFF75
:1047A00020B1A3680BB922681370012010BD70B549
:1047B0000E46114604461546FFF7E8FF18B9204695
:1047C000FFF7CDFF09E02A463146A560206802F0D8
:1047D000A4FE2268A3680021D154204670BD38B5DC
:1047E0000023044603604360836003730D4639B1C0
:1047F000084603F00FFC294602462046FFF7D7FF84
:10480000204638BD884210B50B46044607D00968DB
:1048100019B19A68FFF7CBFF01E0FFF7A0FF204630
:1048200010BD10B50446002303604360836003732A
:10483000FFF7E8FF204610BD38B505460C4641B1EC
:10484000084603F0E7FB214602462846FFF7AFFF84
:1048500001E0FFF784FF284638BD70B504460E46D8
:1048600009B9002070BD6AB18368D5182946FFF7E1
:104870008DFF0028F5D02068A3683146184402F067
:1048800091FEA560012070BD8A680968FFF7E5BF49
:1048900038B505460C46084641B103F0BBFB21463E
:1048A00002462846BDE83840FFF7D7BF38BD07B5F8
:1048B00000238DF80410012201A98DF80530FFF7BF
:1048C000CCFF03B05DF804FB10B58A6809680446A4
:1048D000FFF7C3FF10B92046FFF741FF204610BD88
:1048E000006808B102F0FBBC704708B5006820B151
:1048F00002F0EEFC02F030F908BD002008BDF8B56A
:1049000006460D468F180024BD420CD0336815F8BA
:10491000011B9B6830469847002801DB0444F3E7FD
:10492000002C08BF04462046F8BD08B5FEF796F9EE
:1049300008BD03689B68184708B5FEF78FF908BDE6
:1049400038B50D210546FFF7F4FF0A210446284635
:10495000FFF7EFFF204438BD38B50546FEF77EF976
:1049600004462846FFF7ECFF204438BD012A98BFD3
:104970000A2230B50B468BB000218DF824100DF1C2
:104980002304B3FBF2F505FB1233DBB2092B94BF12
:1049900030333733DBB2214604F801392B46002D82
:1049A000EFD1FEF75BF90BB030BD00002DE9F04709
:1049B00019468046104617461E469DF8205002F0C4
:1049C0006DF808B14D4912E026F000444FF0FF3277
:1049D0004B4B3846214602F061F868B94FF0FF3280
:1049E000474B3846214602F03BF828B94549404636
:1049F000FEF734F9BDE8F0874FF06042424B38468D
:104A0000314602F041F808B14049F0E74FF060420A
:104A10003F4B3846314602F019F80028F4D1002205
:104A200000233846314602F011F838B12D214046B6
:104A3000FFF77FFF06F10046044600E004463549D3
:104A40004FF0000900205FFA89F39D4206D9002249
:104A5000314B01F0B3FE09F10109F4E73A46334660
:104A600001F0D0FB0F46064602F056F80A22014636
:104A700081464046FFF77AFF0444E5B3484601F01B
:104A8000FDFC02460B463046394601F0B9FB0646AE
:104A90000F4640462149FEF7E1F8044400221E4B30
:104AA0003046394601F060FD06460F4602F00CF82C
:104AB000B0F1000A07DA2D214046FFF73AFFCAF1AC
:104AC0000001814602E051464FF000090A224046AB
:104AD000FFF74CFF48440444504601F0DFFC024617
:104AE0000B463046394601F08BFB013D15F0FF05C2
:104AF00006460F46D2D12046BDE8F0871CA808081C
:104B0000FFFFEF7F24A80808FFFFEF4120A8080857
:104B1000FFFFEFC10000E03F00002440FBA70808B2
:104B200037B505461446084601F0CAFCE4B2024611
:104B300000940B462846FFF739FF03B030BD0CB494
:104B40002DE9F04387B000AF07F1380454F8049B17
:104B500005460E4623464A461421381D3C60FFF7A1
:104B60005DFC132805D8391D2846FEF777F8044662
:104B700013E000F1080323F00703E846ADEB030D53
:104B8000411C23464A4668463C60FFF747FC69469D
:104B90002846FEF763F80446C5461EB12846FFF7CF
:104BA000CFFE044420461C37BD46BDE8F04302B0AA
:104BB000704738B5046805467CB16368013B6360A3
:104BC0005BB9236820469B689847A368013BA360B4
:104BD0001BB923682046DB689847284638BD0B6818
:104BE000036013B15A6801325A607047014A024BA0
:104BF0001A6070479EA808084C03002008B50020E2
:104C0000FFF7C4FB28B1FFF7B1FB80F00100C0B291
:104C100008BD012008BD000037B50E4B04461B68D7
:104C200002A819440C4B1B68194440F8041D02F0FB
:104C300069FB02F011FB054603F0ECF90023284460
:104C400000F8013C29462046FFF7C9FD204603B085
:104C500030BD00BF58030020540300202DE9F04769
:104C6000A4B014AC07468946204611463F221D4693
:104C700003F0EDF9002320468DF88F3003F0CAF9D8
:104C8000804625B9244903A802F08CFC13E03C219E
:104C900095FBF1F2002AB8BF524292FBF1F301FBFF
:104CA00013224FF46163009295FBF3F31B4A10212A
:104CB00003A8FFF7A3FB25462E1B08F1FF3AB245D8
:104CC0001BD92B78252B16D16B787A2B13D103A8FF
:104CD00003F0A0F980463044C6EB0A02A91C204428
:104CE00002F01BFC424603A9284602F016FC2046AF
:104CF00003F090F980460135DEE74B46224632212B
:104D000007A802F0D3FC07A93846FFF768FD38462C
:104D100024B0BDE8F08700BF41AF0808FEA808082E
:104D2000F7B5054601921C4613B9124B1C682CB10D
:104D3000114B2046196802F02BFC20B90199284636
:104D4000FFF76AFF13E00D4F019A3B680C4E1A44BF
:104D5000336802A8134440F8043D02F0D3FA3A68DD
:104D600033680146134428462246FFF777FF28465A
:104D700003B0F0BD500300204C0000205803002079
:104D80005403002010B50020FFF72CF9044668B941
:104D9000FFF738FA01280BD12046FFF76BFA38B934
:104DA000FFF72CFF30B9FFF7D1FAF9E7012010BD6A
:104DB000002010BDFFF722FF0020FFF713F900309D
:104DC00018BF012010BD08B5FFF7DCFFBDE80840A3
:104DD000FFF700B9024B1A68024B1A60704700BF18
:104DE0004C000020500300200021FFF71BBA10B533
:104DF0000446FBF717FF204610BD13B50B460446CB
:104E000003C88DE8030093E8030084E803009DE8ED
:104E1000030083E8030002B010BD00000348002334
:104E20008360034A034901F07BB800BF60030020A0
:104E300040010020EF4D080808B5184B33B100F0D1
:104E400027FC03681B69984700281EDC144B33B10C
:104E500000F088FD03681B699847002818DC114B97
:104E60000BB1AFF30080104B0BB1FCF7DDFB0F4B28
:104E70000BB1AFF300800E4B7BB100F045FC036833
:104E80001B699847002806DC08BDAFF30080DDE70A
:104E9000AFF30080E3E7AFF3008008BD000000003F
:104EA00000000000000000002916080800000000B3
:104EB0000000000008B5FFF7BFFFFFF783F8014BC4
:104EC000186008BD200800200248034A0349121A4E
:104ED00002F023BB004002400440024030B1080809
:104EE00007B5002300931A466FF07701FFF7D4F956
:104EF00003B05DF804FB000007B543880A2B08D017
:104F0000502B09D1094B1B683BB103B05DF804EB92
:104F10001847FFF7E5FF06E0002300931A466FF0FD
:104F20007701FFF7B9F903B05DF804FB70030020C7
:104F300038B5104C104D2368AB42104B0CBF01220A
:104F400000221A7002D0FFF7BFFF2560FFF722F89A
:104F5000044602F0F5FA0A4B13B12046AFF3008085
:104F600000210748FFF71AFABDE83840002105483C
:104F7000FFF788B9004002401E1C279A74030020E6
:104F800000000000F94E080870470020704710B577
:104F90000446102100F0D2FF204610BD08B508B12C
:104FA000FFF7F5FF08BD002202604FF69C72828079
:104FB00010B5B1F9044084808A8002680C680460EE
:104FC0000A6010BD10B504460068FFF7F7F92046E7
:104FD00010BD38B5C468F4B12378022B03D104F1B5
:104FE0000C00FFF7EFFF656835B12846FBF71AFEA6
:104FF0001021284600F0A2FFA56835B12846FBF72E
:1050000011FE1021284600F099FF2046BDE83840E7
:10501000142100F093BF38BD13B5044691E8050094
:1050200000234B600B602060626001A80193009335
:10503000FFF7BFFD204602B010BDF7B50C4606468F
:105040000F4654F8043B02AD45F8083D214601A83F
:10505000FFF7C5FD29463046FFF7DEFF01A8FFF741
:10506000A8FD2046FFF7A5FD3846082100F066FFA1
:10507000304603B0F0BD000038B50023044603609D
:1050800010200D46FBF70BF828B101234360836025
:10509000024BC56003602060204638BD30A9080877
:1050A000826810B50AB900F05CFFC368BDE8104023
:1050B000184708B5006800F11001FFF7F1FF08BDBF
:1050C000826810B50AB900F04CFFC368BDE8104013
:1050D000184708B5006800F11001FFF7F1FF08BD9F
:1050E00038B5002383608B6804460D462BB102223D
:1050F0009847EB68E360AB68A360204638BD0000CA
:10510000F0B589B004686846FFF74DFF4FF0020222
:1051100000238DF80830D4E84F3F002B03D1C4E8BA
:10512000412F0029F7D102D08DF8083063E014F147
:105130000C0503D069462846FFF735FFBFF35F8FA4
:1051400001236370BFF35F8F04F10803002053E86D
:10515000006F43E80002002AF9D1BFF35F8F002EF1
:1051600049D0FFF777F820B129463046FFF798FF7E
:105170003AE0314602A8FFF7B3FFE068B4F91050F7
:1051800008B102F017FA06901020ADF81C50FAF79B
:1051900086FF0546E8B1002787601820FAF77FFFF1
:1051A000044688B10146876002A8FFF726FE049BEB
:1051B000A268A360059B0492E26806A9E36004F17B
:1051C00010000592FFF7EFFE0D4B2C60EB600D4BCE
:1051D000AB6006A8FFF7F6FE02A8FBF723FD00224E
:1051E00029460948FFF73EF83046FBF71BFD102122
:1051F000304600F0A3FE6846FFF7E4FE09B0F0BDBC
:10520000B350080829530808B15908082DE9F04F90
:105210008BB006460F46904699469DF850A0FFF782
:10522000A5F807AD834630BB4FF62E73059005A950
:105230002846ADF81830FFF7B6FE1420FAF72FFF16
:10524000044658B10223037001234370C0F804B030
:10525000C0F808B029460C30FFF7A5FE30462146BD
:1052600040F8044BFFF708FF2846FFF7ABFE05A800
:10527000FFF7A8FE52E000240C2314206C60AC6001
:105280000793FAF70CFF014618B1047044704460AC
:10529000846004A80391FFF7EFFE224B08200893D7
:1052A000FAF7FDFE044628B1039B04A940F8043B2D
:1052B000FFF795FC00955FFA8AF34A464146384667
:1052C0000994FFF75BF820B9039B5B7803F0FF02BA
:1052D00083B1039B04A906A80593FFF780FC05A9E9
:1052E0003046FFF799FE06A8FFF763FC04A8FFF716
:1052F00060FC13E04FF69C7305A903A80592ADF876
:105300001830FFF7FDFE05A8FFF75CFE05A8099918
:10531000FFF793FE06A8FFF74CFCDAE730460BB028
:10532000BDE8F08F99540808022AF8B5044606D063
:10533000032A17D0012A22D10B6803601FE018202E
:105340000E68FAF7ACFE054650B13146FFF7C8FECD
:105350003069B6F9147008B102F02CF92861AF82F7
:1053600025600CE0046854B104F11000FFF72AFE38
:105370002046FBF757FC1821204600F0DFFD0020F7
:10538000F8BD38B5002383608B6804460D462BB109
:1053900002229847EB68E360AB68A360204638BD03
:1053A000022A70B5044606D0032A11D0012A18D16A
:1053B0000B68036015E014200E68FAF770FE0546CE
:1053C00020B13146FFF7DDFF337C2B74256008E008
:1053D000046834B12046FBF725FC1421204600F078
:1053E000ADFD002070BD0000F0B50C46BFF35F8F2F
:1053F00087B0002350E8006F40E80032002AF9D15E
:10540000BFF35F8F002E3FD01846FEF723FF0746FD
:1054100020B121463046FFF753FE2EE0314601A869
:10542000FFF7AFFF237810208DF81430FAF737FE1E
:105430000546D0B187601420FAF731FE044678B1F2
:105440008760014601A8FFF7D8FC039BA268A36010
:10545000049B0392E268E3609DF814300492237485
:105460000A4B2C60EB600A4BAB6001A8FBF7DAFB40
:10547000002229460748FEF7F5FE3046FBF7D2FB2F
:105480001021304600F05AFD07B0F0BDD350080897
:10549000A1530808B159080830B5044685B00D4637
:1054A00068461146FFF7C9FD7CB124B228460DB10C
:1054B00002F080F8029002A96846ADF80C40FFF7B0
:1054C0001FFE02A8FFF77EFD1DE04FF001020098CD
:1054D0008DF80840D0E84F3FA34203D1C0E8412FE8
:1054E0000029F7D102D08DF808300CE010F10C0142
:1054F0004FF0010318BF0373BFF35F8F043000F850
:10550000033CFFF771FF01A8FFF753FB05B030BD67
:10551000704710B50446082100F010FD204610BD6C
:10552000F8B50F4600F10806051D002416F8011D08
:105530000A223846FFF71AFAAE42044407D0002C7C
:10554000F4D02E213846FFF7F4F90444EEE7204664
:10555000F8BD0000024A026000224260704700BFAE
:105560004CA90808024A02600A684260704700BFFE
:105570004CA90808014A4160026070474CA908081C
:1055800010B59DF8084044EA032343EA024242EA88
:105590000161416010BD000037B5044D05609DF804
:1055A00018500095FFF7ECFF03B030BD4CA9080878
:1055B00041747047704708B50021007CFEF70AFE71
:1055C00030EA200028BF4FF0FF3008BD08B50121A8
:1055D000007CFEF7FFFD30EA200028BF4FF0FF30CF
:1055E00008BD08B5007CFEF7EDFD20EAE07008BDBF
:1055F00008B5007CFEF7DEFD20EAE07008BD007C07
:10560000FEF7F8BD10B50446142100F097FC2046C3
:1056100010BD38B50446007C0D46FEF7D3FD0028CA
:1056200001DC607C28B12946207CFEF7DBFD20EA06
:10563000E07038BD10B50446002363604FF47A7300
:10564000A360054B0846236001232174637411464F
:10565000FEF7A0FD204610BD60A908080022007CCE
:10566000FEF7A0BD10B504461422002101F060FF32
:10567000054B20466360054BE36040F20113238134
:105680008123238210BD00BFFD0300207C03002086
:1056900030B50E4D87B001A8FFF7E4FF296811F07F
:1056A000010410D12846FAF7FEFC60B101AA214698
:1056B0000748FFF7BFFF2846FAF7FAFC054A0649F4
:1056C000034800F02DFC024807B030BD78030020ED
:1056D0000005002040010020B555080810B504461B
:1056E0001422002101F024FF054B20466360054B86
:1056F000E36040F2011323818123238210BD00BFA8
:10570000B00500201805002010B50E4C86B001A889
:10571000FFF7E4FF2368DB0710D42046FAF7C3FC49
:1057200060B101AA01210848FFF784FF2046FAF77B
:10573000BFFC064A0649044800F0F2FB024806B0E6
:1057400010BD00BF140500209C0500204001002072
:10575000B5550808826810B50AB900F002FCC368A4
:10576000BDE81040184738B5002383608B680446B5
:105770000D462BB102229847EB68E360AB68A3604B
:10578000204638BD7FB5124B044610200E460093CC
:10579000FAF785FC054610B13146FFF7E4FF002318
:1057A000204602AA6946019502930393FEF7AAFBDD
:1057B000039C051C18BF012534B12046FBF732FAC3
:1057C0001021204600F0BAFB284604B070BD00BF8F
:1057D00055570808002211464068FEF77FBD2DE9A5
:1057E000FF41002604AC054610468846174644F89B
:1057F000046D02F00FFC009681B2D8F80430224606
:105800003846FEF7BFFC20B131462846FFF7B2FE0E
:1058100003E021462846FFF7A5FE284604B0BDE870
:10582000F081002211464068FEF778BD0022114643
:105830004068FEF783BD00224068FEF777BD002276
:1058400081F001014068FEF761BD00231A46194648
:105850004068FEF753BD00231A4619464068FEF71C
:1058600045BD002211464068FEF728BD00220221F6
:105870004068FEF72BBD00231A464068FEF716BDB0
:1058800038B5084C28252A460021204601F050FE54
:105890004FF0FF336360044B04225A60034A2580B3
:1058A0001A6038BDBC060020B406002090A9080884
:1058B0004174704708B5007CFEF71CFC20EAE070DC
:1058C00008BD08B5007CFEF7EDFB20EAE07008BDDE
:1058D00008B5007CFEF7F6FB30EA200028BF4FF049
:1058E000FF3008BD08B5007CFEF7E4FB30EA20007D
:1058F00028BF4FF0FF3008BD007CFEF7EBBB70B552
:10590000457C04460E4625B9007CFEF7F3FB0028D3
:1059100005DD3146207CBDE87040FEF7BBBB284664
:1059200070BD000010B504460846114600226260B2
:105930004FF47A72A260054A2074226001226274D8
:105940001A46FEF79FFB204610BD00BFC4A90808F9
:105950000023007CFEF7D6BB0022FFF7F9BF007CD6
:10596000FEF7C0BB38B50C4D296811F0010411D108
:105970002846FAF798FB68B1084A2146084B0948BF
:10598000FFF7D0FF2846FAF793FB074A0749054877
:1059900000F0C6FA034838BD7C07002080070020CD
:1059A000F8060020E4060020400100202910080825
:1059B00010B5836804460BB900F0D3FAC368984762
:1059C000A3681BB103222146204698472046BDE824
:1059D0001040102100F0B2BA7047F8B506461546DF
:1059E0000C468F18BC4206D0336814F8011B9B6824
:1059F00030469847F6E72846F8BD0022007CFEF7BF
:105A000089BB0021007CFEF78DBB0021007CFEF7E6
:105A100091BB0021007CFEF795BB0021007CFEF7C6
:105A200099BB10B50446142100F088FA204610BD39
:105A300010B50446002363604FF47A73A360044BEF
:105A40002174084623601146FEF794FB204610BDE2
:105A5000F4A908080021007CFEF784BB00231A4645
:105A60004068FEF723BC002202214068FEF72EBCEE
:105A7000002211464068FEF721BC00221146406812
:105A8000FEF72CBC00231A4619464068FEF72EBCD0
:105A900000231A4619464068FEF730BC002281F008
:105AA00001014068FEF732BC00224068FEF73EBCB0
:105AB000002211464068FEF741BC002211464068B2
:105AC000FEF72CBCF0B5174687B0054604A8FFF7D3
:105AD00041FD002606AC384644F80C6D02F09AFAF7
