:020000040808EA
:100000000000080890850808000006000A000501A5
:080010000402DE0500000000FF
:040018000477080859
:1000200009480A4908B5884205D0094A824202D0E7
:10003000121A06F07AF90748074A0021121A06F048
:100040007FF9064808BD00BF00000020A482080810
:10005000C4020020C8020020680B0020680B0020AA
:1000600070B504F04DF9074B074C1E46E41AA4087E
:100070000025A54204D056F8253098470135F8E709
:1000800070BD00BF04820808A082080800F024B8F0
:1000900008B500F027F8BDE8084004F0F3B803F015
:1000A0007FBC03F085BC0078B0FA80F0400970474F
:1000B00001230370704710B50446006808B103F0CF
:1000C00077FC204610BD08B504F0CAFCBDE8084026
:1000D0004FF4165104F0AABC014800F0FBBA00BF6F
:1000E000D002002010B5074C204600F08FFB2046C0
:1000F00000F093FB204600F082FB2046BDE8104054
:1001000000F092BBD002002038B5124C03F0B4F9D5
:10011000FFF7D9FF00232360A380A37123814FF64B
:10012000FF730D4D6381032003F06EFB20460B4CE3
:100130002A460B4905F0EEF84FF07C5302220121CC
:10014000204600F02DFA2A462046BDE838400549F1
:1001500005F0E0B810030020C8020020D002002003
:10016000B7000808A90608087047000008B504F0A1
:1001700077FC024903F08BFE002008BD18770808C1
:1001800008B504F06DFC024903F081FE002008BDB3
:100190002977080808B504F063FC024903F077FEEC
:1001A000002008BD3877080808B504F059FC02495A
:1001B00003F06DFE002008BD4E77080808B504F076
:1001C0004FFC024903F063FE002008BD5B7708087E
:1001D00003F052B910B504200C46FFF760FF01464A
:1001E00008B1064B0360204600F025FB04F038FC04
:1001F000034903F04CFE012010BD00BF88790808B8
:100200006B77080810B50446024B0360FFF7ACFF9C
:10021000204610BD8077080810B50446FFF7F2FFAE
:100220002046042105F084F8204610BD03F024B9CF
:100230007047037C024603F0080303F0FF002BB174
:10024000D36A506A181A48BF6FF0004070470368BD
:100250001847012A02D0022A02D004E0016002E01D
:100260000B6800B1036000207047704710B504466A
:10027000342105F05DF8204610BD00007FB5024630
:1002800013790846956833B13DB90C4904B0BDE80F
:10029000704003F0FCBD0A4B00E00A4B167B0A4C91
:1002A0000A49527B012E08BF214602920191009516
:1002B000074A002103F02BFE04B070BDE377080865
:1002C000C6780808D2770808DB770808DF770808BF
:1002D000F977080810B501230374836804460BB14D
:1002E000C06806E0006828B183680BB905F033F8F0
:1002F000C3689847012363740020BDE8104003F0F1
:100300009BB9103001F04ABC103001F05FBB07B55B
:1003100001220DF10701103001F0A5FA01280CBFF0
:100320009DF807004FF0FF3003B05DF804FB10307C
:1003300001F0C0BC07B502AB03F8011D012219464C
:10034000103001F0B7FC03B05DF804FB1FB5124993
:10035000684603F03EFD04F083FB03681B69984781
:10036000002814DD04F07CFB03685B699847C4B285
:100370002146684603F068FD0D2C08D104F070FB9F
:10038000009903F09BFD0549684603F035FD0A20FE
:1003900003F0EAF8DFE700BFC6780808D07708085E
:1003A00010B58368044613B10322014698472046DE
:1003B00010BD38B5044670B1056835B12846FFF761
:1003C000EFFF1021284604F0B3FF2046BDE8384077
:1003D000142104F0ADBF38BD2DE9FF4106460F469C
:1003E00014202B491546984604F0A6FF044630B168
:1003F00000230374036043608360C360437434600C
:10040000002C3AD02249102004F096FF0346B0B1E8
:100410000022826002AA95E8030082E8030093E8C4
:10042000030085E8030092E8030083E8030099686D
:10043000AA68A9609A60EA68D968E960DA60256804
:10044000236035B12846FFF7ABFF1021284604F0A2
:100450006FFF3068036883B10A9B42468DE809004C
:1004600039460C4B043003F0A7F830B933681B7CD5
:100470004BB9012003F078F8F8E7306800233360C7
:1004800008B1FFF796FF304604B0BDE8F08100BF29
:10049000307D0808D502080810B503680446B3B1DA
:1004A000586803F091F800B110BD23685A7C12B966
:1004B000586803F091F82368586803F095F82068AD
:1004C0000023236018B1BDE81040FFF772BF10BDD4
:1004D00010B50446142104F02BFF204610BDB0F9DE
:1004E0000A3013B100EB031070471846704710B57F
:1004F0004B688A6810339A4201D2002010BDA2F1E5
:1005000010038B60002BF8D0416819B15C1A2411DC
:100510004C8100E003600021436022F8061C02F8D1
:10052000081C42F8041C184610BD000010B50C4C05
:100530002368DB0711D42046FFF7B5FD68B1094AEF
:100540000321094B094804F0D5FB2046FFF7B0FD15
:10055000074A0849054804F0DDFE044810BD00BF05
:100560001C03002038030020BC03002020030020CF
:10057000C80200203102080810B5FFF7D7FF074B6B
:10058000044653B104F0D3FB38B1236820461B69FD
:100590009847002801DDAFF3008010BD0000000087
:1005A0002DE9F8433A4E894631681F4611F001059E
:1005B0004FF000030446904683630AD13046FFF7AC
:1005C00072FD30B10120294603F036F93046FFF7BD
:1005D0006FFD0023E361C4F82090C4F82480A76174
:1005E0000420FFF75CFD08B12A4B0360606304F050
:1005F000A1FB06461820FFF752FD054610B1314613
:1006000000F056FDE56240F28440FFF748FD0546E4
:10061000D0B1642280F860241F4A0023C0F87024FF
:100620000122C37180F83C3480F83D3480F86A348C
:1006300080F87424C0F8783480F87C3480F87D34F5
:1006400004F0EAFDC5F86C040023A5622360FFF7FF
:100650006DFF064640F67430FFF721FD054610B1E8
:10066000314602F013FC25634FF41651284602F080
:100670008BFB206B094902F0BBFD206B084902F09F
:10068000B7FD206B074902F0B3FD2046BDE8F883B3
:100690003403002088790808A47708081778080828
:1006A000497808085A78080810B504463830FFF72A
:1006B000F3FEA06B08B1FFF77CFE204610BDC161C0
:1006C0007047006A7047406A7047C06970470068A9
:1006D0007047000010B50446114B88B00493114BCD
:1006E00004AA0793104B114906934FF440630093FB
:1006F00003A80323FFF770FE039BA06B0022039265
:10070000A36308B1FFF755FE03A8FFF7C5FE0398E2
:1007100008B1FFF74EFE04A8FFF742FE08B010BD77
:100720004D0308084F0208085302080869780808B2
:10073000F0B5054685B01846174604F05AFD044644
:1007400048B904F08DF9254903F0A8FBFA2003F01D
:1007500033FD20463FE0AC6A214B224A04F58C650C
:10076000009300238DF80430029201268DF80D309D
:100770003A466B4604F26C4128468DF80C6001F055
:10078000E3FDF8B1256004F23C45284601F03CFA4F
:100790003146204601F081FC014628B12146284619
:1007A00001F049F870B105E0204601F076FC002820
:1007B000F4D107E094F83C3413F0700F02D00A4BE8
:1007C0001D6008E004F04CF9084903F067FBFA20CB
:1007D00003F0F2FC002005B0F0BD00BF77780808F8
:1007E000A477080880F0FA02480400209B780808E3
:1007F00010B50446C06A00F09FFC206010BD0146A1
:10080000406B10B10368DB68184770470146406BC6
:1008100010B103689B68184770470146406B10B1E0
:1008200003689B69184770470146406B10B1036825
:100830001B691847704738B50446406B0D4610B128
:1008400003685B689847656338BDF8B5037A174657
:1008500013F07F0205460E4606D123F07F0343F0D6
:1008600020030372026042602B7A03F0200303F03E
:10087000FF00EBB1CEB12C6864B1E168B14216D093
:1008800019B1304605F08CFD88B12046FFF727FEF0
:100890000446F1E739462846FFF729FE38B1037AC6
:1008A000C66003F07F030372F8BD3046F8BD2046F2
:1008B000F8BD00680368DB68184738B50446084689
:1008C0000D4606F0AFFA294602462046FFF7F1FF33
:1008D00063681844606038BD10B50446006803685A
:1008E0009B68984763681844606010BD70B50D46FA
:1008F00022210446FFF7F0FF013D15F8011F71B1F9
:100900000B4B13F8026C7EB1023313F8032C8A42AE
:10091000F7D15C212046FFF7DFFF314604E02221BA
:100920002046FFF7D9FF70BD2046FFF7D5FFE4E76B
:10093000BA780808000000002DE9F0470D460623AC
:10094000064683725449284605F050FB00B3002741
:100950003C46DFF84891DFF848A14FF0200807EB4C
:1009600009032946586905F037FB40B107EB0A0334
:100970002846596905F088F90546444424B2043FE5
:1009800017F1180F4FEA6808E9D14FF0FF3703E07D
:1009900004464FF0200805270021284605F030FBCB
:1009A00010B3284604F086FF39A3D3E9002305F0ED
:1009B0003FF8C8B1DFF8EC90DFF8E0A07B1C13D063
:1009C000294659F8270005F01BFB40B128465AF884
:1009D000271005F059F90546C8EB040424B2013F7D
:1009E0004FEA68087FB2E9E73481284605F028FB22
:1009F00007460346DFF8B08030600A21092B07D98B
:100A0000B27AB8FBF1F8013AB272B3FBF1F3F5E751
:100A1000384605F0E1F80146284605F02BF8054672
:100A2000404605F0D9F80146284605F02DF98146E3
:100A300005F006FB054605F0CFF80146484605F0EF
:100A400019F8014605F018F805F0FAFA284480452F
:100A500001D970600AE000230137736037602CB160
:100A6000092F81BF01340123348133600A21736867
:100A7000B3FBF1F201FB12333BB996F90A30002BBC
:100A800003DD013B7260B372F1E73046BDE8F087E9
:100A9000F168E388B5F8E43E8096184B30000020FA
:100AA000180000200000002040420F0010B504464E
:100AB000521AFFF7FEFE63681844606010BD30B53F
:100AC00087B00B460DF116010A460A25B3FBF5F473
:100AD00005FB1433303301F8013D2346002CF5D1DA
:100AE000FFF7E4FF07B030BDF0B504468BB0084611
:100AF0000D4605F08FFA20B13D492046FFF7DDFE97
:100B000073E025F000463B49304605F083FA28B9EA
:100B10003849304605F060FA0028EDD0002128461B
:100B200005F050FA28B12D212046FFF7D5FE05F13A
:100B30000045294601A8FFF7FFFE01992046FFF76F
:100B4000BEFF9DF90E10C9B108AD08462A46029BAA
:100B50000A27013840B2461C08D0B3FBF7F607FB62
:100B60001633303305F8013D3346F2E7C9B2511A66
:100B70002E2301F8013D2046FFF798FFBDF90C3008
:100B8000002B17DA1C492046FFF797FE0DF12601CE
:100B90000A46BDF90C300A255B4293FBF5F005FBD4
:100BA0001033303301F8013D03460028F5D12046CB
:100BB000FFF77CFFBDF90C30002B16DD65212046C8
:100BC000FFF78AFE0DF126010A46BDF90C300A2511
:100BD00093FBF5F005FB1033303301F8013D03B210
:100BE000002BF5D12046FFF761FF0BB0F0BD00BF31
:100BF000C7780808FFFF7F7FCC78080838B5037AEC
:100C0000054603F07F03062B0C4666D008D8022B5E
:100C100069D3032B53D901682046FFF767FE38BD1F
:100C20000C2B15D00AD8082B52D00A2B5BD10568A3
:100C30002D212046FFF750FE29464AE0202B1DD0EB
:100C4000402B50D15B212046FFF746FE2D6811E076
:100C500001682046FFF748FF38BD28462146FFF7C8
:100C6000CDFF2846FFF73BFC054628B12C21204646
:100C7000FFF732FE002DF0D15D211CE07B212046E4
:100C8000FFF72AFE2D68ADB1E9682046FFF72EFE7A
:100C90003A212046FFF720FE28462146FFF7AEFF07
:100CA0002846FFF71CFC054620B12C212046FFF703
:100CB00013FEE8E77D212046FFF70EFE38BD90E8E1
:100CC00006002046FFF7F5FD63681844606038BDF4
:100CD00001682046FFF7F3FE38BD03680BB10449F5
:100CE00002E0044900E004492046FFF7E6FD38BD74
:100CF000CF780808D4780808C77808082DE9F041AB
:100D00000023A2B05D4C05468DF830308DF83130AF
:100D10000993C8204FF47A730E460A93089402F0A0
:100D20003FFE18B100F1C8031A4601E0034602462F
:100D300003939DF81C3001900290049223F07F03EE
:100D400001AA4F4905A88DF81C30FFF77EFD38B188
:100D5000037A23F07F0343F004030372494B0360DB
:100D600003F019FA484B0246484915A803F0C0F9A8
:100D700001AA474905A8FFF768FD0746D0B11599B4
:100D8000002973D0179ADDF808800132039B08EB25
:100D9000020098426AD80290B8F1000F66D040462F
:100DA00005F0C3FA3B7AC7F8008023F07F0343F0D5
:100DB00005033B7215A802F0C5FF01AA354905A835
:100DC000FFF743FDD8B1037A01A923F07F0343F075
:100DD00040030372002303604360FFF788FB70B198
:100DE0002A68037A002A23F07F03ADBF43F008038B
:100DF00043F00A0352420372B8BF03720260A96A49
:100E00004FF47A7300271793159444F20223324665
:100E100001F23C4119A80CAD19AC8DF864708DF845
:100E20006570169700F0F7FE0FCC0FC50FCC0FC5FD
:100E3000236801202B60169B22AC0993179B0A9311
:100E4000189B0B9303F0B8F914F8583D4BB108AB5D
:100E500005A815A915931697FFF7D0FE204600F0B8
:100E6000D3FE019838B102F0A3FD04E03B7A23F0F1
:100E70007F033B729EE722B0BDE8F081B07708089F
:100E8000DA78080830790808E1780808B404002006
:100E9000087C08082579080802F0EEBA37B5042066
:100EA0000D46FFF7FCF8014608B10E4B03602846DB
:100EB000FFF7C1FC03F0D4FD0B4902F0E8FF284620
:100EC000FFF701FC04462846FFF7FBFB074B201AFF
:100ED0003C2242431B686846012102F0F3FE0120D8
:100EE00003B030BD80770808F37808084404002078
:100EF00013B56B460C4A0C461068516803C30A23AD
:100F00000C2269462046FFF713FC0028F7D06946FB
:100F10002046FFF7F3FE03F0A3FD044902F0B7FFFC
:100F2000012002B010BD00BF12790808037908083B
:100F300010B50446024B0360FFF716F9204610BDBA
:100F40008879080810B50446FFF7F2FF204604210F
:100F500004F0EEF9204610BD7FB50D4603F080FD8C
:100F60002A4902F094FF02F00FFB01462846FFF7E2
:100F7000A6FB02F0F5FC08B902F0EAFC02F0F0FC76
:100F8000044640B303F06CFD214902F097FF284668
:100F9000FFF79DFB1F4B02461B781F498DF8003061
:100FA00002A83C2303F01AFB039C7CB16368013B5D
:100FB00063605BB9236820469B689847A368013B40
:100FC000A3601BB923682046DB6898474FF47A601A
:100FD00003F0F2F816E002F0D7FA06462846FFF7CB
:100FE00074FB301AB0F57A6F05D303F039FD0B4965
:100FF00002F064FF012403F033FD094902F05EFFB3
:10100000002CB6D0012004B070BD00BF20770808C6
:101010001A790808400400202A7908083479080859
:10102000517908087FB50C4603F01AFD174B0546A9
:101030001E6803F0B0F8334602461549684603F0CF
:1010400057F80099284602F022FF684602F07AFE1F
:1010500003F006FD0F4902F01AFF03F001FD0546FB
:101060002046FFF7C5FB041E05DA2D21284602F0B5
:1010700012FF614200E021460A22284602F028FFC2
:10108000284602F00FFF012004B070BD08020020C6
:10109000B404002074790808034B00221A60034B43
:1010A00001221A7002F0E8B9440400204004002034
:1010B00010B50446084621604FF4165103F034FE83
:1010C000204610BD10B50446006802F0E0FE20681E
:1010D0000249BDE8104002F0DABE00BFA47908085A
:1010E00070B504460025FFF7EDFF2571FA2003F0E7
:1010F00063F8E61C206803681B69984738B12068CC
:10110000013503685B69984706F8010FF2E725444B
:1011100028716379542B0AD104F1090004F0ECFF23
:10112000237A80B2012B06D100F57A7002E0A01D6F
:1011300004F0E2FF80B270BD0149FFF7D1BF00BFEC
:10114000C981080802F098B902F096B902F094B982
:1011500010B50446243000F08DFE28B104F50C7063
:10116000BDE8104000F086BE10BD411E00F10A022D
:101170000020430843EAC01011F8013F18448A4296
:1011800000F0FF00F5D170472DE9F0470378441CCB
:10119000202B01D12046F9E70546704F88602C1AB4
:1011A0002E4615F8013B0BB32F2B01D1031917E085
:1011B0005C2B02D10020BDE8F087A3F12204E4B249
:1011C0001D2C03D827FA04F4E407F3D403F0BF047A
:1011D0003C2CEFD0203B5E2BE1D9EBE72F2D05D146
:1011E0001E4613F8015B202DF8D1F9E716600319AC
:1011F0009842C0EB030809D013F8012D2E2AF7D02E
:10120000202AF5D0B8F1FF0FD4DC01E04FF0000840
:10121000C1F8048001F10C0301F11702202403F846
:10122000014F9342FBD103461A1A13F8014B2E2C9F
:10123000FAD0202CF8D0B2FA82F408F1FF36640913
:10124000731C07D100274FF0070E3D46BA464FF0FA
:10125000080909E0835D2E2BF4D0013EF0E7835CA2
:10126000202B04D1002401324245F8DB4BE02E2B29
:1012700002D1B242F6D103E0222B17D07C2B15D03D
:10128000A3F12A0CBCF1050F01D82D2B0ED1A3F12F
:101290003A0CBCF1050F09D9A3F15B0CBCF1020FAC
:1012A00004D9A3F1210CBCF15D0F02D9B2420ED1D9
:1012B00049E0B24247D0754521D8A3F1610CBCF199
:1012C000190F08D8203BDBB249EA07070AE0754549
:1012D00015D800245F23A3F1410CBCF1190F98BF6E
:1012E00049EA0A0A05F1010C5FFA8CFC0D44BCF1D5
:1012F000060F6B7301D881F80CC06546B3E7BEF1E9
:101300000A0F17D100244B7B202B3FF453AF3CB185
:101310001AEA070F18BF02270F700120BDE8F087F7
:101320000B7B0120087019447E234B7331238B7390
:10133000BDE8F087B242E5DC32464FF00A0E0825E0
:101340004FF010098EE7BEF10A0FDBD032464FF0A6
:101350000A0E08254FF0100985E700BF0101003192
:101360002DE9F84306460D4691F80C9002247E279D
:1013700001F10D086968AA6863189BB21144914293
:1013800006D012F8010B03EB431343409BB2F6E780
:10139000B9F1030F28BF4FF0030909F10402D2B2DB
:1013A00003F00F01A818013A0929D2B294BF3031D5
:1013B0003731914541734FEA1313F1D305EB09031C
:1013C0005F730021304600F031FB0121304600F010
:1013D00010FB014628B97078B0FA80F04009BDE8EA
:1013E000F88303784BB1C37A1B07EED40B22404637
:1013F00004F08CFF0028E8D102E00120BDE8F8836A
:101400000134A4B2642CB5D1BDE8F8832DE9F04FC6
:101410009B460B7889B013F0700F05900E469146ED
:1014200001D10020A0E1059B1B78002BF9D1536866
:10143000029313789B0700F08D81029B0D270C33DC
:10144000B3FBF7F70137FFB24FF000080021304639
:1014500000F0ECFA44464346454609F10D02CDF84A
:101460000C80CDF8108006927269012130460793F6
:10147000C2F34F1A00F0BDFA079B20B97378002B16
:1014800000F09080CDE70278E52A00D042B9002C28
:1014900008BFD046BC423CBF0134E4B222B981E06F
:1014A000BC4238BF002403E0E52A01D10025DBE778
:1014B0002E2AFBD0C17A0F2952D13DB95106D3D57E
:1014C000437B02F01F0503932B4607E0013BDBB291
:1014D0009A42EBD1427B03999142E7D15A1E4FF0D9
:1014E0000D0C0CFB02FC029A6245DFD94FF0000E96
:1014F000BEF1040F5FFA8EF204D800EB4E02B2F890
:1015000001200CE00A2A95BF0EF1FF320EF1010214
:1015100000EB420200EB420294BFD288928802990B
:10152000614503D1002A18BF00259DE7FF2ABDD8D9
:10153000D2B2A2F141011929D9F8081098BF20327E
:1015400011F80C100CF1010AA1F1410C98BFD2B2B4
:10155000BCF1190F9CBF2031C9B29142A6D1FBE06A
:101560000907A3D44DB1012B7FF45BAFFFF7FDFD5D
:10157000039B83427FF455AF0FE00B22069907933C
:1015800004F0C4FE079B00287FF46EAF99F800209A
:10159000D20702D50122049266E71BF4006F00F027
:1015A000D1803EE71BF4007F3FF43BAF0BF0030319
:1015B000013B012B3FF635AF002C08BFD046BC42A3
:1015C00002D3049BCBB91FE00021304600F011FA92
:1015D00010B973785BB124E70134E4B2EFE7B36884
:1015E0001B79012BEDD81034E4B2A742E9D930467B
:1015F00000F0D2F80028F2D113E749463046FFF751
:10160000AFFE00283FF40DAF4FEA4811304600F01E
:101610000DFA00283FF405AF7D1EEDB22C464FF0C9
:10162000000A4FF00F0841E00021304600F0E1F9D8
:10163000074600283FF4F5AEB268AC4292F8243079
:1016400043F0010382F8243014BF224644F04002E4
:10165000027080F80B8080F80CA009F10D00039255
:10166000FFF783FD039A787387F81AA087F81BA009
:1016700002F01F020D23013AD9F808E05A43002373
:101680000299914215D91EF80210042B5FFA83FCCF
:1016900003F1010013D807EB4303A3F801100D2851
:1016A00002F101020346EBD1013CE4B2002CBBD1B4
:1016B0000EE014BF4FF0FF31002189B2E5E7BCF125
:1016C0000A0F94BF07EB430307EB40039980E6E75B
:1016D000736921463046C3F34F1A00F08AF9074672
:1016E00000283FF49EAE2022214604F029FE4B46FE
:1016F00053F80D2F3A605A687A601A893A819B7ABA
:10170000BB7299F8003003F018033B73184B1B6849
:101710002BB107F10E0107F11000984706E02123D5
:101720003B7428237B740823BC73FB733B8A7B8246
:101730003B83FB89FB82B26892F8243043F00103BB
:1017400082F8243000955B4652463146059800F0F9
:10175000B6F909E0012777E60EF1010EBEF10D0F93
:101760003FF482AED446C3E609B0BDE8F08F00BFB7
:101770004C04002001F080BE01F07EBE01F07CBE72
:1017800001F07ABE837800F1100243F00403837005
:101790000169806800F024BC2DE9F041037804461B
:1017A00003F0200303F0FF050BB100262EE0426991
:1017B000184B9A42F9D8FFF7E5FF06460028F4D007
:1017C0002169A06800F0A1FB0746A0680522394600
:1017D000243000F076FB80460028E6D029464FF4FE
:1017E000007204F0ADFD0125A3681A79AA4209D957
:1017F0004246E919186800F0E5FE0028D5D0013509
:10180000EDB2F1E7636903EB422363613046BDE863
:10181000F08100BFFFFD1F0010B5044680680A4636
:101820002430A16900F04DFB20B1A38803F00F0321
:1018300000EB431010BD70B5047805460E4684B920
:101840002422214604F07CFDAE60F379102B03D0F6
:10185000202B06D1402300E0202301202B70A8700C
:1018600070BD002070BD2DE9F74F0378044689460E
:1018700015464BB18278D10706D50CE05A4621694E
:1018800000F049FB00283DDA63784FF0FF3043F069
:101890000203637097E01A0703D5E36962699B1A34
:1018A00007E09A0608D5A3681A896369C3EB421357
:1018B0009BB29D4228BF1D462E464FF0000804F102
:1018C000100B002E35D02278636912F0200FC3F37D
:1018D000080AA0684FEA532102D0036A19441DE0A8
:1018E00090F8058001EA0808BAF1000F10D1B8F1AC
:1018F000000F0DD1002BC1D153064CBF036A236AE0
:10190000236105E004D1237813F0700F11D1BBE7F8
:101910002169A06800F0F9FA08EB0001A068BAF1AB
:10192000000F35D1B6F5007F32D3C36A994202D198
:101930002EE0A81B47E0B6F5806F1BD322784FEA54
:10194000562A970606D40279C8EB0202D2B2924513
:1019500028BF924699424FEA4A2707D2A0685346C9
:101960004A46006800F0ECFD60B98DE753449942A7
:1019700021D3F3E74A46006800F09AFD002883D09F
:101980004FF400776369B9443B446361F61B98E701
:101990000022243000F095FA00283FF475AFCAF514
:1019A0000077B74228BF374600EB0A013A4648465F
:1019B00004F0BBFCE6E72430019100F05BFA0199EA
:1019C0000028CBD160E703B0BDE8F08F73B50122EA
:1019D0000DF10701044646690569FFF744FF012838
:1019E00009BF9DF807004FF0FF306661256102B026
:1019F00070BD37B543690446C3F3431505B169B9F2
:101A000001220DF107012046FFF72DFF40B201280A
:101A100001D0002008E063691F3300E02033A06894
:101A20006361303000EB451003B030BD2DE9F0416B
:101A30000E46017804460769002939D04569B54248
:101A40003AD00EB9066131E00B0703D5C3699E4257
:101A50002ED807E0880605D5A3681B89B6EB431F7F
:101A600026D823E0D4F808E06A1E9EF8063003F179
:101A70000900731EC240C3409A4200D84DB94A06BD
:101A80004CBFDEF82020226A22611D4604F11008B6
:101A90000AE09B1AF9E742462169A06800F03BFA88
:101AA000002805F1FF3503DD002DF4D1666103E068
:101AB00027610020BDE8F0810120BDE8F081F8B584
:101AC0000F4604461546002124221E4604F038FC29
:101AD000B868A580A0603B6A05F00F0200F13001F4
:101AE0005201E3601144CB7A1D074CD4831893F85C
:101AF0003B3003F017032370C97A11F0180F04BFAD
:101B000043F0080323709DF81830E37006F00303D8
:101B1000012B09D0022B05D0002B34D1710532D412
:101B2000012302E0032300E00223A370A1788B07C6
:101B300003D5237813F0110F25D14BB216F4005FB3
:101B400006F0080114BF6FF07F07002719433943DF
:101B5000A170C36A0244A361B2F84410B2F84A30DB
:101B6000750543EA014104D581B100F074FA68B902
:101B700009E02162D36CE36173040CD5E16920466E
:101B8000FFF754FF38B900202070F8BDA37843F068
:101B90000403A370F0E70120F8BD000038B5037816
:101BA00004460BB9012038BD83785A0723D501219B
:101BB000FFF732FE054628B96378002043F00103A1
:101BC000637038BD0378E52BF6D023781B0744BF3C
:101BD000E369C361238C4383638C8382094B1B6855
:101BE0002BB100F11601183098472B8B6B82A3782C
:101BF00023F00403A370A068FFF7AAFA0028DBD043
:101C0000D0E700BF4C04002010B50446FFF7C6FF24
:101C10000023237010BDF0B51F4693B000238DF84C
:101C200024308DF82530037806460C4601920BB11E
:101C300000203DE00B7813F0700FF9D013782F2BB4
:101C400012D1019B1A782F2A02D101330193F8E7B0
:101C5000A1681AB93046FFF7EEFD29E009A8FFF7A1
:101C6000EAFD0028E4D009AC01AA03A90198FFF716
:101C70008BFA0028DCD0019B1B789BB1002303AAC0
:101C800021463046FFF7C2FB0028D1D0354609ACCB
:101C90000FCD0FC40FCD0FC42B6830462360FFF764
:101CA000B3FFE0E73B4603AA21463046FFF7AEFB11
:101CB00013B0F0BD2DE9F0470378894619070446B3
:101CC000904608D583789A0705D51B070BD5E1699F
:101CD000FFF7ACFE38B963784FF0FF3043F00103F3
:101CE0006370BDE8F0876369DB439845F3D84646E7
:101CF0004FF0000A6369002E7FD0A068C3F3080785
:101D0000427912EA53251CD1DFB9216971B104F17E
:101D1000100200F000F90028DDDB40F08D80204645
:101D2000FFF730FD002840F08780D4E7236A3BB9F5
:101D30002046FFF727FD0028CDD02369236200E06D
:101D400023612169A06800F0E0F8291817B9B6F5F9
:101D5000007F21D2C7F50075B54228BF354637B997
:101D60006369E269934234BF0122052200E0012247
:101D7000A068243000F0A5F80028ACD038442A46EA
:101D800049462F4404F0D1FAB7F5007F2FD1A0685F
:101D9000243000F06FF816E0B6F5806FA06814D319
:101DA0000279730A521BD2B2934228BF1346C26A09
:101DB0005D02914202D31A44914237D3A7684A4642
:101DC000386800F071FC90B985E7C36A4A469942C9
:101DD00002BF4FF0FF3380F824A0C362A3681868E5
:101DE00000F0F0FB00283FF476AF4FF40075636914
:101DF000A9442B446361761B7CE7E269934201D9D5
:101E0000E36102E00F4B1B681BB1A37843F00403AE
:101E1000A37094F90230002B02DB4046BDE8F08746
:101E20002046FFF7BBFE0028F7D154E74FF0FF3202
:101E300080F824A0C262C1E72169A06800F065F8BB
:101E4000014684E74C04002001F016BB70B505463E
:101E50000C46084649B104F0E5FF2B6802462146CE
:101E60002846BDE87040DB68184770BD01F004BB30
:101E700001F002BB70B503780446DA071ED543684B
:101E800000F10C0681683246186800F09BFB05469D
:101E900008B9002513E023789B0704D4237823F0A6
:101EA000010323700BE06368A0681969324601449E
:101EB000186800F087FB0028F0D1EAE701252846E2
:101EC00070BD70B5836804468B420E46154614D02B
:101ED000FFF7D0FF08B9002070BD6B0703D50023C2
:101EE0002370A66009E0636804F10C0231461868AB
:101EF00000F0DEFA0028F2D1EDE72046237805F065
:101F000003051D4300F80C5B70BD837902394069FD
:101F1000994008447047012970B505460C4616469D
:101F200002D84FF0FF3070BDC3699942F9D8C37928
:101F3000202B10D18169022201EBD41100F50C7025
:101F4000FFF7BFFF0028ECD004F07F0450F82430E6
:101F500023F070430FE0102BE3D18369C1F3072115
:101F60000222194400F50C70FFF7ABFF0028D8D00F
:101F7000E4B230F81430EA6993429ABF336001202A
:101F8000002070BD012938B50C46154601D8002047
:101F900038BDC3699942FAD8C379202B0ED1816923
:101FA000032201EBD41100F50C70FFF78AFF002823
:101FB000EDD004F07F0440F824500FE0102BE6D160
:101FC0008369C1F307210322194400F50C70FFF760
:101FD00078FF0028DBD0E4B220F81450012038BD8F
:101FE0002DE9F341C46805468C420E46904607D25F
:101FF0000C460027EB6901349C4203D9CFB9EC6849
:102000000127F7E7A64214D001AA21462846FFF788
:1020100082FF00280DDBEDD0019B002BEAD107B138
:10202000EC606FF0704221462846FFF7ABFF074691
:1020300008B900270BE016B9C8F8004007E02246AF
:1020400031462846FFF79EFF0028F5D1F1E73846D4
:1020500002B0BDE8F081F7B505460C4602AE00239C
:1020600046F8043D324621462846FFF754FF071E36
:1020700001DA00200FE0002221462846FFF782FF08
:102080000028F6D0EB689C429CBF04F1FF34EC6062
:10209000019C002FE6D103B0F0BD70B504460123CA
:1020A0000022C3604FF0FF33C2710D46A06280F87A
:1020B0002420C362C4F8340280F83022C0F83832D9
:1020C000A1B104295DD811462430FFF7FAFE00289B
:1020D00057D000EB051393F8AE315B0651D11B3599
:1020E00000EB0515D5F80650002D4AD000222946F0
:1020F00004F12400FFF7E5FE002842D0B0F80B30D1
:10210000B3F5007F3DD1037C022B3AD1C389002B6C
:1021100037D0417B09264B1E63710023A3712171C7
:1021200001238B4207D0013E2BD0A2795B00013204
:10213000DBB2A271F5E7C28A02B9426A2261C6899E
:102140002E44A661B0F8113006EB420123812162D2
:10215000B0F81120520102F2FF1201EB622262611B
:10216000B0F8133003B9036AAD1A2B44A57923FAEA
:1021700005F56B1CE36140F6F4739D4203D80C2314
:10218000E371002070BD4FF6F4739D4289BFC36AAE
:10219000102323622023E371012070BD01F06CB98C
:1021A00001F06AB901F068B970B50E46154601F044
:1021B000E3F90C4C2368C01A0B4B984208D901F084
:1021C000E3F90A4B186001F0BBFB01F0D5F9206080
:1021D00001F0DAF980B2801BA842D4BF00200120B0
:1021E00070BD00BF50040020A086010078090020C7
:1021F00038B5057A04464DB9406800F07DFA636849
:102200002946187D02F0DCFF0123237238BD10B58A
:10221000037A04466BB143680121187D02F0D0FFB8
:10222000FF21606800F09AFA606800F079FA0023F4
:10223000237210BDF8B504460D46164601F0A4F908
:1022400087B2606800F06FFAFF28607209D14FF41E
:102250007A7239462046FFF7A7FF0028F1D05523B0
:102260000BE0FE2801D0502307E032462946606883
:1022700000F05EFA607230B1602320462370FFF7F1
:10228000C6FF0020F8BD606800F04DFA606800F0FD
:102290004AFA0120F8BD70B504460E4601F074F903
:1022A00085B2324629462046FFF77EFF30B9606886
:1022B00000F039FAFF28F4D1012070BD002070BD74
:1022C000F7B5037A04460D4601920BB9FFF790FF6C
:1022D00025B14FF496712046FFF7DDFF45F0400130
:1022E000606800F03BFA0DF107060DF1030716F8E0
:1022F0000119606800F032FABE42F8D1002D0CBF1F
:1023000095218721606800F029FA606800F00BFAD7
:102310000B25606800F007FA0306607203D5013DE3
:1023200015F0FF05F5D103B0F0BD70B504460D46BC
:10233000164637210022FFF7C3FF324629462046C2
:10234000BDE87040FFF7BCBF2DE9F04100250572E4
:10235000057085724160044690461E4601F014F9EE
:1023600041460746606800F0CBF963684F4A4FF07A
:1023700001081D72DA605D7483F810802046FFF753
:1023800037FF63684146187D02F01AFF0A25FF21D6
:102390006068013D00F0E2F915F0FF05F7D16368D0
:1023A0002946187D02F00CFF0A250022114620461E
:1023B000FFF786FF0128804612D0013D15F0FF058A
:1023C00001D1202357E0FD21606800F0C7F94FF4E8
:1023D0000278606800F0A7F9B8F10108F9D1E4E7E4
:1023E0004FF4D57208212046FFF76AFF052802D175
:1023F00084F80A800FE00425606800F094F9013D3C
:1024000015F0FF056072F7D1AA2802D10223A3724A
:1024100001E025232FE0A37ABFB2022B0CBF4FF0BF
:10242000804500252A4629212046FFF77EFF0246E7
:1024300048B14FF4FA6239462046FFF7B5FE00284E
:10244000F0D0432317E0A37A022B0ED02046FFF7EB
:10245000DEFE6368B0683479317B727BD8601C72B1
:1024600019745A740120BDE8F0813A212046FFF723
:1024700027FF38B1372320462370FFF7C8FE00201E
:10248000BDE8F081606800F04EF900F0C000C0289F
:1024900004BF0323A372606800F045F9606800F090
:1024A00042F9606800F03FF9D0E700BF90D0030028
:1024B00038B5837A1546032B18BF49020A46112105
:1024C0000446FFF7FDFE10B1302323700BE02946D0
:1024D0004FF400722046FFF7ADFE054618B12046C6
:1024E000FFF795FE03E02046FFF791FE0025284602
:1024F00038BD10B5837A0A46032B18BF4A02122151
:102500000446FFF7DDFE30B1312320462370FFF78C
:102510007EFE002010BD012010BD10B500220C2150
:102520000446FFF7CDFE30B1282320462370FFF785
:102530006EFE002010BD2046FFF769FE012010BD91
:10254000F8B5054616461F46FFF7D3FF98B100249D
:10255000A3B29F4206EB442108D94FF400722846EB
:10256000FFF768FE01340028F2D104E02846BDE8F8
:10257000F840FFF7D2BF0020F8BD38B50446154635
:10258000406800F0EBF84FF400722946606800F0F4
:10259000E9F8FF21606800F0E1F8FF21606800F0D1
:1025A000DDF8606800F0BFF8607200F01F000528D9
:1025B00006D0572320462370FFF729FE002038BDA0
:1025C000012038BD70B5837A1546032B18BF490228
:1025D0000A4618210446FFF773FE064608B1322367
:1025E0001DE02A46FE212046FFF7C7FFC0B14FF489
:1025F000FA612046FFF74FFE054608B95A230EE060
:1026000032460D212046FFF75BFE38B9606800F0C6
:102610008AF818B92046FFF7FAFD05E02923237050
:102620002046FFF7F4FD0025284670BD38B50D465D
:102630004FF4FA610446FFF72EFE10B95B232370B6
:1026400005E02A46FC212046FFF797FF18B92046EF
:10265000FFF7DDFD002038BD10B5837A0A46032B55
:1026600018BF4A0219210446FFF72AFE30B133236E
:1026700020462370FFF7CBFD002010BD012010BDC8
:1026800038B54FF4FA610446FFF705FE054620B160
:10269000FD21606800F062F801E0562323702046B7
:1026A000FFF7B5FD284638BDF8B5054616461F4666
:1026B000FFF7D2FF70B10024BC4206EB442128464C
:1026C00004D0FFF7B3FF28B10134F5E7BDE8F840C7
:1026D000FFF7D6BF2846FFF79AFD0020F8BD00F0AF
:1026E000CBBE00F0C9BE00F0C7BE0000014B012206
:1026F0001A70704754040020011D006801F0FCB9F5
:1027000010B504460175006801F0CAF9207D012169
:1027100002F045FD207D0121BDE8104002F050BDD2
:10272000006801F0CDB9FF21006801F054BA000043
:1027300037B5084B00250093074C134600680A463E
:102740002946257001F059FA2378002BFCD000208F
:1027500003B030BDED26080854040020006801F0E5
:102760003ABA000037B5074B00250093064C1346D4
:1027700000682A46257001F040FA2378002BFCD02F
:1027800003B030BDED2608085404002000F074BEEC
:10279000F0B585B005460C460A9F0B989DF83010A1
:1027A00000263F2C2AD81AB105EB441ECEF8A420EF
:1027B00062011BB105EB020ECEF8AC3017B1AB18BD
:1027C000C3F8A87010B1AB18A3F89C002A4482F893
:1027D0009E100A39092911D80023611C1A46C9B272
:1027E0002846029601960096FFF7D2FF0234002297
:1027F000E4B21346174610461146D2E705B0F0BDC5
:102800002DE9F04F00260546374685B00024F1B289
:102810000297019700972346B04A28460136FFF7F2
:10282000B7FF402EF2D1AE4F02262346214628465E
:10283000029401940094AB4AFFF7AAFF0296009716
:1028400028460194A84BA94A0121FFF7A1FF02964F
:102850000097314628460194A34BA54AFFF798FFFD
:1028600002960097284601949F4BA24A0321FFF746
:102870008FFF0097A04FDFF84493029628460194FB
:10288000994B9E4A0421FFF783FF4FF00B080097F6
:102890002846029401949A4B9A4A0521FFF778FF43
:1028A000CDF80880CDF8009028460194964B974AC1
:1028B0000621FFF76DFFDFF808A301230293CDF88F
:1028C000009028460194904B914A0921FFF760FF40
:1028D000DFF8F0B2CDF800A02846029401948D4BA9
:1028E0008D4A0A21FFF754FFCDF800A041464FF072
:1028F0000C0A284602940194864B884AFFF748FF49
:10290000CDF808A0514628460194CDF800B07E4B82
:10291000834AFFF73DFF0097284602940194814BBC
:10292000814A0F21FFF734FFCDF808A02846019413
:10293000CDF800B0744B7D4A1021FFF729FFCDF888
:102940000880CDF80090284601946F4B784A1321F7
:10295000FFF71EFF0097284602940194714B754AB9
:102960001621FFF715FF0097284602940194644B47
:10297000714A1721FFF70CFF009728460294019433
:102980005F4B6E4A1821FFF703FF6D4B02960093D1
:10299000284601945C4B6B4A1921FFF7F9FE6A4BFC
:1029A0000296009328460194574B684A1A21FFF774
:1029B000EFFE674BCDF80880009328460194524BF8
:1029C000644A1B21FFF7E4FE634ECDF80880CDF882
:1029D0000090284601944C4B604A1E21FFF7D8FE18
:1029E0000097284602940194454B5D4A2121FFF748
:1029F000CFFE00962846029401945A4B5A4A22214F
:102A0000FFF7C6FE0096284602940194574B584A99
:102A10002221FFF7BDFE574BDFF8ACA100932846FB
:102A2000DFF8A89102940194534B544A2421FFF7F4
:102A3000AFFEDFF89C81284602940194CDF800A0F7
:102A40004F4B504A2521FFF7A3FE4F4F28460294D3
:102A50000194CDF800904D4B4D4A2621FFF798FE8A
:102A60004C4E284602940194CDF800804A4B4B4AC4
:102A70002721FFF78DFE2846029401940097484BCA
:102A8000484A2821FFF784FE2846029401940096C4
:102A9000454B464A2921FFF77BFE284602940194C4
:102AA000CDF800A0364B424A2A21FFF771FE284696
:102AB00002940194CDF80090344B3E4A2B21FFF74D
:102AC00067FE284602940194CDF80080324B3A4AC2
:102AD0002C21FFF75DFE28467CE000BF5501002059
:102AE000CE0000206F01002047010020E4000020FC
:102AF00080010020C8010020AE010020F600002067
:102B00002701002091000020A80100209F00002044
:102B10004C0000200B010020070100203F01002095
:102B20005D010020690100205E00002059010020A5
:102B30009601002001020020FD0000201501002068
:102B40003001002070000020F601002089000020E4
:102B50009A010020CA0000202D010020E000002082
:102B600048000020B60000201101002001010020D3
:102B7000590000208F000020F000002039010020C3
:102B800084010020C2000020B0000020F0010020DD
:102B9000C10100201C01002074010020AA000020B7
:102BA00062000020680000207D00002061010020FC
:102BB0004D010020A300002053000020D70000207A
:102BC0008A010020E800002079000020EA010020AE
:102BD000750000200294019400971C4B1C4A2D2183
:102BE000FFF7D6FD2846029401940096194B1A4A25
:102BF0002E21FFF7CDFD194B284600930294019436
:102C0000174B184A2F21FFF7C3FD174B2846009397
:102C100002940194154B164A3021FFF7B9FD154B6C
:102C20002846009302940194134B144A3121FFF774
:102C3000AFFD134B029400930194124B124A3221C0
:102C40002846FFF7A5FD05B0BDE8F08F6200002023
:102C5000DC0100207D000020CF010020BC0000200E
:102C6000B4010020BD0100207A010020A201002053
:102C700083000020D7010020210100208D010020C9
:102C8000BA010020E4010020950000203F2910B582
:102C90000ED800EB4114D4F8A0304BB1186800F006
:102CA00087FED4F8A00000F083FE0023C4F8A03013
:102CB00010BD00F0E1BB00F0DFBB00F0DDBB0000A9
:102CC00038B50546054B00240360E1B228460134BF
:102CD000FFF7DCFF402CF8D1284638BDF87908080A
:102CE00010B50446FFF7ECFF204640F6743102F0C1
:102CF0001FFB204610BD70B50446D0F8CC090E4627
:102D000020B1BDE8704003689B681847D4F8D0092B
:102D100018B9D4F8D409B8B90CE094F8501A02F0F4
:102D200087F8D4F8D009314603689B689847012892
:102D3000054601D0002525E00146D4F8D00902F06F
:102D40007BF80028E5D11DE004F6DC1100F0D4FE8C
:102D500094F9D809002803DB002180B202F030FA90
:102D60003146D4F8D40900F036FF94F9D809002888
:102D700003DB012180B202F023FAD4F8D40900F079
:102D80009FFE0125284670BD70B50446D0F8CC09D9
:102D90000E4608B101F0C8FFD4F8D059BDB128469D
:102DA00002F040F87F2E86BF102384F8503A84F852
:102DB000506A94F8501AD4F8D00902F039F8D4F8CF
:102DC000D00902F03DF8B0FA80F0400970BDD4F8A7
:102DD000D409C8B100F064FE94F9D809C4F8E469D4
:102DE00000284FF0010684F8E05984F8E86984F877
:102DF000E95909DB314680B202F0D1F994F9D809DA
:102E0000314680B202F0DCF90A2001F0D5F9012048
:102E100070BD002200F6742180F8702BC0F8CC2918
:102E2000C0F8D029C0F8D42980F8C82980F8642BCC
:102E3000C0F8681B80F8822000F6EC2180F8812021
:102E400080F8802080F8422080F8412080F84020DF
:102E500080F83C2080F83B2080F83A2080F87E20E3
:102E600080F87D2080F87C2080F87F20C2870022B7
:102E7000C0F86C1B826742670267C2668266426660
:102E80000266C26582644264FFF7BABC2DE9F04174
:102E90000446B34B002514260360884645608560D0
:102EA00085818573324629460F3003F049FA324650
:102EB0002946A4F8235084F8255004F1260003F095
:102EC0003FFA582384F87C3084F87D3084F87E30D3
:102ED00029464FF4006204F1900003F031FA4FF4F8
:102EE0007A73A4F89C30A4F8BC30A4F8DC30A4F8C1
:102EF000FC30A4F81C31A4F83C31A4F85C31A4F8EF
:102F00007C31A4F89C31A4F8BC31A4F8DC31A4F8DD
:102F1000FC31A4F81C32A4F83C32A4F85C32A4F8CA
:102F20007C32A4F89C32A4F8BC32A4F8DC32A4F8B9
:102F3000FC32A4F81C33A4F83C33A4F85C33A4F8A6
:102F40007C33A4F89C33A4F8BC33A4F8DC33A4F895
:102F5000FC33A4F81C34A4F83C34A4F85C34A4F882
:102F60007C34A4F89C34A4F8BC34A4F8DC34A4F871
:102F7000FC34A4F81C35A4F83C35A4F85C35A4F85E
:102F80007C35A4F89C35A4F8BC35A4F8DC35A4F84D
:102F9000FC35A4F81C36A4F83C36A4F85C36A4F83A
:102FA0007C36A4F89C36A4F8BC36A4F8DC36A4F829
:102FB000FC36A4F81C37A4F83C37A4F85C37A4F816
:102FC0007C37A4F89C37A4F8BC37A4F8DC37A4F805
:102FD000FC37A4F81C38A4F83C38A4F85C38A4F8F2
:102FE0007C38604B3246C4F890382946002304F6FA
:102FF0009800C4F894385C4F03F0A2F93246294691
:1030000004F6AC0003F09CF904F60C1629463F22A6
:1030100004F50C6003F094F90FCFC4F80059C4F81C
:103020000459C4F808590FC697E80300502286E8EF
:103030000300294604F6241003F082F94B4B4C4E52
:10304000C4F824394B4B2946C4F828394A4BC4F8F4
:103050006C69C4F82C39494B3C22C4F83039484BD0
:1030600004F67410C4F83439464BC4F83839464B6A
:10307000C4F83C39454BC4F84039454BC4F8443991
:10308000444BC4F84839444BC4F84C39434BC4F85A
:103090005039434BC4F85439424BC4F85839424B69
:1030A000C4F85C39414BC4F86039414BC4F8643909
:1030B000404BC4F8683903F043F93F4B3F4AC4F82A
:1030C00074393F4BC4F8DC29C4F878393D4B3E4A8B
:1030D000C4F87C393D4BC4F8E429C4F880393C4B32
:1030E0000122C4F884393B4B2046C4F888393A4B56
:1030F000C4F8A069C4F88C39384B84F8C959C4F8AD
:103100009039374B84F8E059C4F89439354B84F83A
:10311000E829C4F89839344B84F8E959C4F89C3943
:10312000324B84F8725AC4F8B039C4F8B439C4F8D0
:10313000B839C4F8BC39C4F8C039C4F8C439FF235D
:1031400084F8D83984F8713A84F8735A84F8645B47
:10315000FFF75FFEC4F8CC892046BDE8F08100BFD0
:10316000F87908089A991940D8790808087A08085F
:10317000507A08080C7A0808107A0808147A0808A7
:10318000187A08081C7A0808207A0808247A08089F
:10319000287A08082C7A0808307A0808347A08084F
:1031A000387A08083C7A0808407A0808447A0808FF
:1031B000487A08084C7A0808547A0808A47708085E
:1031C000587A08085C7A080840420F00607A0808BC
:1031D000647A0808687A08086C7A0808707A08081F
:1031E000747A0808787A08087C7A08080094357799
:1031F00000F064BE00F040B910B5044600F030F9AC
:10320000204610BD7FB53B22428047F22F5282807C
:103210004FF6FF72C280254A0023037003721370B9
:1032200053709370D370137103780446002B3AD116
:1032300001231F4E1F4D03701F4B6946132000933F
:103240000396029501F086FC6846FDF7A9F81B4B32
:1032500069461A2000930396029501F07BFC6846AC
:10326000FDF79EF8164B69462120009303960295C0
:1032700001F070FC6846FDF793F8124B6946242074
:1032800000930396029501F065FC6846FDF788F807
:103290000D4B6946262000930396029501F05AFCD7
:1032A0006846FDF77DF8204604B070BD900400200C
:1032B0004F02080853020808193308084133080868
:1032C0006933080891330808B933080870B500F06D
:1032D000D3F80C4C0C4B0D4E18600D4D2046FFF7EB
:1032E00091FF20460B4C3246294602F013F8204647
:1032F000FFF788FF324629462046BDE8704002F0BD
:1033000009B800BF6C04002068040020C802002037
:10331000F93108085804002010B50121064801F0D1
:103320000DFF40B10121044801F013FFBDE810403A
:10333000024B1B68184710BD000400407C040020AD
:1033400010B50121064801F0F9FE40B10121044801
:1033500001F0FFFEBDE81040024B5B68184710BD4E
:10336000000800407C04002010B50121064801F04F
:10337000E5FE40B10121044801F0EBFEBDE810403C
:10338000024B9B68184710BD000C00407C040020D5
:1033900010B50121064801F0D1FE40B101210448D9
:1033A00001F0D7FEBDE81040024BDB68184710BDA6
:1033B000001000407C04002010B50121064801F0F7
:1033C000BDFE40B10121044801F0C3FEBDE810403C
:1033D000024B1B69184710BD001400407C040020FC
:1033E00073B5437A0646042B1CD8DFE803F00308C4
:1033F0000D1217001D238DF80430134C12E01E230C
:103400008DF80430114C0DE032238DF80430104C4F
:1034100008E036238DF804300E4C03E037230E4CC1
:103420008DF804300021204601F07CFE002501A823
:103430008DF8075001F070FD204601F0BDFD737A54
:10344000064AD55402B070BD000400400008004098
:10345000000C0040001000400014004090040020C8
:10346000037A10B504460BB1FFF7BAFF00232372AD
:1034700010BD00F001B8000008B5024B1B681B68C6
:10348000019308BDB001040808B5024B1B689B6896
:10349000019308BDB001040808B5024B1B68DB6846
:1034A000019308BDB001040808B5024B1B681B69F5
:1034B000019308BDB001040808B5024B1B685B69A5
:1034C000019308BDB001040808B5024B1B681B6CD2
:1034D000019308BDB001040808B5024B1B681B68C6
:1034E000019308BDB401040808B5024B1B685B6971
:1034F000019308BDB401040808B5024B1B68DB69E1
:10350000019308BDB401040808B5024B1B681B6A8F
:10351000019308BDB401040808B5024B1B685B6A3F
:10352000019308BDB401040808B5024B1B689B6AEF
:10353000019308BDB401040808B5024B1B689B6BDE
:10354000019308BDB401040808B5024B1B68DB6B8E
:10355000019308BDB401040808B5024B1B685B6801
:10356000019308BD9C01040808B5024B1B689B68C9
:10357000019308BD9C01040808B5024B1B681B6938
:10358000019308BD9C01040808B5024B1B685B69E8
:10359000019308BD9C01040808B5024B1B68DB6958
:1035A000019308BD9C01040808B5024B1B689B6D84
:1035B000019308BD9C01040808B5024B1B685B68B9
:1035C000019308BDD001040808B5024B1B689B6835
:1035D000019308BDD001040808B5024B1B681B69A4
:1035E000019308BDD001040808B5024B1B685B6954
:1035F000019308BDD001040808B5024B1B685B6C41
:10360000019308BDD001040808B5024B1B689B6CF0
:10361000019308BDD001040808B5024B1B68DB6CA0
:10362000019308BDD001040808B5024B1B685B6D0F
:10363000019308BDD001040808B5024B1B68DB6E7E
:10364000019308BDD001040808B5024B1B689B69B3
:10365000019308BDC401040808B5024B1B685B6AEE
:10366000019308BDC401040808B5024B1B689B6A9E
:10367000019308BDC401040808B5024B1B68DB6A4E
:10368000019308BDC401040808B5024B1B681B6BFD
:10369000019308BDC401040808B5024B1B685B6BAD
:1036A000019308BDC401040808B5024B1B689B6B5D
:1036B000019308BDC401040808B5024B1B681B6CCC
:1036C000019308BDC401040808B5024B1B68DB6CFC
:1036D000019308BDC401040808B5024B1B68DB68F0
:1036E000019308BDAC01040808B5024B1B689B6937
:1036F000019308BDAC01040808B5024B1B68DB69E7
:10370000019308BDAC01040808B5024B1B681B6A95
:10371000019308BDAC01040808B5024B1B685B6A45
:10372000019308BDAC01040808B5024B1B689B6AF5
:10373000019308BDAC01040808B5024B1B68DB6AA5
:10374000019308BDAC01040808B5024B1B681B6B54
:10375000019308BDAC01040808B5024B1B685B6B04
:10376000019308BDAC01040808B5024B1B681B6C33
:10377000019308BDAC01040808B5024B1B68DB6B64
:10378000019308BD2000060808B5024B1B681B68A2
:10379000019308BD1C00060808B5024B1B685B6856
:1037A000019308BD1C00060808B5024B1B681B6985
:1037B000019308BD1C00060808B5024B1B685B6935
:1037C000019308BD1C00060808B5024B1B689B69E5
:1037D000019308BD1C00060808B5024B1B68DB6995
:1037E000019308BD1C00060808B5024B1B681B6A44
:1037F000019308BD1C00060808B5024B1B681B6836
:10380000019308BDA401040808B5024B1B685B685E
:10381000019308BDA401040808B5024B1B685B694D
:10382000019308BDA401040808B5024B1B689B69FD
:10383000019308BDA401040808B5024B1B68DB6AAC
:10384000019308BDA401040808B5024B1B68DB6C9A
:10385000019308BDA401040808B5024B1B685B6D09
:10386000019308BDA401040808B5024B1B689B6DB9
:10387000019308BDA401040808B5034B1B68D3F8E5
:103880009030019308BD0000A401040808B5034B63
:103890001B68D3F89C30019308BD0000A401040804
:1038A00008B5024B1B685B68019308BDC80104089A
:1038B00008B5024B1B689B68019308BDC80104084A
:1038C00008B5024B1B68DB68019308BDC8010408FA
:1038D00008B5024B1B681B69019308BDC8010408A9
:1038E00008B5024B1B685B69019308BDC801040859
:1038F00008B5024B1B689B69019308BDC801040809
:1039000008B5024B1B68DB69019308BDC8010408B8
:1039100008B5024B1B681B6A019308BDC801040867
:1039200008B5024B1B681B6B019308BDC801040856
:1039300008B5024B1B685B6B019308BDC801040806
:1039400008B5024B1B689B68019308BDCC010408B5
:1039500008B5024B1B68DB68019308BDCC01040865
:1039600008B5024B1B685B69019308BDCC010408D4
:1039700008B5024B1B681B6A019308BDCC01040803
:1039800008B5024B1B681B6B019308BDCC010408F2
:1039900008B5024B1B68DB6B019308BDCC01040822
:1039A00008B5024B1B681B68019308BDA001040801
:1039B00008B5024B1B685B68019308BDA0010408B1
:1039C00008B5024B1B689B68019308BDA001040861
:1039D00008B5024B1B681B69019308BDA0010408D0
:1039E00008B5024B1B689B69019308BDA001040840
:1039F00008B5024B1B68DB69019308BDA0010408F0
:103A000008B5024B1B681B6A019308BDA00104089E
:103A100008B5024B1B685B6A019308BDA00104084E
:103A200008B5024B1B68DB6A019308BDA0010408BE
:103A300008B5024B1B681B6B019308BDA00104086D
:103A400010B5044B04460360C06808B1FFF7DCFD05
:103A5000204610BDF87A080810B50446FFF7F0FFBD
:103A60002046102101F064FC204610BD0068FFF7DD
:103A7000D3BD0068FFF7D8BD70B504460E46074BAE
:103A80000025036040F80C5FFFF7B6FD3046267155
:103A9000FFF732FDA560204670BD00BFF87A080828
:103AA00038B5054600F10C042046FFF7DFFF287902
:103AB0004FF6FF71FFF710FD2046FFF7DAFF38BD24
:103AC00008B50C30FFF7D5FF08BD0000400830B541
:103AD000186000241868E5B2884206D90134082C21
:103AE00002D040081860F5E70725024B5B5D1370B4
:103AF00030BD00BF007B08082DE9F04380468FB041
:103B00000C300E46FFF7B2FF98F804401422002153
:103B100009A802F015FC0B232046002209A9ADF8E4
:103B20002430FFF7F9FC9DF82D404CB19DF82C5046
:103B30002DB90C9F9DF834909DF8354003E000248A
:103B4000A1462746012533790DB1002B3FD19D4277
:103B50000BD1B268BA4208D18DF820908DF821407F
:103B6000BDF82010B289914231D03BB1002398F8C2
:103B70000400019300931A46012116E08DF80F30DE
:103B8000B16804AB0DF10F020A98FFF79FFF31797E
:103B900005B1C9B9A9420BD000240194747B337BD1
:103BA0009DF80F2098F804000094FFF7CDFC0EE07C
:103BB000B368BB42F0D38DF820908DF82140BDF85A
:103BC0002020B3899A42E7D1049BBB42E4D1002074
:103BD0000FB0BDE8F08370B505460E4600F10C0449
:103BE0002046FFF743FF31462879FFF77DFC054665
:103BF0002046FFF73EFFE8B270BD2DE9F0430446D2
:103C00000F469046994687B00E9E00F10C05284657
:103C1000FFF72CFF207900964B4642463946FFF7C6
:103C200083FC3EB902A92079FFF786FC9DF8143089
:103C3000DB07F7D42846FFF71CFF07B0BDE8F08389
:103C40000079FFF761BC10B50446006818B1FFF7B2
:103C5000AFFE0023236010BD38B5B1F904300D4626
:103C600083800B4653F8062F0446C0F806209B8835
:103C70004381FFF7E8FF2B6813B1236000232B601B
:103C8000204638BDB1F9043010B50BB90A689AB1B5
:103C90000C685CB1A288012A03D0042A06D1022252
:103CA00005E0A4898A710B814C8105E004220B8117
:103CB0004FF6FF738A714B8151F8063F03608B8882
:103CC000838010BD30B5044685B0084611461A46BB
:103CD0000023FFF7A9FD00230193ADF808308DF80C
:103CE0000A304FF6FF73094D01A9ADF80C002846C4
:103CF000ADF80E30FFF7B0FF01A8FFF7A4FF204694
:103D00002946FFF7BFFF204605B030BD98040020CC
:103D10004FF6FF7310B5084C00202060A080A07102
:103D200020816381FFF770FD2046BDE81040034A03
:103D3000034901F0EFBA00BF98040020C802002038
:103D4000B700080810B504460068FFF731FE2046AA
:103D500010BD10B50446006808B1FFF729FE002326
:103D60002360A360636010BD38B504460D4600684B
:103D70000131FFF725FE10B184E82100012038BD94
:103D800010B50368044613B143688B4207D220463E
:103D9000FFF7EAFF20B1A3680BB922681370012076
:103DA00010BD70B50E46114604461546FFF7E8FFF4
:103DB00018B92046FFF7CDFF09E02A463146A56035
:103DC000206802F0B2FA2268A3680021D15420468C
:103DD00070BD38B5002304460360436083600373FD
:103DE0000D4639B1084603F01DF829460246204623
:103DF000FFF7D7FF204638BD38B505460C4641B120
:103E0000084603F00FF8214602462846FFF7C9FF8F
:103E100001E0FFF79EFF284638BD70B504460E4608
:103E200009B9002070BD6AB18368D5182946FFF72B
:103E3000A7FF0028F5D02068A3683146184402F097
:103E4000B9FAA560012070BD07B500238DF80410F4
:103E5000012201A98DF80530FFF7DFFF03B05DF8FF
:103E600004FBF8B506460D468F180024BD420CD061
:103E7000336815F8011B9B6830469847002801DB22
:103E80000444F3E7002C08BF04462046F8BD08B5FB
:103E9000FDF7DCFF08BD03689B68184708B5FDF710
:103EA000D5FF08BD38B50D210546FFF7F4FF0A21FF
:103EB00004462846FFF7EFFF204438BD38B50546D5
:103EC000FDF7C4FF04462846FFF7ECFF204438BD49
:103ED000012A98BF0A2230B50B468BB000218DF81D
:103EE00024100DF12304B3FBF2F505FB1233DBB212
:103EF000092B94BF30333733DBB2214604F8013944
:103F00002B46002DEFD1FDF7A1FF0BB030BD0CB457
:103F10002DE9F04387B000AF07F1380454F8049B53
:103F200005460E4623464A461421381D3C60FFF7DD
:103F30006FFD132805D8391D2846FDF787FF044675
:103F400013E000F1080323F00703E846ADEB030D8F
:103F5000411C23464A4668463C60FFF759FD6946C6
:103F60002846FDF773FF0446C5461EB12846FFF7F5
:103F700099FF044420461C37BD46BDE8F04302B01B
:103F8000704738B5046805467CB16368013B6360DF
:103F90005BB9236820469B689847A368013BA360F0
:103FA0001BB923682046DB689847284638BD0B6854
:103FB000036013B15A6801325A607047014A024BDC
:103FC0001A6070477E7B0808A404002008B5002012
:103FD000FFF7D6FC28B1FFF7C3FC80F00100C0B2A8
:103FE00008BD012008BD000037B50E4B04461B6814
:103FF00002A819440C4B1B68194440F8041D02F038
:104000008DF802F03DF8054602F00CFF002328442D
:1040100000F8013C29462046FFF7DBFE204603B0AE
:1040200030BD00BFB0040020AC0400202DE9F047F3
:10403000A4B014AC07468946204611463F221D46CF
:1040400002F00DFF002320468DF88F3002F0EAFECB
:10405000804625B9244903A802F0ACF913E03C21BD
:1040600095FBF1F2002AB8BF524292FBF1F301FB3B
:1040700013224FF46163009295FBF3F31B4A102166
:1040800003A8FFF7B5FC25462E1B08F1FF3AB24501
:104090001BD92B78252B16D16B787A2B13D103A83B
:1040A00002F0C0FE80463044C6EB0A02A91C204440
:1040B00002F03BF9424603A9284602F036F92046B1
:1040C00002F0B0FE80460135DEE74B462246322143
:1040D00007A802F0F3F907A93846FFF77AFE384639
:1040E00024B0BDE8F08700BFC9810808E67B080856
:1040F000F7B5054601921C4613B9124B1C682CB14A
:10410000114B2046196802F04BF920B90199284655
:10411000FFF76AFF13E00D4F019A3B680C4E1A44FB
:10412000336802A8134440F8043D01F0F7FF3A68F1
:1041300033680146134428462246FFF777FF284696
:1041400003B0F0BDA80400200C020020B004002041
:10415000AC04002010B50020FFF726FA044668B929
:10416000FFF74AFB01280BD12046FFF77DFB38B94A
:10417000FFF72CFF30B9FFF7E3FBF9E7012010BD93
:10418000002010BDFFF722FF0020FFF70DFA0030DE
:1041900018BF012010BD08B5FFF7DCFFBDE80840DF
:1041A000FFF7FAB9024B1A68024B1A60704700BF5A
:1041B0000C020020A80400200021FFF72DBB10B541
:1041C0000446FCF7EDF8204610BD13B50B46044637
:1041D00003C88DE8030093E8030084E803009DE82A
:1041E000030083E8030002B010BD00000348002371
:1041F0008360034A034901F08DB800BFB804002072
:10420000C8020020BF41080808B5184B33B100F0C0
:1042100027FC03681B69984700281EDC144B33B148
:1042200000F088FD03681B699847002818DC114BD3
:104230000BB1AFF30080104B0BB1FCF79DF90F4BA6
:104240000BB1AFF300800E4B7BB100F045FC03686F
:104250001B699847002806DC08BDAFF30080DDE746
:10426000AFF30080E3E7AFF3008008BD000000007B
:1042700000000000000000007905080800000000B0
:104280000000000008B5FFF7BFFFFFF77DF9014B05
:10429000186008BD780900200248034A0349121A31
:1042A00002F043B80040024004400240A0820808E7
:1042B00007B5002300931A466FF07701FFF7E6FA7F
:1042C00003B05DF804FB000007B543880A2B08D053
:1042D000502B09D1094B1B683BB103B05DF804EBCF
:1042E0001847FFF7E5FF06E0002300931A466FF03A
:1042F0007701FFF7CBFA03B05DF804FBC804002098
:1043000038B5104C104D2368AB42104B0CBF012246
:1043100000221A7002D0FFF7BFFF2560FFF71CF9DB
:10432000044602F015F80A4B13B12046AFF30080A3
:1043300000210748FFF72CFBBDE838400021054865
:10434000FFF79ABA004002401E1C279ACC040020B6
:1043500000000000C942080870470020704710B5EF
:104360000446102100F0E4FF204610BD08B508B156
:10437000FFF7F5FF08BD002202604FF69C728280B5
:1043800010B5B1F9044084808A8002680C6804602A
:104390000A6010BD10B504460068FFF709FB20460F
:1043A00010BD38B5C468F4B12378022B03D104F1F1
:1043B0000C00FFF7EFFF656835B12846FBF7F0FF0B
:1043C0001021284600F0B4FFA56835B12846FBF758
:1043D000E7FF1021284600F0ABFF2046BDE838403B
:1043E000142100F0A5BF38BD13B5044691E80500BF
:1043F00000234B600B602060626001A80193009372
:10440000FFF7BFFD204602B010BDF7B50C460646CB
:104410000F4654F8043B02AD45F8083D214601A87B
:10442000FFF7C5FD29463046FFF7DEFF01A8FFF77D
:10443000A8FD2046FFF7A5FD3846082100F078FFCB
:10444000304603B0F0BD000038B5002304460360D9
:1044500010200D46FBF723FE28B101234360836043
:10446000024BC56003602060204638BD187C0808F8
:10447000826810B50AB900F06EFFC368BDE810404D
:10448000184708B5006800F11001FFF7F1FF08BDFB
:10449000826810B50AB900F05EFFC368BDE810403D
:1044A000184708B5006800F11001FFF7F1FF08BDDB
:1044B00038B5002383608B6804460D462BB1022279
:1044C0009847EB68E360AB68A360204638BD000006
:1044D000F0B589B004686846FFF74DFF4FF002025F
:1044E00000238DF80830D4E84F3F002B03D1C4E8F7
:1044F000412F0029F7D102D08DF8083063E014F184
:104500000C0503D069462846FFF735FFBFF35F8FE0
:1045100001236370BFF35F8F04F10803002053E8A9
:10452000006F43E80002002AF9D1BFF35F8F002E2D
:1045300049D0FFF789F920B129463046FFF798FFA7
:104540003AE0314602A8FFF7B3FFE068B4F9105033
:1045500008B101F037FF06901020ADF81C50FBF7B2
:104560009EFD0546E8B1002787601820FBF797FD00
:10457000044688B10146876002A8FFF726FE049B27
:10458000A268A360059B0492E26806A9E36004F1B7
:1045900010000592FFF7EFFE0D4B2C60EB600D4B0A
:1045A000AB6006A8FFF7F6FE02A8FBF7F9FE0022B3
:1045B00029460948FFF750F93046FBF7F1FE102174
:1045C000304600F0B5FE6846FFF7E4FE09B0F0BDE6
:1045D00083440808F9460808814D08082DE9F04F82
:1045E0008BB006460F46904699469DF850A0FFF7BF
:1045F000B7F907AD834630BB4FF62E73059005A97A
:104600002846ADF81830FFF7B6FE1420FBF747FD3B
:10461000044658B10223037001234370C0F804B06C
:10462000C0F808B029460C30FFF7A5FE30462146F9
:1046300040F8044BFFF708FF2846FFF7ABFE05A83C
:10464000FFF7A8FE52E000240C2314206C60AC603D
:104650000793FBF724FD014618B1047044704460D1
:10466000846004A80391FFF7EFFE224B0820089313
:10467000FBF715FD044628B1039B04A940F8043B51
:10468000FFF795FC00955FFA8AF34A4641463846A3
:104690000994FFF76DF920B9039B5B7803F0FF02E3
:1046A00083B1039B04A906A80593FFF780FC05A925
:1046B0003046FFF799FE06A8FFF763FC04A8FFF752
:1046C00060FC13E04FF69C7305A903A80592ADF8B2
:1046D0001830FFF7FDFE05A8FFF75CFE05A8099955
:1046E000FFF793FE06A8FFF74CFCDAE730460BB065
:1046F000BDE8F08F69480808022AF8B5044606D0DC
:10470000032A17D0012A22D10B6803601FE018206A
:104710000E68FBF7C4FC054650B13146FFF7C8FEF2
:104720003069B6F9147008B101F04CFE2861AF820F
:1047300025600CE0046854B104F11000FFF72AFE74
:104740002046FBF72DFE1821204600F0F1FD002049
:10475000F8BD38B5002383608B6804460D462BB145
:1047600002229847EB68E360AB68A360204638BD3F
:10477000022A70B5044606D0032A11D0012A18D1A6
:104780000B68036015E014200E68FBF788FC0546F3
:1047900020B13146FFF7DDFF337C2B74256008E044
:1047A000046834B12046FBF7FBFD1421204600F0DD
:1047B000BFFD002070BD0000F0B50C46BFF35F8F59
:1047C00087B0002350E8006F40E80032002AF9D19A
:1047D000BFF35F8F002E3FD01846FFF735F807462E
:1047E00020B121463046FFF753FE2EE0314601A8A6
:1047F000FFF7AFFF237810208DF81430FBF74FFC44
:104800000546D0B187601420FBF749FC044678B117
:104810008760014601A8FFF7D8FC039BA268A3604C
:10482000049B0392E268E3609DF8143004922374C1
:104830000A4B2C60EB600A4BAB6001A8FBF7B0FDA4
:10484000002229460748FFF707F83046FBF7A8FD86
:104850001021304600F06CFD07B0F0BDA3440808FD
:1048600071470808814D080830B5044685B00D46EB
:1048700068461146FFF7C9FD7CB124B228460DB148
:1048800001F0A0FD029002A96846ADF80C40FFF7C8
:104890001FFE02A8FFF77EFD1DE04FF00102009809
:1048A0008DF80840D0E84F3FA34203D1C0E8412F24
:1048B0000029F7D102D08DF808300CE010F10C017E
:1048C0004FF0010318BF0373BFF35F8F043000F88C
:1048D000033CFFF771FF01A8FFF753FB05B030BDA4
:1048E000704710B50446082100F022FD204610BD97
:1048F000F8B50F4600F10806051D002416F8011D45
:104900000A223846FFF7E4FAAE42044407D0002CEE
:10491000F4D02E213846FFF7BEFA0444EEE72046D5
:10492000F8BD0000024A026000224260704700BFEA
:10493000347C0808024A02600A684260704700BF7F
:10494000347C0808014A416002607047347C0808E2
:1049500010B59DF8084044EA032343EA024242EAC4
:104960000161416010BD000037B5044D05609DF840
:1049700018500095FFF7ECFF03B030BD347C0808F9
:1049800041747047704708B50021007CFEF71CFF9A
:1049900030EA200028BF4FF0FF3008BD08B50121E4
:1049A000007CFEF711FF30EA200028BF4FF0FF30F7
:1049B00008BD08B5007CFEF7FFFE20EAE07008BDE8
:1049C00008B5007CFEF7F0FE20EAE07008BD007C30
:1049D000FEF70ABF10B50446142100F0A9FC2046DA
:1049E00010BD38B50446007C0D46FEF7E5FE0028F4
:1049F00001DC607C28B12946207CFEF7EDFE20EA30
:104A0000E07038BD10B50446002363604FF47A733C
:104A1000A360054B0846236001232174637411468B
:104A2000FEF7B2FE204610BD487C08080022007C3C
:104A3000FEF7B2BE10B504461422002101F080FC3E
:104A4000054B20466360054BE36040F20113238170
:104A50008123238210BD00BF55050020D40400200F
:104A600030B50E4D87B001A8FFF7E4FF296811F0BB
:104A7000010410D12846FBF716FB60B101AA2146BC
:104A80000748FFF7BFFF2846FBF712FB054A064918
:104A9000034800F03FFC024807B030BDD0040020BE
:104AA00058060020C80200208549080810B50446B1
:104AB0001422002101F044FC054B20466360054BA5
:104AC000E36040F2011323818123238210BD00BFE4
:104AD000080700207006002010B50E4C86B001A813
:104AE000FFF7E4FF2368DB0710D42046FBF7DBFA6F
:104AF00060B101AA01210848FFF784FF2046FBF7B7
:104B0000D7FA064A0649044800F004FC024806B0F9
:104B100010BD00BF6C060020F4060020C802002073
:104B200085490808826810B50AB900F014FCC3680A
:104B3000BDE81040184738B5002383608B680446F1
:104B40000D462BB102229847EB68E360AB68A36087
:104B5000204638BD7FB5124B044610200E46009308
:104B6000FBF79DFA054610B13146FFF7E4FF00233D
:104B7000204602AA6946019502930393FEF7A4FC1E
:104B8000039C051C18BF012534B12046FBF708FC27
:104B90001021204600F0CCFB284604B070BD00BFB9
:104BA000254B0808002211464068FEF791BE2DE90A
:104BB000FF41002604AC054610468846174644F8D7
:104BC000046D02F02FF9009681B2D8F80430224625
:104BD0003846FEF7D1FD20B131462846FFF7B2FE38
:104BE00003E021462846FFF7A5FE284604B0BDE8AD
:104BF000F081002211464068FEF78ABE002211466D
:104C00004068FEF795BE00224068FEF789BE00228C
:104C100081F001014068FEF773BE00231A46194671
:104C20004068FEF765BE00231A4619464068FEF745
:104C300057BE002211464068FEF73ABE002202210C
:104C40004068FEF73DBE00231A464068FEF728BEC6
:104C500038B5084C28252A460021204601F070FB73
:104C60004FF0FF336360044B04225A60034A2580EF
:104C70001A6038BD140800200C080020787C080851
:104C80004174704708B5007CFEF716FD20EAE0701D
:104C900008BD08B5007CFEF7E7FC20EAE07008BD1F
:104CA00008B5007CFEF7F0FC30EA200028BF4FF08A
:104CB000FF3008BD08B5007CFEF7DEFC30EA2000BE
:104CC00028BF4FF0FF3008BD007CFEF7E5BC70B593
:104CD000457C04460E4625B9007CFEF7EDFC002815
:104CE00005DD3146207CBDE87040FEF7B5BC2846A6
:104CF00070BD000010B504460846114600226260EF
:104D00004FF47A72A260054A207422600122627414
:104D10001A46FEF799FC204610BD00BFAC7C08087F
:104D20000023007CFEF7D0BC0022FFF7F9BF007C17
:104D3000FEF7BABC38B50C4D296811F0010411D149
:104D40002846FBF7B0F968B1084A2146084B0948E4
:104D5000FFF7D0FF2846FBF7ABF9074A074905489C
:104D600000F0D8FA034838BDD4080020D808002045
:104D7000500800203C080020C8020020310208082A
:104D800010B5836804460BB900F0E5FAC36898478C
:104D9000A3681BB103222146204698472046BDE860
:104DA0001040102100F0C4BA7047F8B50646154609
:104DB0000C468F18BC4206D0336814F8011B9B6860
:104DC00030469847F6E72846F8BD0022007CFEF7FB
:104DD0009BBC0021007CFEF79FBC0021007CFEF7FD
:104DE000A3BC0021007CFEF7A7BC0021007CFEF7DD
:104DF000ABBC10B50446142100F09AFA204610BD51
:104E000010B50446002363604FF47A73A360044B2B
:104E10002174084623601146FEF7A6FC204610BD0B
:104E2000DC7C080800231A461946007CFEF754BCB7
:104E30000022007CFEF758BC0022007CFEF75CBC20
:104E40000121FFF7F9BF0021007CFEF785BC00239C
:104E50001A464068FEF724BD002202214068FEF792
:104E60002FBD002211464068FEF722BD00221146E8
:104E70004068FEF72DBD00231A4619464068FEF72C
:104E80002FBD00231A4619464068FEF731BD0022A7
:104E900081F001014068FEF733BD00224068FEF753
:104EA0003FBD002211464068FEF742BD0022114678
:104EB0004068FEF72DBD0000F0B5174687B00546E7
:104EC00004A8FFF72FFD002606AC384644F80C6D09
:104ED00001F0A8FF0A4B009681B25B682246384673
:104EE000FEF74AFC20B131462846FFF72BFD03E0D0
:104EF00021462846FFF71EFD284607B0F0BD00BF3B
:104F00000C080020024B034A1A6000225A607047C6
:104F10005C090020047D0808C27830B503781AB314
:104F2000174A4578D16803F16043C943C1F30221B0
:104F3000C1F10402D2B205FA02F2D4B20F220A4140
:104F4000817803F561430A4022431201D2B283F80B
:104F5000002303780122590903F01F0302FA03F327
:104F6000084A42F8213030BD5A09012103F01F03DD
:104F700001FA03F30349203241F8223030BD00BF6B
:104F800000ED00E000E100E0044B1A6A09B11043B3
:104F900001E022EA00001862704700BF00380240BA
:104FA000044B5A6A09B1104301E022EA000058623A
:104FB000704700BF0038024008B54D4B984206D1FB
:104FC00001210846FFF7ECFF0021012044E0B0F189
:104FD000804F06D101210846FFF7D6FF00210120AE
:104FE00081E0444B984206D101210220FFF7CCFF1B
:104FF0000021022077E0404B984206D10121042095
:10500000FFF7C2FF002104206DE03C4B984206D11F
:1050100001210820FFF7B8FF0021082063E0384B8A
:10502000984206D101211020FFF7AEFF0021102089
:1050300059E0344B984206D101212020FFF7A4FF0C
:10504000002120204FE0304B984209D1012102205D
:10505000FFF7A6FF00210220BDE80840FFF7A0BF30
:105060002A4B984208D101214FF48030FFF798FF76
:1050700000214FF48030EFE7254B984208D1012101
:105080004FF40030FFF78CFF00214FF40030E3E7CE
:10509000204B984208D101214FF48020FFF780FF78
:1050A00000214FF48020D7E71B4B984206D1012105
:1050B0004020FFF769FF0021402014E0174B984281
:1050C00006D101218020FFF75FFF002180200AE048
:1050D000134B98420BD101214FF48070FFF754FF1E
:1050E00000214FF48070BDE80840FFF74DBF08BDB8
:1050F000000001400004004000080040000C004097
:105100000010004000140040000401400040014035
:10511000004401400048014000180040001C0040CD
:1051200000200040038819B19BB243F0010303E063
:1051300023F001031B041B0C03807047038A828940
:1051400011EA030092B203D0114214BF01200020E3
:105150007047C94389B20182704710B5044600F018
:105160005BF8FEF76DFD28B1A4F10D03022B01D809
:10517000002010BD00F0A8F8FFF765FE08B1012C73
:10518000F6D9FFF7D7FDFFF7D2FD18B1A4F112034E
:10519000012BEDD92E2C8CBF0020012010BD2E2814
:1051A00038B504460D460AD8FF2908D0FFF7D5FFC9
:1051B00028B129462046BDE83840FEF765B938BD1C
:1051C00038B504460D46FEF767F9FF2810D00628CB
:1051D00004D84D2323FA00F0C30709D42046FFF773
:1051E000BCFF28B129462046BDE83840FEF75CB92F
:1051F00038BD10B50446FEF74FF90438C0B2012897
:1052000008D92046FFF7A9FF20B12046BDE810408D
:10521000FEF752B9002010BD38B50B4D296811F0CA
:1052200001040FD12846FAF73EFF58B1214607483E
:10523000FEF722FC2846FAF73BFF054A05490348DA
:1052400000F068F8014838BD7409002064090020A6
:10525000C8020020413A080813B5084C00231A463A
:10526000194600932046FFF77FFB2046044A054974
:1052700002B0BDE8104000F04DB800BF7C0900202E
:10528000C8020020E148080870B5044614252A46E3
:10529000094E002101F054F8258020253146A560F3
:1052A0002561284600F046F831466060284600F047
:1052B00041F8E060204670BD307D080810B5044616
:1052C000FFF7E2FF204610BD30B50E4D87B02968CC
:1052D00011F0010413D12846FAF7E5FE78B101A8D0
:1052E000FFF7ECFF01AA21460748FFF789FD284692
:1052F000FAF7DEFE054A0649034800F00BF80248BB
:1053000007B030BD8409002088090020C8020020B1
:10531000A94D08080B460146184600F0F1BE0000F2
:10532000024B1868BFF35F8F704700BF9C090020D5
:10533000FAF7B7BE00F000B810B5002814BF044655
:1053400001242046FEF72CFB20B9FFF7E9FF08B146
:105350008047F6E710BD08B5FEF762FB184B1A68E8
:10536000D1075CBF01221A60164B1A68D2075CBFD6
:1053700001221A60144B1A68D0075CBF01221A6020
:10538000124B1A68D1075CBF01221A60104B1A68D1
:10539000D2075CBF01221A600E4B1A68D0075CBFAF
:1053A00001221A600C4B1A68D1075CBF01221A60F7
:1053B0000A4B1A68D2075CBF01221A60704700BF0F
:1053C000BC090020B8090020B4090020B009002061
:1053D000AC090020A8090020A4090020A009002091
:1053E000244B1A68D0075CBF01221A60224B1A684E
:1053F000D1075CBF01221A60204B1A68D2075CBF3C
:1054000001221A601E4B1A68D0075CBF01221A6085
:105410001C4B1A68D1075CBF01221A601A4B1A682C
:10542000D2075CBF01221A60184B1A68D0075CBF14
:1054300001221A60164B1A68D1075CBF01221A605C
:10544000144B1A68D2075CBF01221A60124B1A680B
:10545000D0075CBF01221A60104B1A68D1075CBFED
:1054600001221A600E4B1A68D2075CBF01221A6033
:10547000704700BFEC090020E8090020E409002083
:10548000E0090020DC090020D8090020D409002010
:10549000D0090020CC090020C8090020C409002040
:1054A000C0090020244B1A68D0075CBF01221A6093
:1054B000224B1A68D1075CBF01221A60204B1A6880
:1054C000D2075CBF01221A601E4B1A68D0075CBF6E
:1054D00001221A601C4B1A68D1075CBF01221A60B6
:1054E0001A4B1A68D2075CBF01221A60184B1A685F
:1054F000D0075CBF01221A60164B1A68D1075CBF47
:1055000001221A60144B1A68D2075CBF01221A608C
:10551000124B1A68D0075CBF01221A60104B1A6840
:10552000D1075CBF01221A600E4B1A68D2075CBF1C
:1055300001221A60704700BF1C0A0020180A0020D0
:10554000140A0020100A00200C0A0020080A00207B
:10555000040A0020000A0020FC090020F8090020AD
:10556000F4090020F0090020184B1A68D1075CBF2D
:1055700001221A60164B1A68D2075CBF01221A601A
:10558000144B1A68D0075CBF01221A60124B1A68CC
:10559000D1075CBF01221A60104B1A68D2075CBFAA
:1055A00001221A600E4B1A68D0075CBF01221A60F4
:1055B0000C4B1A68D1075CBF01221A600A4B1A68AB
:1055C000D2075CBF01221A60704700BF3C0A00206E
:1055D000380A0020340A0020300A00202C0A00205B
:1055E000280A0020240A0020200A002081F000411F
:1055F00002E000BF83F0004330B54FEA41044FEAB8
:10560000430594EA050F08BF90EA020F1FBF54EA52
:10561000000C55EA020C7FEA645C7FEA655C00F0EE
:10562000E2804FEA5454D4EB5555B8BF6D420CDDBF
:105630002C4480EA020281EA030382EA000083EA42
:10564000010180EA020281EA0303362D88BF30BDE2
:1056500011F0004F4FEA01314FF4801C4CEA113138
:1056600002D0404261EB410113F0004F4FEA033397
:105670004CEA133302D0524263EB430394EA050F22
:1056800000F0A780A4F10104D5F1200E0DDB02FA91
:105690000EFC22FA05F2801841F1000103FA0EF225
:1056A000801843FA05F359410EE0A5F120050EF1EB
:1056B000200E012A03FA0EFC28BF4CF0020C43FA1C
:1056C00005F3C01851EBE37101F0004507D54FF029
:1056D000000EDCF1000C7EEB00006EEB0101B1F579
:1056E000801F1BD3B1F5001F0CD349085FEA3000BF
:1056F0004FEA3C0C04F101044FEA445212F5800FCA
:1057000080F09A80BCF1004F08BF5FEA500C50F166
:10571000000041EB045141EA050130BD5FEA4C0C49
:10572000404141EB010111F4801FA4F10104E9D1D2
:1057300091F0000F04BF01460020B1FA81F308BFC9
:105740002033A3F10B03B3F120020CDA0C3208DD95
:1057500002F1140CC2F10C0201FA0CF021FA02F170
:105760000CE002F11402D8BFC2F1200C01FA02F1E0
:1057700020FA0CFCDCBF41EA0C019040E41AA2BF05
:1057800001EB0451294330BD6FEA04041F3C1CDACD
:105790000C340EDC04F11404C4F1200220FA04F0ED
:1057A00001FA02F340EA030021FA04F345EA030197
:1057B00030BDC4F10C04C4F1200220FA02F001FA59
:1057C00004F340EA0300294630BD21FA04F02946DB
:1057D00030BD94F0000F83F4801306BF81F4801174
:1057E0000134013D4EE77FEA645C18BF7FEA655CE7
:1057F00029D094EA050F08BF90EA020F05D054EAB9
:10580000000C04BF1946104630BD91EA030F1EBFBD
:105810000021002030BD5FEA545C05D140004941C1
:1058200028BF41F0004130BD14F580043CBF01F5B4
:10583000801130BD01F0004545F0FE4141F470019A
:105840004FF0000030BD7FEA645C1ABF1946104675
:105850007FEA655C1CBF0B46024650EA013406BF76
:1058600052EA033591EA030F41F4002130BD00BF35
:1058700090F0000F04BF0021704730B54FF48064F2
:1058800004F132044FF000054FF0000150E700BF73
:1058900090F0000F04BF0021704730B54FF48064D2
:1058A00004F1320410F0004548BF40424FF00001BF
:1058B0003EE700BF42004FEAE2014FEA31014FEA02
:1058C00002701FBF12F07F4393F07F4F81F0605151
:1058D000704792F0000F14BF93F07F4F704730B5C0
:1058E0004FF4607401F0004521F0004120E700BF53
:1058F00050EA010208BF704730B54FF000050AE0DA
:1059000050EA010208BF704730B511F0004502D5DA
:10591000404261EB41014FF4806404F132045FEADC
:10592000915C3FF4DCAE4FF003025FEADC0C18BF81
:1059300003325FEADC0C18BF033202EBDC02C2F177
:10594000200300FA03FC20FA02F001FA03FE40EA09
:105950000E0021FA02F11444C1E600BF4FF0FF3CF3
:1059600006E000BF4FF0010C02E000BF4FF0010C59
:105970004DF804CD4FEA410C7FEA6C5C4FEA430CD2
:1059800018BF7FEA6C5C1BD001B050EA410C0CBF21
:1059900052EA430C91EA030F02BF90EA020F002083
:1059A000704710F1000F91EA030F58BF994208BFEA
:1059B00090422CBFD8176FEAE37040F001007047A7
:1059C0004FEA410C7FEA6C5C02D150EA013C07D1FE
:1059D0004FEA430C7FEA6C5CD6D152EA033CD3D049
:1059E0005DF8040B704700BF8446104662468C4643
:1059F0001946634600E000BF01B5FFF7B7FF002876
:105A000048BF10F1000F01BD4DF808EDFFF7F4FF9E
:105A10000CBF012000205DF808FB00BF4DF808ED29
:105A2000FFF7EAFF34BF012000205DF808FB00BF4C
:105A30004DF808EDFFF7E0FF94BF012000205DF86E
:105A400008FB00BF4DF808EDFFF7CEFF94BF012023
:105A500000205DF808FB00BF4DF808EDFFF7C4FF1C
:105A600034BF012000205DF808FB00BF80F000403B
:105A700002E000BF81F0004142001FBF5FEA410326
:105A800092EA030F7FEA226C7FEA236C6AD04FEA26
:105A90001262D2EB1363C1BFD2184140484041406B
:105AA000B8BF5B42192B88BF704710F0004F40F41D
:105AB000000020F07F4018BF404211F0004F41F439
:105AC000000121F07F4118BF494292EA030F3FD005
:105AD000A2F1010241FA03FC10EB0C00C3F1200318
