:02000002D0002C
:1040000000400D0054540D00000006000D00050195
:084010000401DE0500000000C0
:04401800A4500D00A3
:10401C0009480A49884208B505D0094A824202D0AB
:10402C00121A00F0F5FF0748074A0021121A00F097
:10403C00FAFF014808BD00BF50E30320C4530D0034
:10404C00B8E30320B8E30320F0E7032070B500F0D9
:10405C002FFB074C074BE41AA40800251E46A5426B
:10406C0004D056F8253098470135F8E770BD00BFED
:10407C00B8530D0074530D0000F024B808B500F0CF
:10408C0023F8BDE8084000F0D5BA00F0A7B900F05D
:10409C00A5B90078B0FA80F040097047012303708D
:1040AC00704710B50446006808B100F097F9204637
:1040BC0010BD08B500F0FCFB4FF41651BDE80840EC
:1040CC0000F0EABB7047000008B500F0F1FB0449B2
:1040DC0000F035FA6420BDE8084000F06DBA00BF6E
:1040EC00B8500D0010B50B4C00F03CF8FFF7E1FF99
:1040FC0000232360A380A371238103204FF6FF7359
:10410C00638100F0E7F82046034A0449BDE81040FB
:10411C0000F020BEBCE30320B8E30320AF400D0049
:10412C0000F020B8024B00221A6000F01BB800BF50
:10413C00C8E30320024B00221A6000F013B800BF42
:10414C00CCE3032008B5024B1B689B68019308BDA8
:10415C006802030008B5024B1B68DB68019308BDBD
:10416C006802030008B5024B1B681B68019308BD6D
:10417C002C02030008B5024B1B685B68019308BD59
:10418C001802030008B5024B1B685B69019308BD5C
:10419C001802030008B5024B1B689B68019308BD0D
:1041AC004802030008B5024B1B681B69019308BD4C
:1041BC004802030008B5024B1B685B69019308BDFC
:1041CC004802030008B5024B1B685B6C019308BDE9
:1041DC004802030008B5024B1B689B6C019308BD99
:1041EC004802030008B5024B1B685B69019308BDCC
:1041FC006402030008B5024B1B681B68019308BDE1
:10420C003C02030008B5024B1B68DB68019308BD38
:10421C003C02030008B5024B1B681B69019308BDE7
:10422C003C02030008B5024B1B685B69019308BD97
:10423C003C02030008B5024B1B689B69019308BD47
:10424C003C02030008B5024B1B68DB69019308BDF7
:10425C003C02030008B5024B1B689B6A019308BD26
:10426C003C02030008B5024B1B681B68019308BD98
:10427C004C02030008B5024B1B685B68019308BD38
:10428C004C02030008B5024B1B681B69019308BD67
:10429C004C02030008B5024B1B685B69019308BD17
:1042AC004C02030008B5024B1B689B69019308BDC7
:1042BC004C02030008B5024B1B68DB69019308BD77
:1042CC004C02030008B5024B1B681B6A019308BD26
:1042DC004C02030008B5024B1B685B68019308BDD8
:1042EC002002030008B5024B1B685B69019308BDF3
:1042FC002002030008B5034B1B68D3F888300193E8
:10430C0008BD00002002030008B5034B1B68D3F85E
:10431C009430019308BD00002002030008B5024B45
:10432C001B685B68019308BD4002030008B5024B93
:10433C001B689B68019308BD4002030008B5024B43
:10434C001B68DB68019308BD4002030008B5024BF3
:10435C001B681B69019308BD4002030008B5024BA2
:10436C001B685B69019308BD4002030008B5024B52
:10437C001B689B69019308BD4002030008B5024B02
:10438C001B68DB69019308BD4002030008B5024BB2
:10439C001B681B6A019308BD4002030008B5024B61
:1043AC001B681B6B019308BD4002030008B5024B50
:1043BC001B685B6B019308BD4002030008B5024B00
:1043CC001B68DB6B019308BD4402030008B5024B6C
:1043DC001B681B68019308BD1C02030008B5024B47
:1043EC001B685B68019308BD1C0203000022114688
:1043FC004068FFF7CBBF002211464068FFF7D6BFDD
:10440C0000224068FFF7CABF002281F0010140681A
:10441C00FFF7B4BF00231A4619464068FFF7A6BF42
:10442C0000231A4619464068FFF798BF0022114630
:10443C004068FFF78BBF002211464068FFF776BF3C
:10444C00002202214068FFF779BF00231A4640681A
:10445C00FFF764BF024B03225A60024A1A6070478E
:10446C00D0E30320C8500D0010B5094C00204FF6C6
:10447C00FF732060A080A07120816381FFF72AFF69
:10448C002046044A0449BDE8104000F063BC00BF5C
:10449C00D8E30320B8E30320AF400D0010B5044669
:1044AC00006808B1FFF796FE204610BD10B5064C0B
:1044BC00002320462360FFF785FE2046034A04496B
:1044CC00BDE8104000F046BCE4E30320B8E3032051
:1044DC00A9440D00F8B506460D468F180024BD42C0
:1044EC000CD0336815F8011B9B68304698470028A0
:1044FC0001DB0444F3E7002C08BF04462046F8BD5A
:10450C0070B505460C46084649B100F0BDFD2B6858
:10451C00024621462846DB68BDE87040184770BD4E
:10452C0003689B68184738B50D210546FFF7F8FF5F
:10453C000A2104462846FFF7F3FF204438BD38B55E
:10454C000546FFF7DDFF04462846FFF7ECFF204445
:10455C0038BD30B58BB00B4600218DF82410012AE4
:10456C0098BF0A220DF12304B3FBF2F505FB1233BD
:10457C0003F0FF03092B94BF30333733DBB22146F2
:10458C0004F801392B46002DEED1FFF7B9FF0BB023
:10459C0030BD0000014B024A1A607047E8E303206B
:1045AC0067510D00024B1A68024B1A60704700BF2E
:1045BC0050E30320ECE303200021FFF793BE10B57A
:1045CC008368044613B1032201469847204610BD68
:1045DC0010B50446FFF7F3FF204610BD0348044A0C
:1045EC0004490023836000F0B5BB00BFF0E3032057
:1045FC00B8E30320DD450D0008B50C4B33B100F0DA
:10460C0057F903681B699847002809DC084B63B10C
:10461C0000F018FA03681B699847002803DC08BDF2
:10462C00AFF30080F2E7AFF3008008BD000000009C
:10463C000000000008B5FFF7DFFFFFF7A3FD014BFB
:10464C00186008BD4CE703200248034A0349121ABC
:10465C0000F0DEBC00F4032004F40320C0530D0072
:10466C0007B5002300931A466FF07701FFF74CFE55
:10467C0003B05DF804FB000007B543880A2B08D093
:10468C00502B09D1094B1B683BB103B05DF804EB0F
:10469C001847FFF7E5FF06E0002300931A466FF07A
:1046AC007701FFF731FE03B05DF804FB00E4032053
:1046BC0038B5104C104D2368AB42104B0CBF012287
:1046CC0000221A7002D0FFF7BFFF2560FFF752FDE2
:1046DC00044600F0B1FC0A4B13B12046AFF3008046
:1046EC0000210748FFF76AFE00210648BDE8384064
:1046FC00FFF700BE00F403201E1C279A04E40320DD
:10470C000000000085460D00704710B518210446C6
:10471C0000F025FB204610BDF0B5037D062B8DB0B7
:10472C000E4600F104074FF0000402D000F108051A
:10473C0018E00CAD394605F8304D2F232A460A20D7
:10474C00FFF750FD284600F09FFC33680246DB68FB
:10475C002946304698470FE024B12E213046FFF70A
:10476C00DFFE044415F8011D0A223046FFF7F1FE66
:10477C00BD420444F0D120460DB0F0BD10B5054B40
:10478C000446112240F8043B002100F04CFC20466A
:10479C0010BD00BF08520D000346074A10B543F880
:1047AC00042B01F1100251F8044B43F8044B9142D5
:1047BC00F9D10A781A7010BD08520D0010B59DF889
:1047CC00084044EA032343EA024242EA016104231B
:1047DC004160037510BD37B50D788B784A78C97870
:1047EC0000912946FFF7EAFF03B030BD41747047D2
:1047FC00704708B50021007CFFF754FD30EA20001B
:10480C0028BF4FF0FF3008BD08B50121007CFFF731
:10481C0049FD30EA200028BF4FF0FF3008BD08B535
:10482C00007CFFF737FD20EAE07008BD08B5007C7E
:10483C00FFF728FD20EAE07008BD007CFFF742BDC1
:10484C0010B51421044600F08AFA204610BD38B584
:10485C000446007C0D46FFF71DFD002801DC607C42
:10486C0028B12946207CFFF725FD20EAE07038BDF1
:10487C0010B50446002363604FF47A73A360054BB4
:10488C00236001230846217463741146FFF7EAFC88
:10489C00204610BD1C520D000022007CFFF7EABC24
:1048AC0010B514220446002100F0BDFB204610BDBB
:1048BC0030B50E4D87B001A8FFF7F2FF296811F053
:1048CC00010410D12846FFF7E4FB60B101AA214690
:1048DC000748FFF7CDFF2846FFF7E0FB054A0649DE
:1048EC00034800F037FA024807B030BD08E4032053
:1048FC000CE40320B8E30320FD470D000022114611
:10490C004068FFF723BD002211464068FFF73EBD0B
:10491C00002211464068FFF749BD00224068FFF7AE
:10492C003DBD002281F001014068FFF727BD002347
:10493C001A4619464068FFF719BD00231A46194656
:10494C004068FFF70BBD002211464068FFF7EEBC34
:10495C00002202214068FFF7F1BC00231A46406890
:10496C00FFF7DCBC38B5084C28252A460021204628
:10497C0000F059FB4FF0FF336360044B2580042299
:10498C005A60034A1A6038BD28E4032020E403204F
:10499C004C520D0070474174704708B5007CFFF70E
:1049AC0059FC20EAE07008BD08B5007CFFF732FC2A
:1049BC0020EAE07008BD08B5007CFFF73BFC30EA4C
:1049CC00200028BF4FF0FF3008BD08B5007CFFF772
:1049DC0029FC30EA200028BF4FF0FF3008BD007CD6
:1049EC00FFF730BC10B51421044600F0B8F920468E
:1049FC0010BD70B5457C04460E4625B9007CFFF70A
:104A0C0029FC002805DD3146207CBDE87040FFF70D
:104A1C00F9BB284670BD000010B504460846114687
:104A2C00002262604FF47A72A260054A2260012271
:104A3C00207462741A46FFF7DDFB204610BD00BFE0
:104A4C0080520D0038B50C4D296811F0010411D1BC
:104A5C002846FFF71EFB68B1084A094B0948214656
:104A6C00FFF7DAFF2846FFF719FB074A0749054805
:104A7C0000F070F9034838BDE8E40320ECE40320AF
:104A8C0064E4032050E40320B8E30320A1490D00A3
:104A9C00002211464068FFF779BC0022114640689D
:104AAC00FFF784BC00224068FFF778BC002281F03D
:104ABC0001014068FFF762BC00231A4601214068DF
:104ACC00FFF754BC00231A4619464068FFF746BC52
:104ADC00002211464068FFF739BC0022114640689D
:104AEC00FFF724BC002202214068FFF727BC0023FB
:104AFC001A464068FFF712BC38B5054688B1046801
:104B0C004CB1A3681BB103222146204698471021C3
:104B1C00204600F024F928461421BDE8384000F066
:104B2C001EB938BD10B103685B681847704710B5E3
:104B3C0003680446BBB15868FFF72CFB78B92368AF
:104B4C005A7C12B95868FFF72DFB23685868FFF799
:104B5C0031FB20680023236028B1FFF7CDFF2068CC
:104B6C0008B1FFF7C9FF204610BD38B50446D0F890
:104B7C00C40108B1FFF78BFAD4F8C00108B1FFF7F4
:104B8C0029FBD4F8BC5135B12846FFF7D0FF0421DE
:104B9C00284600F0E4F8206808B1FFF7C3FF204670
:104BAC0038BD000010B5044B044640F8083BFFF735
:104BBC00DCFF204610BD00BFB0520D0038B50E4CC6
:104BCC000E4B23600025022304F5E4706360A5609E
:104BDC00C4F8C451C4F8C851FFF7F4FA084BC4F830
:104BEC00CC5184F8D05123602046064A0649BDE8D2
:104BFC00384000F0AFB800BF70E50320E4520D0060
:104C0C00B0520D00B8E30320B14B0D0000231A463F
:104C1C004068FFF783BB002202214068FFF78EBB80
:104C2C00002211464068FFF781BB00221146406804
:104C3C00FFF78CBB00231A4619464068FFF78EBB62
:104C4C0000231A4619464068FFF790BB002281F0FA
:104C5C0001014068FFF792BB00224068FFF79EBB42
:104C6C00002211464068FFF7A1BB002211464068A4
:104C7C00FFF78CBB2DE9F043002495B016460D468A
:104C8C000746FFF77BFD214620220CA8009400F07C
:104C9C00CAF940230C9321466B460CAA3046FFF709
:104CAC0059FA0446002844D1024601216868FFF7EE
:104CBC004DFB0221804622466868FFF747FB009EA9
:104CCC0081462146002E34D0002932D17368022B44
:104CDC0002D00A2B09D02AE0B8F1000F27D0716955
:104CEC0038460431FFF777FD20E0B9F1000F1ED0F4
:104CFC007469112201A800F096F906238DF814307E
:104D0C0001AD04F108031834186859682A4603C227
:104D1C000833A3421546F7D101A906A807ADFFF742
:104D2C003BFD0FCD3C1D0FC42B6823700121F66990
:104D3C00C8E70098FFF706FA384615B0BDE8F083CF
:104D4C00024B034A1A6000225A60704744E7032062
:104D5C00E4520D000B460146184600F04BB9FFF724
:104D6C0094B90000184B1A68D1075CBF01221A6075
:104D7C00164B1A68D2075CBF01221A60144B1A68D2
:104D8C00D0075CBF01221A60124B1A68D1075CBFB6
:104D9C0001221A60104B1A68D2075CBF01221A60FC
:104DAC000E4B1A68D0075CBF01221A600C4B1A68B4
:104DBC00D1075CBF01221A600A4B1A68D2075CBF8C
:104DCC0001221A60704700BF6CE7032068E70320DC
:104DDC0064E7032060E703205CE7032058E7032027
:104DEC0054E7032050E70320244B1A68D0075CBF1C
:104DFC0001221A60224B1A68D1075CBF01221A608B
:104E0C00204B1A68D2075CBF01221A601E4B1A682D
:104E1C00D0075CBF01221A601C4B1A68D1075CBF1B
:104E2C0001221A601A4B1A68D2075CBF01221A6061
:104E3C00184B1A68D0075CBF01221A60164B1A680F
:104E4C00D1075CBF01221A60144B1A68D2075CBFF1
:104E5C0001221A60124B1A68D0075CBF01221A603B
:104E6C00104B1A68D1075CBF01221A600E4B1A68EE
:104E7C00D2075CBF01221A60704700BF9CE7032079
:104E8C0098E7032094E7032090E703208CE70320A6
:104E9C0088E7032084E7032080E703207CE70320D6
:104EAC0078E7032074E7032070E70320244B1A688B
:104EBC00D0075CBF01221A60224B1A68D1075CBF75
:104ECC0001221A60204B1A68D2075CBF01221A60BB
:104EDC001E4B1A68D0075CBF01221A601C4B1A6863
:104EEC00D1075CBF01221A601A4B1A68D2075CBF4B
:104EFC0001221A60184B1A68D0075CBF01221A6095
:104F0C00164B1A68D1075CBF01221A60144B1A6841
:104F1C00D2075CBF01221A60124B1A68D0075CBF23
:104F2C0001221A60104B1A68D1075CBF01221A606B
:104F3C000E4B1A68D2075CBF01221A60704700BF83
:104F4C00CCE70320C8E70320C4E70320C0E7032015
:104F5C00BCE70320B8E70320B4E70320B0E7032045
:104F6C00ACE70320A8E70320A4E70320A0E7032075
:104F7C00184B1A68D1075CBF01221A60164B1A68CD
:104F8C00D2075CBF01221A60144B1A68D0075CBFB1
:104F9C0001221A60124B1A68D1075CBF01221A60F9
:104FAC00104B1A68D2075CBF01221A600E4B1A68AC
:104FBC00D0075CBF01221A600C4B1A68D1075CBF8A
:104FCC0001221A600A4B1A68D2075CBF01221A60D0
:104FDC00704700BFECE70320E8E70320E4E7032079
:104FEC00E0E70320DCE70320D8E70320D4E7032025
:104FFC00D0E7032010B5054C13462CB10A460146E8
:10500C000220AFF3008010BD204610BD0000000050
:10501C0010B5431E0A44914204D011F8014B03F819
:10502C00014FF8E710BD02440346934202D003F847
:10503C00011BFAE77047000038B5124B1C68A36BD4
:10504C000546D3B91820FFF7C1F943F20E33A0631C
:10505C0003804AF6CD33438041F2342383804EF2F1
:10506C006D63C3804DF6EC630381052343810B23F1
:10507C00838101220023C0E90423A36B00221D615C
:10508C005A6138BDB4E30320034613F8012B002A00
:10509C00FBD1181A013870471D400D0059400D0006
:1050AC0085400D0089400D000000000053746172B2
:1050BC00740A0000000000000000000057440D00BE
:1050CC004D440D0043440D0039440D002D440D009A
:1050DC0021440D0015440D000D440D0003440D003A
:1050EC00F9430D00814C0D006261756400536572CB
:1050FC0069616C0053657269616C3100747970651B
:10510C0000706172616D00636D6400696400686EAB
:10511C0064007374726D0066696C74006C766C005C
:10512C0061646448616E646C65720072656D6F7663
:10513C006548616E646C657200656E756D48616E74
:10514C00646C657273004A534F4E53747265616D93
:10515C004C6F6748616E646C6572006170700025FD
:10516C003031307520005D20002564002C20002893
:10517C00293A2000205B00636F6465203D200025E8
:10518C00690064657461696C73203D20000D0A0030
:10519C0066006C6E00666E00636F64650064657417
:1051AC0061696C006E6F6E65007472616365006995
:1051BC006E666F007761726E006572726F7200704E
:1051CC00616E696300616C6C005A00252B3033648E
:1051DC003A253032750025592D256D2D2564542521
:1051EC00483A254D3A2553257A0061736374696DED
:1051FC0065000000000000000000000025470D00C5
:10520C0015470D0017470D000000000000000000BE
:10521C00FD470D004D480D005B480D00E1440D00AD
:10522C0039480D00FF470D0015480D0047480D008B
:10523C002B480D00F9470D00000000000000000095
:10524C0067490D005D490D0053490D0009490D00DA
:10525C0047490D003B490D002F490D0027490D0012
:10526C001D490D0013490D00814C0D00000000007C
:10527C0000000000A1490D00F1490D00FF490D008F
:10528C00E1440D00B5490D00D7490D00C3490D008F
:10529C00EB490D00A3490D00A7490D0000000000CB
:1052AC0000000000FB4A0D00F14A0D00E74A0D001A
:1052BC00DD4A0D00D14A0D00C54A0D00B94A0D005A
:1052CC00B14A0D00A74A0D009D4A0D00814C0D00FE
:1052DC000000000000000000194C0D00234C0D00D4
:1052EC002D4C0D00374C0D00414C0D004D4C0D005C
:1052FC00594C0D00654C0D006D4C0D00774C0D009C
:10530C00814C0D00000000000000000000000000B7
:10531C000000000000000000000000000000000081
:10532C000000000000000000000000000000000071
:10533C000000000000000000000000000000000061
:10534C000000000000000000000000000000000051
:10535C000000000000000000000000000000000041
:10536C000000000043000000F1400D002D410D0035
:10537C0031410D0041410D0061440D0075440D009B
:10538C00B9440D00A1450D00B1450D00E9450D00D6
:10539C0071490D00C94B0D004D4D0D00714D0D00A7
:1053AC00F54D0D00B94E0D007D4F0D0000000000B5
:0453BC0000000000ED
:0453C00000000000E9
:1053C400F6510D000000000010530D0030530D0085
:1053D40050530D0000000000000000000000000019
:1053E4000000000070530D000000000000000000E9
:1053F40000000000000000000000000000000000A9
:105404000000000000000000000000000000000098
:105414000000000000000000000000000000000088
:085424000000000054E3032026
:10542C00FFFFFFFF00000102030405060708090A3D
:10543C000B0C0D0E0F101112131415161718191A38
:08544C001B1C1D1E1F2028007F
:045454007856341240
:04000003D000401CCD
:00000001FF
