:02000004080AE8
:1000000000000A0844160A08000006000600050160
:080010000402DE0500000000FF
:040018008C120A0834
:10001C0009480A4908B5884205D0094A824202D0EB
:10002C00121A01F0E9F80748074A0021121A01F0E8
:10003C00EEF8064808BD00BF00000020B4150A0801
:10004C006800002068000020000600200006002048
:10005C0070B500F0BBFC074B074C1E46E41AA40815
:10006C000025A54204D056F8253098470135F8E70D
:10007C0070BD00BF74150A08B0150A0800F024B84A
:10008C0008B500F037F8BDE8084000F061BC00F09E
:10009C0093BA00F099BA0078B0FA80F04009704732
:1000AC0001230370704710B50446006808B100F0D6
:1000BC008BFA204610BD08B500F088FDBDE808405D
:1000CC004FF4165100F068BD10B5084C01212046C4
:1000DC0000F02AF92046022100F026F92046BDE85E
:1000EC0010400022024B00F021B900BF700000202C
:1000FC000000E03F10B500F069FD104C104900F015
:10010C0093FB642000F0D2FB204600F028F900F0AD
:10011C005DFD0C4900F088FB204600F012F900F060
:10012C0055FD216800F080FB204600F011F900F02D
:10013C004DFD2168BDE8104000F076BB700000203A
:10014C00A0120A08A7120A0837B5144C00F020F9BF
:10015C00FFF7B1FF00232360A380A37123814FF627
:10016C00FF730F4D6381032000F0A2F92A460D495D
:10017C00204600F0E3FE0C4C0C4B0022CDE9002392
:10018C0001210222204600F0ADF82A4620460849FB
:10019C0003B0BDE8304000F0D1BE00BF9800002095
:1001AC0068000020B3000A08700000200000E03F47
:1001BC0029030A0870470020704700F0E9B80000D6
:1001CC0008B50846024900F0E9FA012008BD00BF55
:1001DC00CC120A0837B50C461049204600F0DEFA5E
:1001EC000420FFF754FF014608B10D4B0360204675
:1001FC0000F0BCF8204600F0A0F80546204600F0C0
:10020C009AF8084B281A3C2242431B686846012185
:10021C0000F02AFA012003B030BD00BFDA120A0840
:10022C0010130A08A400002010B50446024B03600A
:10023C00FFF7C0FF204610BDB8120A0810B50446DF
:10024C00FFF7F2FF2046042100F07DFE204610BD92
:10025C0010B50446024B0360FFF7ACFF204610BDFF
:10026C0010130A0810B50446FFF7F2FF20460421CC
:10027C0000F069FE204610BD70B504200C46FFF757
:10028C0006FF014608B1114B0360204600F06EF8E2
:10029C0000F08EF80146204600F04BF84EF6602632
:1002AC0000F086F80546204600F049F82D1A204645
:1002BC0000F041F870438542F2D30549204600F026
:1002CC006DFA642000F0F2FA012070BDB8120A0831
:1002DC00EA120A08024B00221A6000F059B800BF5B
:1002EC00A400002070B5044615460E46094900F0DE
:1002FC0042FADDE90423C4E9062300232661656183
:10030C0023620420FFF7C3FE08B1034B0360606255
:10031C00204670BDCE130A08B8120A0810B5044660
:10032C0000F0E2F9204610BD01617047C0E90623D8
:10033C007047016270470069704740697047006AF6
:10034C0070470146406A10B103681B691847704733
:10035C000146406A10B10368DB68184770470146D4
:10036C00406A10B103689B681847704738B504465B
:10037C00406A0D4610B103685B689847656238BDEA
:10038C00024B00221A6000F003B800BFA800002046
:10039C0008B5024B1B681B68019308BDB001060829
:1003AC0008B5024B1B685B68019308BD9C010608ED
:1003BC0008B5024B1B685B69019308BD9C010608DC
:1003CC0008B5024B1B689B69019308BDC401060864
:1003DC0008B5024B1B685B6A019308BDC401060893
:1003EC0008B5024B1B689B6A019308BDC401060843
:1003FC0008B5024B1B68DB6A019308BDC4010608F3
:10040C0008B5024B1B681B6B019308BDC4010608A1
:10041C0008B5024B1B685B6B019308BDC401060851
:10042C0008B5024B1B681B6C019308BDC401060880
:10043C0008B5024B1B681B68019308BDD801060860
:10044C0008B5024B1B685B68019308BDD801060810
:10045C0008B5024B1B681B69019308BDD80106083F
:10046C0008B5024B1B685B69019308BDD8010608EF
:10047C0008B5024B1B689B69019308BDD80106089F
:10048C0008B5024B1B68DB69019308BDD80106084F
:10049C0008B5024B1B681B6A019308BDD8010608FE
:1004AC0008B5024B1B689B6C019308BDC001060884
:1004BC0008B5024B1B685B68019308BDA4010608D4
:1004CC0008B5024B1B685B69019308BDA4010608C3
:1004DC0008B5024B1B689B69019308BDA401060873
:1004EC0008B5034B1B68D3F89030019308BD00008E
:1004FC00A401060808B5034B1B68D3F89C30019384
:10050C0008BD0000A401060808B5024B1B685B6817
:10051C00019308BDC801060808B5024B1B689B680F
:10052C00019308BDC801060808B5024B1B68DB68BF
:10053C00019308BDC801060808B5024B1B681B696E
:10054C00019308BDC801060808B5024B1B685B691E
:10055C00019308BDC801060808B5024B1B689B69CE
:10056C00019308BDC801060808B5024B1B68DB697E
:10057C00019308BDC801060808B5024B1B681B6A2D
:10058C00019308BDC801060808B5024B1B681B6B1C
:10059C00019308BDC801060808B5024B1B685B6BCC
:1005AC00019308BDC801060808B5024B1B68DB6B3C
:1005BC00019308BDCC01060808B5024B1B681B68EB
:1005CC00019308BDA001060808B5024B1B685B68C7
:1005DC00019308BDA001060808B5024B1B689B6877
:1005EC00019308BDA001060810B50446006818B1B7
:1005FC00FFF7EAFF0023236010BD38B5B1F90430D2
:10060C000D4683800B4653F8062F0446C0F806208F
:10061C009B884381FFF7E8FF2B6813B1236000230D
:10062C002B60204638BDB1F9043010B50BB90A68FF
:10063C009AB10C685CB1A288012A03D0042A06D1B5
:10064C00022205E0A4898A710B814C8105E0042209
:10065C000B814FF6FF738A714B8151F8063F036093
:10066C008B88838010BD000030B5044685B00846E9
:10067C0011461A460023FFF72BFF00230193ADF818
:10068C0008308DF80A304FF6FF73094D01A9ADF80B
:10069C000C002846ADF80E30FFF7AFFF01A8FFF7AE
:1006AC00A3FF20462946FFF7BEFF204605B030BD0C
:1006BC00AC0000204FF6FF7310B5084C00202060F2
:1006CC00A080A07120816381FFF7F2FE2046BDE877
:1006DC001040034A034900F031BC00BFAC000020BD
:1006EC0068000020B3000A0810B504460068FFF744
:1006FC006BFF204610BD10B50446006808B1FFF72B
:10070C0063FF00232360A360636010BD38B504460B
:10071C000D4600680131FFF75FFF10B184E821003E
:10072C00012038BD10B50368044613B143688B42F1
:10073C0007D22046FFF7EAFF20B1A3680BB9226865
:10074C001370012010BD70B50E46114604461546B7
:10075C00FFF7E8FF18B92046FFF7CDFF09E02A465E
:10076C003146A560206800F047FD2268A36800218F
:10077C00D154204670BD38B5002304460360436055
:10078C00836003730D4639B1084600F071FD2946AC
:10079C0002462046FFF7D7FF204638BD38B5054640
:1007AC000C4641B1084600F063FD2146024628463E
:1007BC00FFF7C9FF01E0FFF79EFF284638BDF8B5EB
:1007CC0006460D468F180024BD420CD0336815F830
:1007DC00011B9B6830469847002801DB0444F3E773
:1007EC00002C08BF04462046F8BD70B505460C46E3
:1007FC00084649B100F03CFD2B68024621462846CC
:10080C00BDE87040DB68184770BD03689B681847EB
:10081C0038B50D210546FFF7F8FF0A210446284696
:10082C00FFF7F3FF204438BD38B50546FFF7DDFF71
:10083C0004462846FFF7ECFF204438BD012A98BF38
:10084C000A2230B50B468BB000218DF824100DF127
:10085C002304B3FBF2F505FB1233DBB2092B94BF77
:10086C0030333733DBB2214604F801392B46002DE7
:10087C00EFD1FFF7BAFF0BB030BD00231A46194673
:10088C004068FFF761BE0000014A024B1A607047D6
:10089C009A130A08B8000020024B1A68024B1A601F
:1008AC00704700BF00000020BC0000200021FFF7B3
:1008BC0007BE10B58368044613B10322014698475E
:1008CC00204610BD10B50446FFF7F3FF204610BDBF
:1008DC00034800238360034A034900F02FBB00BF89
:1008EC00C000002068000020D1080A0808B5144B8D
:1008FC0033B100F06BF903681B699847002816DCCC
:10090C00104B33B100F01CFA03681B6998470028A0
:10091C0010DC0D4B0BB1AFF300800C4B7BB100F036
:10092C0091F903681B699847002806DC08BDAFF3F2
:10093C000080E5E7AFF30080EBE7AFF3008008BD84
:10094C00000000000000000000000000000000009B
:10095C0008B5FFF7CBFFFFF72BFD014B186008BD67
:10096C00440500200248034A0349121A00F044BC13
:10097C000040024004400240B0150A0807B50023AD
:10098C0000931A466FF07701FFF7B4FD03B05DF8E2
:10099C0004FB000007B543880A2B08D0502B09D163
:1009AC00094B1B683BB103B05DF804EB1847FFF72C
:1009BC00E5FF06E0002300931A466FF07701FFF77E
:1009CC0099FD03B05DF804FBD000002038B5104C45
:1009DC00104D2368AB42104B0CBF012200221A7041
:1009EC0002D0FFF7BFFF2560FFF7DAFC044600F0EA
:1009FC0017FC0A4B13B12046AFF3008000210748C7
:100A0C00FFF7D2FDBDE8384000210548FFF768BD6F
:100A1C00004002401E1C279AD40000200000000059
:100A2C00A1090A08704710B50446182100F08BFA8A
:100A3C00204610BDF8B50F4600F10806051D002430
:100A4C0016F8011D0A223846FFF7F8FEAE420444A0
:100A5C0007D0002CF4D02E213846FFF7D6FE0444E4
:100A6C00EEE72046F8BD000010B50446044B1122F9
:100A7C0040F8043B002100F0CAFB204610BD00BF2B
:100A8C003C140A080346074A10B543F8042B01F13D
:100A9C00100251F8044B914243F8044BF9D10A78F7
:100AAC001A7010BD3C140A08024A4160026004220C
:100ABC00027570473C140A0810B59DF8084044EACA
:100ACC00032343EA024242EA0161042341600375B5
:100ADC0010BD000037B5044D05609DF81850009509
:100AEC00FFF7EAFF03B030BD3C140A0841747047AD
:100AFC00704708B50021007CFFF7BAFC30EA2000F3
:100B0C0028BF4FF0FF3008BD08B50121007CFFF76E
:100B1C00AFFC30EA200028BF4FF0FF3008BD08B50D
:100B2C00007CFFF79DFC20EAE07008BD08B5007C56
:100B3C00FFF78EFC20EAE07008BD007CFFF7A8BC34
:100B4C0010B50446142100F0FEF9204610BD38B54E
:100B5C000446007C0D46FFF783FC002801DC607C1A
:100B6C0028B12946207CFFF78BFC20EAE07038BDC9
:100B7C0010B50446002363604FF47A73A360054BF1
:100B8C00084623600123217463741146FFF750FC5F
:100B9C00204610BD50140A080022007CFFF750BC00
:100BAC0010B504461422002100F031FB054B204601
:100BBC006360054BE36040F20113238181232382A0
:100BCC0010BD00BF5D010020DC00002030B50E4DD3
:100BDC0087B001A8FFF7E4FF296811F0010410D1D8
:100BEC002846FFF758FA60B101AA21460748FFF7DB
:100BFC00BFFF2846FFF754FA054A0649034800F0A0
:100C0C009DF9024807B030BDD800002060020020DA
:100C1C0068000020FD0A0A0810B5044614220021C1
:100C2C0000F0F5FA054B20466360054BE36040F29B
:100C3C00011323818123238210BD00BF10030020E8
:100C4C007802002010B50E4C86B001A8FFF7E4FF27
:100C5C002368DB0710D42046FFF71DFA60B101AA08
:100C6C0001210848FFF784FF2046FFF719FA064ACE
:100C7C000649044800F062F9024806B010BD00BFF6
:100C8C0074020020FC02002068000020FD0A0A0803
:100C9C0070474174704708B5007CFFF7C1FB20EA30
:100CAC00E07008BD08B5007CFFF79AFB20EAE07005
:100CBC0008BD08B5007CFFF7A3FB30EA200028BF75
:100CCC004FF0FF3008BD08B5007CFFF791FB30EA10
:100CDC00200028BF4FF0FF3008BD007CFFF798BB09
:100CEC0010B50446142100F02EF9204610BD70B545
:100CFC00457C04460E4625B9007CFFF791FB002885
:100D0C0005DD3146207CBDE87040FFF761BB28460D
:100D1C0070BD000010B50446084611460022626002
:100D2C004FF47A72A260054A207422600122627428
:100D3C001A46FFF745FB204610BD00BF80140A0879
:100D4C0038B50C4D296811F0010411D12846FFF774
:100D5C00A2F968B1084A2146084B0948FFF7DAFFA7
:100D6C002846FFF79DF9074A0749054800F0E6F8C1
:100D7C00034838BDAC040020B00400202804002037
:100D8C0014040020680000209D0C0A080022114663
:100D9C004068FFF7D1BBF0B5164689B011220F465B
:100DAC000446002103A800F032FA304600F060FA45
:100DBC000025009581B27B6803AA3046FFF770FBD3
:100DCC0020B129462046FFF76FFE03E003A9204619
:100DDC00FFF758FE204609B0F0BD002211464068CE
:100DEC00FFF7CABB002211464068FFF7D5BB0022B3
:100DFC004068FFF7C9BB002281F001014068FFF792
:100E0C00B3BB00231A4619464068FFF7A5BB002266
:100E1C0011464068FFF780BB002202214068FFF7B3
:100E2C0083BB00231A464068FFF76EBB024B0422BB
:100E3C005A60024A1A60704734050020B0140A0840
:100E4C0000231A464068FFF75FBB0022022140686E
:100E5C00FFF76ABB002211464068FFF75DBB00221A
:100E6C0011464068FFF768BB00231A4619464068D4
:100E7C00FFF76ABB00231A4619464068FFF76CBBA4
:100E8C00002281F001014068FFF76EBB0022406830
:100E9C00FFF77ABB002211464068FFF77DBB0022AA
:100EAC0011464068FFF768BB70B516468EB0044615
:100EBC0008A8FFF7D9FD1122002103A800F0A7F91B
:100ECC00304600F0D5F900250A4B009581B25B68DD
:100EDC0003AA3046FFF7E4FA20B129462046FFF773
:100EEC00E3FD03E003A92046FFF7CCFD20460EB03E
:100EFC0070BD00BF34050020024B034A1A6000226B
:100F0C005A6070473C050020E4140A0813B5084CDD
:100F1C0000231A46194600932046FFF7DBFD2046B6
:100F2C00044A054902B0BDE8104000F007B800BF04
:100F3C004805002068000020310A0A080B460146CB
:100F4C00184600F04BB9FFF7A4B80000184B1A680C
:100F5C00D1075CBF01221A60164B1A68D2075CBF1E
:100F6C0001221A60144B1A68D0075CBF01221A6068
:100F7C00124B1A68D1075CBF01221A60104B1A6819
:100F8C00D2075CBF01221A600E4B1A68D0075CBFF7
:100F9C0001221A600C4B1A68D1075CBF01221A603F
:100FAC000A4B1A68D2075CBF01221A60704700BF57
:100FBC007C050020780500207405002070050020B9
:100FCC006C050020680500206405002060050020E9
:100FDC00244B1A68D0075CBF01221A60224B1A6896
:100FEC00D1075CBF01221A60204B1A68D2075CBF84
:100FFC0001221A601E4B1A68D0075CBF01221A60CE
:10100C001C4B1A68D1075CBF01221A601A4B1A6874
:10101C00D2075CBF01221A60184B1A68D0075CBF5C
:10102C0001221A60164B1A68D1075CBF01221A60A4
:10103C00144B1A68D2075CBF01221A60124B1A6853
:10104C00D0075CBF01221A60104B1A68D1075CBF35
:10105C0001221A600E4B1A68D2075CBF01221A607B
:10106C00704700BFAC050020A8050020A405002097
:10107C00A00500209C050020980500209405002068
:10108C00900500208C050020880500208405002098
:10109C0080050020244B1A68D0075CBF01221A601F
:1010AC00224B1A68D1075CBF01221A60204B1A68C8
:1010BC00D2075CBF01221A601E4B1A68D0075CBFB6
:1010CC0001221A601C4B1A68D1075CBF01221A60FE
:1010DC001A4B1A68D2075CBF01221A60184B1A68A7
:1010EC00D0075CBF01221A60164B1A68D1075CBF8F
:1010FC0001221A60144B1A68D2075CBF01221A60D5
:10110C00124B1A68D0075CBF01221A60104B1A6888
:10111C00D1075CBF01221A600E4B1A68D2075CBF64
:10112C0001221A60704700BFDC050020D8050020A2
:10113C00D4050020D0050020CC050020C8050020D7
:10114C00C4050020C0050020BC050020B805002007
:10115C00B4050020B0050020184B1A68D1075CBFFD
:10116C0001221A60164B1A68D2075CBF01221A6062
:10117C00144B1A68D0075CBF01221A60124B1A6814
:10118C00D1075CBF01221A60104B1A68D2075CBFF2
:10119C0001221A600E4B1A68D0075CBF01221A603C
:1011AC000C4B1A68D1075CBF01221A600A4B1A68F3
:1011BC00D2075CBF01221A60704700BFFC050020FB
:1011CC00F8050020F4050020F0050020EC050020B7
:1011DC00E8050020E4050020E005002010B5054CD2
:1011EC0013462CB10A4601460220AFF3008010BD15
:1011FC00204610BD0000000010B5431E0A44914269
:10120C0004D011F8014B03F8014FF8E710BD034669
:10121C000244934202D003F8011BFAE77047000026
:10122C0038B5124B05461C68A36BD3B91820FFF7D1
:10123C00C3F943F20E33A06303804AF6CD334380E7
:10124C0041F2342383804EF26D63C3804DF6EC6320
:10125C000381052343810B23838101220023C0E9F1
:10126C000423A36B00221D615A6138BD6400002069
:10127C00034613F8012B002AFBD1181A01387047CA
:10128C001D000A085D000A0889000A088D000A087A
:10129C000000000053746172740A00546573743159
:1012AC000A000000000000000000000035020A08DF
:1012BC0049020A08CD010A08E1010A08C3010A081B
:1012CC00526561642053656E736F72730A00676FA9
:1012DC00696E6720746F20736C6565700A006D61B0
:1012EC00782074696D6520666F722070756C6973F7
:1012FC0068696E672072656163680A00000000000F
:10130C00000000005D020A0871020A08C3010A0805
:10131C00C3010A0885020A0862617564005365728C
:10132C0069616C0055534253657269616C3100748C
:10133C0079706500706172616D00636D6400696441
:10134C0000686E64007374726D0066696C74006C76
:10135C00766C0061646448616E646C6572007265E1
:10136C006D6F766548616E646C657200656E756D47
:10137C0048616E646C657273004A534F4E537472BD
:10138C0065616D4C6F6748616E646C65720061706D
:10139C007000253031307520005D20002564002C54
:1013AC00200028293A2000205B00636F6465203DF3
:1013BC00200025690064657461696C73203D200010
:1013CC000D0A0066006C6E00666E00636F6465004B
:1013DC0064657461696C006E6F6E65007472616334
:1013EC006500696E666F007761726E006572726F70
:1013FC00720070616E696300616C6C005A00252B81
:10140C003033643A253032750025592D256D2D2544
:10141C00645425483A254D3A2553257A0061736367
:10142C0074696D6500000000000000000000000001
:10143C00410A0A08310A0A08330A0A0800000000A7
:10144C0000000000FD0A0A084D0B0A085B0B0A0895
:10145C00CB070A08390B0A08FF0A0A08150B0A08F9
:10146C00470B0A082B0B0A08F90A0A0800000000AF
:10147C00000000009D0C0A08ED0C0A08FB0C0A0881
:10148C00CB070A08B10C0A08D30C0A08BF0C0A08CF
:10149C00E70C0A089F0C0A08A30C0A0800000000BD
:1014AC00000000002F0E0A08250E0A081B0E0A0861
:1014BC00990D0A0887080A080F0E0A08030E0A0875
:1014CC00FB0D0A08F10D0A08E70D0A08A30D0A081E
:1014DC0000000000000000004D0E0A08570E0A081C
:1014EC00610E0A086B0E0A08750E0A08810E0A08AE
:1014FC008D0E0A08990E0A08A10E0A08AB0E0A08EE
:10150C00B50E0A08000000000000000000000000FA
:10151C0000000000000000000000000000000000BF
:10152C0000000000000000000000000000000000AF
:10153C00000000000000000000000000000000009F
:10154C00000000000000000000000000000000008F
:10155C00000000000000000000000000000000007F
:10156C00000000004300000055010A08C7010A08EA
:10157C00E1020A088D030A08C1060A0895080A0840
:10158C00A5080A08DD080A08390E0A08050F0A081A
:10159C00190F0A08590F0A08DD0F0A08A1100A08CA
:0415AC0065110A08B3
:0415B0000000000037
:1015B40029140A080000000010150A0830150A084A
:1015C40050150A08000000000000000000000000A0
:1015D4000000000070150A08000000000000000070
:1015E40000000000000000000000000000000000F7
:1015F40000000000000000000000000000000000E7
:1016040000000000000000000000000000000000D6
:081614000000000004000020AA
:10161C00FFFFFFFF00000102030405060708090A8B
:10162C000B0C0D0E0F101112131415161718191A86
:08163C001B1C1D1E1F202800CD
:04164400785634128E
:04000005080A001CC9
:00000001FF
